:1000000000800020BD010000CD8C0000858C000028
:10001000858C0000858C0000858C0000858C00009C
:10002000858C0000858C0000858C0000CD8C000044
:10003000CD8C0000858C0000A5B00000A9B00000A8
:10004000CD8C0000CD8C0000CD8C0000CD8C00004C
:10005000CD8C0000CD8C0000CD8C0000CD8C00003C
:10006000CD8C0000CD8C0000CD8C0000CD8C00002C
:10007000CD8C0000CD8C0000CD8C0000CD8C00001C
:10008000CD8C0000CD8C0000CD8C0000CD8C00000C
:10009000CD8C0000CD8C0000CD8C0000CD8C0000FC
:1000A000CD8C0000CD8C0000CD8C0000CD8C0000EC
:1000B000CD8C0000797F0000857F0000897F0000E3
:1000C000957F0000997F00009D7F0000CD8C00008F
:1000D000CD8C0000CD8C0000CD8C0000CD8C0000BC
:1000E000CD8C0000CD8C0000CD8C0000CD8C0000AC
:1000F000CD8C0000CD8C0000CD8C00006D990000EF
:10010000CD8C0000F19E0000CD8C0000CD8C000055
:10011000CD8C0000CD8C0000CD8C0000CD8C00007B
:10012000CD8C0000CD8C0000CD8C0000CD8C00006B
:10013000CD8C0000CD8C0000CD8C0000CD8C00005B
:10014000CD8C0000CD8C0000CD8C0000CD8C00004B
:10015000CD8C0000CD8C0000CD8C0000CD8C00003B
:10016000CD8C00007DA10000CD8C0000CD8C000066
:10017000CD8C0000CD8C0000CD8C0000CD8C00001B
:10018000CD8C0000CD8C0000CD8C0000CD8C00000B
:10019000CD8C0000CD8C0000CD8C0000CD8C0000FB
:1001A000CD8C0000CD8C0000CD8C0000CD8C0000EB
:1001B000CD8C0000CD8C0000CD8C0000564B4CF255
:1001C000205210B51A804DF628121A8000BF00BFC9
:1001D00008F080FD514B4FF010621A60504A9A604F
:1001E000504ADA60504A136813F4807304D14F49BF
:1001F0000B604FF4A85313604D4B1A78110703D5C9
:100200001A7842F008021A704A4B4B492A221A7097
:100210004A4A4B4B8B4204D252F8040F43F8040B6A
:10022000F8E7484B484900228B4202D243F8042B9E
:10023000FAE74649464A002352F8230041F82300D2
:1002400001336F2BF8D1434B434A802103F8011B44
:100250009342FBD1414B3D4A1A60414B8A221A70AE
:10026000A3F5805324225A70A0221A709A7992071B
:10027000FCD59A79D406FCD43A4A937903F00C035E
:10028000082B384BF9D103221A7140225A719A79FE
:100290009006FCD5334A9179324B4906FBD5324A58
:1002A000324911600221516020221A709A7902F0BD
:1002B0000C020C2AFAD12E4B2E4A1A602E4B2F4AD2
:1002C0001A6000225A60072243F8042C2C4AC3F813
:1002D0000C2D62B608F0B4FF144B1B68DA0705D585
:1002E000284808F091FD284B284A1A60284B1B78B3
:1002F0005B0609D5244C254B22689A4204D121483B
:1003000008F082FD002323600CF09CFD08F0E8FC5F
:100310000BF0C8F9FEE700BF0E2005403080044016
:10032000823F04000100002B10D0034014D0034092
:1003300002D0074000E007405092FF1FCC2B010085
:100340002087FF1F5092FF1FDCB9FF1F0082FF1F95
:100350000000000000E400E05FE400E008ED00E0E1
:100360000050064000400640448004400000030165
:1003700004800440C010050014E000E0FF76010096
:1003800000002020391EE25F1CE00340A5C3945A00
:1003900000F00740FFFFFFFFFFFFFFFFFFFFFFFF32
:1003A000FFFFFFFFFFFFFFFFFFFFFFFFFFFFFFFF5D
:1003B000FFFFFFFFFFFFFFFFFFFFFFFFFFFFFFFF4D
:1003C000FFFFFFFFFFFFFFFFFFFFFFFFFFFFFFFF3D
:1003D000FFFFFFFFFFFFFFFFFFFFFFFFFFFFFFFF2D
:1003E000FFFFFFFFFFFFFFFFFFFFFFFFFFFFFFFF1D
:1003F000FFFFFFFFFFFFFFFFFFFFFFFFFFFFFFFF0D
:10040000FFFFFFFFFFFFFFFFFFFFFFFFDEF9FFFF23
:1004100010B5054C237833B9044B13B10448AFF33E
:1004200000800123237010BD5092FF1F00000000C8
:10043000C82B0100084B10B51BB108490848AFF3A1
:1004400000800848036803B910BD074B002BFBD0A0
:10045000BDE81040184700BF000000005492FF1F85
:10046000C82B01005092FF1F00000000F0B4154F90
:100470000024031F00F1800100F5827200F17C0668
:1004800043F8044FB34241F8047F4FF0000542F8AF
:10049000044FF5D100230C4A0C49C0F88C51C0F828
:1004A0009051C0F8B051C0F8A421C0F8AC21C0F8F8
:1004B000A81180F8B83180F8B93180F8D031F0BC9B
:1004C000704700BF0000A040000048430000C8C2C1
:1004D00038B590F8D031023B092B0546144607D8B1
:1004E00070296AD0E02931D0602900F09C8038BDA5
:1004F00070293AD0E02929D06029F8D1137A507AAE
:100500001B0203F47063181805D00CF035FA61492A
:100510000CF086FA6860A37AE07A1B0203F4706339
:10052000181805D00CF028FA5A490CF079FAA8608E
:10053000237B607B1B0203F470631818D7D00CF088
:100540001BFA54490CF06CFAE86038BDE37BA07BE1
:1005500003EB00200CF010FA4F490CF061FA4F4900
:100560000CF056F9C5F8900138BD137A507A1B0289
:1005700003F47063181805D00CF0FEF945490CF02F
:100580004FFA2861A37AE07A1B0203F4706318180B
:1005900005D00CF0F1F93F490CF042FA6861237B79
:1005A000607B1B0203F470631818A0D00CF0E4F910
:1005B00038490CF035FAA86138BD137A507A1B021D
:1005C00003F47063181805D00CF0D6F931490CF01B
:1005D00027FA6861A37AE07A1B0203F470631818A3
:1005E00005D00CF0C9F92B490CF01AFAA861237B4D
:1005F000607B1B0203F47063181805D00CF0BCF983
:1006000024490CF00DFAE861A37BE07B1B0203F4A4
:10061000706318183FF46BAF0CF0AEF91D490CF085
:10062000FFF9286238BD137A507A1B0203F4706315
:10063000181805D00CF0A0F916490CF0F1F9686013
:10064000A37AE07A1B0203F47063181805D00CF04B
:1006500093F910490CF0E4F9A860237B607B1B023E
:1006600003F47063181805D00CF086F909490CF0F2
:10067000D7F9E860A37BE07B1B0203F470631818D2
:100680003FF435AF0CF078F902490CF0C9F9286154
:1006900038BD00BF0AD7A33ADDB504BD000016433C
:1006A000D0F8DC01704700BF90F8C001704700BF70
:1006B00090F8BC01704700BF90F8C401704700BFBC
:1006C00090F8C801704700BF202994BF50F821005E
:1006D000002070472DE9F0410B4E8046041F00F1C9
:1006E0007C0754F8045F314628460CF037FB30B1E4
:1006F000D8F8B41128460CF04FFB00B12E46BC428E
:10070000EFD13046BDE8F081000020412DE9F041F5
:10071000D0F8B4714FF00008041F00F17C0654F8C3
:10072000045F394628460CF037FB084948B1284693
:100730000CF014FB414620B128460CF02DFB00B113
:10074000A846B442EBD14046BDE8F08100007042BB
:100750002DE9F0470023D0F8B471C0F8DC318246AF
:100760001C464FF000099846061F56F8045F3846AD
:1007700029460CF0F3FA0E4960B128460CF0EEFA67
:1007800040B1484629460CF043F808F1010881467B
:10079000CAF8DC410134202CE7D1CAF8D4814046A4
:1007A0000CF0EAF8014648460CF0EEF9BDE8F08797
:1007B00000007042D0F8D401704700BFD0F890011B
:1007C000704700BFD0F89001704700BFD0F890018B
:1007D000704700BF2DE9F8434FF00008D0F8B4711E
:1007E000C0F88C818146041F00F17C0654F8045F38
:1007F000394628460CF0D0FA084950B128460CF08A
:10080000ADFA30B1404629460CF002F88046C9F8EE
:100810008C01B442EAD14046BDE8F8830000704242
:1008200002299ABF643150F821000020704700BFB0
:10083000102998BF80F8D011704700BF90F8B80118
:10084000704700BFC0F8CC11704700BF80F8B811E6
:10085000704700BF80F8B911704700BF30B5C0F8CD
:10086000B41183B008460BF031FC074C0225024658
:100870000B46009520460AF0D7FD204603B0BDE8A0
:1008800030400AF079BD00BFEC87FF1F70B500F55E
:1008900000550646183500F13804204604F5F0747A
:1008A000FFF7E4FDAC42F8D106F5067501242846B1
:1008B0000021FFF7CBFF214628460134FFF7B8FFA0
:1008C000112C05F5F075F2D142F2200400250548FF
:1008D000054A064B3555002130627162B262F362FF
:1008E000304670BD00007A44000048430000C8C292
:1008F00042F224032DE9F041002200F5F15500F504
:1009000000578046C2501835243700F5067403E0BE
:1009100004F5F074AC420ED02046FFF78FFF00289C
:10092000F6D020463E68FFF745FF04F5F0743044EA
:10093000AC423860F0D142F2240358F80300BDE81D
:10094000F08100BF70B50E460121356805F00F0437
:100950000C44C4EB041400EB441000F138042046AE
:10096000FFF774FF20460121FFF774FF324620464F
:1009700005F0F001BDE87040FFF7AABD70B5002397
:1009800000F5005605460361183600F5067403E0CD
:1009900004F5F074A64223D02046FFF74FFF00284D
:1009A000F6D02046FFF716FF014628690BF030FF0E
:1009B00028612046FFF702FFA96A0CF0CFF920BB9F
:1009C0002046FFF7FFFEE96A0CF0E6F90028DFD0C9
:1009D0002046FFF7F7FE04F5F074A642E862DBD18B
:1009E00068690BF0C9FF014628690CF0CDF8696A07
:1009F000286104460CF0D0F900B16C62296A2046E7
:100A00000CF0ACF900B12C6270BD2046FFF7D6FEA9
:100A1000A862D5E770B5124B836100F50055064614
:100A2000183500F5067403E004F5F074AC4214D0F8
:100A30002046FFF703FF0028F6D02046FFF74AFEC6
:100A4000B1690CF08BF90028EED02046FFF742FE8A
:100A500004F5F074AC42B061EAD1B06970BD00BF7A
:100A60000000A04070B5002300F500550646C361A4
:100A7000183500F5067403E004F5F074AC4214D0A8
:100A80002046FFF7DBFE0028F6D02046FFF73EFEAB
:100A9000F1690CF081F90028EED02046FFF736FE10
:100AA00004F5F074AC42F061EAD1F06970BD00BFAA
:100AB0000069704741617047F8B50F46164600F56A
:100AC0000674012504E00135112D04F5F0741BD0E6
:100AD0002046FFF7B3FE0028F5D029460B480AF060
:100AE0009BFC0A480AF048FC78200AF039FA2046B4
:100AF0003946FFF7A7FE013520463146FFF7AEFE27
:100B0000112D04F5F074E3D1F8BD00BFEC87FF1F91
:100B100042F21C032DE9F041002200F50055C250BD
:100B20002F46274A274B426306464FF000080363CF
:100B300018351C3700F5067403E004F5F074AC4278
:100B40002ED02046FFF77AFE0028F6D02046FFF789
:100B50003DFE00210CF020F90028EED03B68013367
:100B60003B602046FFF732FE014640460BF050FE48
:100B700080462046FFF726FE316B0CF00DF9D0B908
:100B80002046FFF71BFE716B0CF0E8F80028D4D06C
:100B90002046FFF713FE04F5F074AC427063D0D129
:100BA00042F21C03F0580BF0E7FE014640460BF002
:100BB000EBFFBDE8F0812046FFF704FE3063DFE77E
:100BC00000C0794400C079C4006B7047406B704727
:100BD000F8B500F5005507460026183500F50674EF
:100BE00003E004F5F074AC4210D02046FFF726FE77
:100BF0000028F6D02046FFF7ABFD014630460BF04B
:100C000007FE04F5F074AC420646EED142F21C0336
:100C1000F8580BF0B1FE014630460BF0B5FFF8BDB9
:100C20002DE9F04F83B000F10F02C31D009204467E
:100C30000193002203F8012F00999942FAD101276C
:100C4000B94604F5067504F108082846FFF7F6FDD5
:100C5000E8B14FF0010B00262046FFF7B9FF5946D7
:100C600082462846FFF730FD014650460CF076F8E4
:100C700020B10BF1FF3209FA02F216430BF1010B1E
:100C8000BBF1090FE8D1092F55D088F80060013772
:100C90000A2F05F5F07508F10108D6D14FF440721E
:100CA00008232260E3712146244807F005F8019BE0
:100CB000002203F8012F00999942FAD104F59756C2
:100CC00018364FF00A084FF001093046FFF7B6FD1D
:100CD000D8B1012500272046FFF77AFF2946834631
:100CE0003046FFF7F1FC014658460CF037F818B1D2
:100CF0006B1E09FA03F31F430135092DEBD1019B4C
:100D0000B8F10B0FCCBF1F705F70019B08F1010899
:100D10000133B8F1100F06F5F0760193D5D10748ED
:100D20004FF44472052321462260E37103B0BDE80D
:100D3000F04F06F0C1BFE673B0E700BFCCB5FF1FB0
:100D40002DE9F04F93B004460F91002A40F0D08176
:100D500015461046C54900F0D7FDC449284600F0A5
:100D6000D3FDC249284600F0CFFD42F21C032046C5
:100D700054F803B0FFF7BCFD8146206966690BF0AB
:100D8000A5F9CDE910012046FFF722FF8246204653
:100D9000A769D4F81C80FFF7BBFE0BF097F9CDE9EB
:100DA0000C01394640460BF031FDB1490BF038FEDD
:100DB0000BF08CF9CDE90A0140460BF087F9CDE93B
:100DC000080138460BF082F9CDE9060150460BF0D8
:100DD0007DF9DDE91023CDE90401CDE90223A54920
:100DE00000964B465A46284600F08EFD9F492846FD
:100DF00000F08AFD04F506744FF0010ADDF83C901E
:100E000007E00AF1010ABAF1100F04F5F07400F0DE
:100E1000F2802046FFF712FD0028F2D02046FFF7AF
:100E200043FC2046FFF744FC2046FFF745FC2046E4
:100E3000FFF746FC082190480AF00EF851468F480B
:100E40000AF0EAFABAF1090F03DC01218C480AF032
:100E500003F802218B4809F0FFFF2046FFF7BAFC98
:100E60000BF034F95FFA89F802460B46CDF80080A2
:100E700082480AF0D9FA0121834809F0EDFF2046A3
:100E8000FFF70EFC0C2800F3B98001261DE00721B6
:100E90007E4809F0E1FF294678480AF0BDFA0221B0
:100EA0007B4809F0D9FF31462046FFF70DFC0BF0D7
:100EB0000DF9CDF8008002460B4670480AF0B4FAEE
:100EC000012171480E4409F0C7FF2046FFF7E8FBF7
:100ED000864269DC092D05F10105D8DC012168484D
:100EE00009F0BAFFD3E72046FFF7DAFB172800F333
:100EF000B98035460D261CE0013509F0ADFF2946C5
:100F00005E480AF089FA0221614809F0A5FF3146DE
:100F10002046FFF7D9FB0BF0D9F8CDF80080024648
:100F20000B4656480AF080FA012157480E4409F052
:100F300093FF2046FFF7B4FB86424FF0070153486A
:100F4000DADD0F21534809F087FF4C480AF014FA04
:100F50002046FFF7A5FB192826DD19261CE00135E0
:100F600009F07AFF294645480AF056FA0221484816
:100F700009F072FF31462046FFF7A6FB0BF0A6F8FA
:100F8000CDF8008002460B463C480AF04DFA01219C
:100F90003D480E4409F060FF2046FFF781FB864282
:100FA0004FF007013948DADD0F213A4809F054FFC4
:100FB00032480AF0E1F90921374809F04DFF0021D4
:100FC0002046FFF72DFC0BF081F8022602460B4667
:100FD00000962A480AF028FA0F212E4809F03CFF13
:100FE0000AF1010A25480AF0C7F9BAF1100F04F511
:100FF000F0747FF40EAF13B0BDE8F08F2F460126DA
:101000001FE00721214809F027FF39461B480AF055
:1010100003FA02211E4809F01FFF31462046FFF760
:1010200053FB0BF053F8CDF8008002460B461348F3
:101030000AF0FAF901360121134809F00DFF0C2ED0
:1010400008D0092F07F10107DBDC01210C4809F06A
:1010500003FFD6E72046FFF723FB0C2805F10B061C
:101060003FF741AF16350D2739E000BF902501004D
:1010700000007A446012010000130100EC87FF1F9A
:10108000B0130100C41601000C130100101301007D
:10109000A013010018130100281301000721BA480A
:1010A00009F0DAFE3146B9480AF0B6F90221B8482B
:1010B00009F0D2FE39462046FFF706FB0BF006F892
:1010C000CDF8008002460B46B0480AF0ADF9012188
:1010D000B0480F4409F0C0FEB5423FF432AF092ECC
:1010E00006F10106DADC0121AB4809F0B5FED5E7CF
:1010F000AA49012000F008FCA849012000F004FCE6
:10110000A649012000F000FC42F21C032046E258F0
:101110001092FFF7EDFB8246206966690AF0D6FF60
:10112000804620468946FFF753FD83462046A56941
:10113000E769FFF7EDFC0AF0C9FFCDE90C0129468C
:1011400038460BF063FB96490BF06AFC0AF0BEFFD1
:10115000CDE90A0138460AF0B9FFCDE90801284671
:101160000AF0B4FFCDE9060158460AF0AFFF534636
:10117000CDE90401CDE90289109A8A49009601203F
:1011800000F0C2FB8549012000F0BEFB04F50674A7
:101190004FF0010A0025DDF83C9007E00AF1010A52
:1011A000BAF1100F04F5F0743FF425AF2046FFF7B5
:1011B00045FB0028F2D02046FFF776FA2046FFF7DD
:1011C00077FA2046FFF778FA2046FFF779FA0821E8
:1011D000754808F0C7FA514674480AF01DF9BAF18B
:1011E000090F03DC01216C4808F0BCFA02217048A9
:1011F00008F0B8FA2046FFF7EDFA0AF067FF5FFA49
:1012000089F802460B46CDF8008068480AF00CF9D0
:101210000121604808F0A6FA2046FFF741FA0C28A1
:1012200000F3AF8001261DE00721574808F09AFA25
:1012300029465E480AF0F0F80221554808F092FA73
:1012400031462046FFF740FA0AF040FFCDF8008013
:1012500002460B4655480AF0E7F801214D480E4476
:1012600008F080FA2046FFF71BFA864269DC092D58
:1012700005F10105D8DC0121474808F073FAD3E7EE
:101280002046FFF70DFA172800F3C98035460D26D2
:101290001CE0013508F066FA294644480AF0BCF81B
:1012A00002213B4808F05EFA31462046FFF70CFA6F
:1012B0000AF00CFFCDF8008002460B463B480AF0CE
:1012C000B3F8012133480E4408F04CFA2046FFF7EA
:1012D000E7F986424FF007012B48DADD0F21354848
:1012E00008F040FA31480AF047F82046FFF7D8F9ED
:1012F000192826DD19261CE0013508F033FA2946A5
:101300002A480AF089F80221214808F02BFA3146D0
:101310002046FFF7D9F90AF0D9FECDF80080024641
:101320000B4622480AF080F801211A480E4408F0C2
:1013300019FA2046FFF7B4F986424FF00701124828
:10134000DADD0F211B4808F00DFA18480AF014F8EE
:101350000921194808F006FA00212046FFF760FA33
:101360000AF0B4FE022602460B4600960F480AF029
:101370005BF80F210F4808F0F5F90C4809F0FCFF65
:101380000CE72F46012639E010130100EC87FF1F00
:10139000A01301000C130100B013010090250100FF
:1013A00000007A446012010000130100C087FF1F93
:1013B000C4160100181301002813010007212E484C
:1013C00008F0D0F939462D480AF026F802212C48B9
:1013D00008F0C8F931462046FFF776F90AF076FEA4
:1013E000CDF8008002460B4624480AF01DF801366D
:1013F0000121244808F0B6F90C2E08D0092F07F176
:101400000107DBDC0121204808F0ACF9D6E72046D3
:10141000FFF746F90C2805F10B063FF731AF1635FB
:101420000D2720E00721144808F09CF931461348A5
:1014300009F0F2FF0221124808F094F939462046DB
:10144000FFF742F90AF042FECDF8008002460B4653
:101450000A4809F0E9FF01210A480F4408F082F91F
:10146000B5423FF43BAF092E06F10106DADC01215B
:10147000054808F077F9D5E710130100C087FF1F72
:10148000A01301000C130100B01301002DE9F04F6F
:1014900085B000F506758A4603929B462E464FF0AE
:1014A000010806E008F10108B8F13F0F06F5F076F3
:1014B0007BD03046FFF7C2F90028F3D000230A2280
:1014C00051467D4809F068FF01217C4809F0C4FCC1
:1014D00003980AF0FBFD00230246009376480B4672
:1014E00009F0A2FF0121754809F0B6FC594672487F
:1014F00009F092FF0121714809F0AEFC41466E48A7
:1015000009F08AFF01216D4809F0A6FC00244FF084
:10151000020921463046FFF7D7F80AF0D7FDCDF88B
:10152000009002460B46644809F07EFF0134012119
:10153000624809F091FC082C4FF00207E9D1002124
:101540003046FFF76DF90AF0C1FD009702460B46E1
:10155000594809F069FF0121584809F07DFC012133
:101560003046FFF75DF90AF0B1FD009702460B46E1
:10157000514809F059FF0121504809F06DFC3946E6
:101580003046FFF74DF90AF0A1FD009702460B46E1
:10159000494809F049FF08F10108474809F0ECFE05
:1015A000B8F13F0F06F5F07683D101274FF000091F
:1015B00004E001373F2F05F5F07579D02846FFF795
:1015C0003DF90028F5D000230A2251463C4809F095
:1015D000E3FE0121394808F0C5F803980AF076FDCA
:1015E000CDF8009002460B46354809F01DFF012159
:1015F000324808F0B7F85946314809F00DFF01218B
:101600002E4808F0AFF839462D4809F005FF0121B2
:101610002A4808F0A7F800244FF00208214628467F
:10162000FFF752F80AF052FDCDF8008002460B4653
:10163000234809F0F9FE01340121204808F092F80E
:10164000082C4FF00206E9D100212846FFF7E8F800
:101650000AF03CFD009602460B46194809F0E4FEEC
:101660000121164808F07EF801212846FFF7D8F836
:101670000AF02CFD009602460B46114809F0D4FEF4
:1016800001210E4808F06EF831462846FFF7C8F8E9
:101690000AF01CFD009602460B46094809F0C4FEFC
:1016A0000137074809F068FE3F2F05F5F07585D131
:1016B00005B0BDE8F08F00BFEC87FF1F34130100B9
:1016C000C087FF1F70B5044608460D460CF098F918
:1016D00023680246294620465B68BDE870401847EB
:1016E000014B1870704700BF2087FF1FF0B51546EB
:1016F000027883B062B103460E46252A16D01878C8
:101700001C4685B909F02CFC6278631C002AF4D1D0
:10171000002D5CD0744803B0BDE8F04009F02CBE49
:101720001046002DEED007F0C5FFEDE758785C1CA1
:101730000028EDD02528F3D073282FD0642825D099
:10174000692823D0662848D07A2853D078285ED0DC
:10175000582800F08580622800F09180422866D0E9
:101760006C2813D0632811D0742800F09880542876
:10177000C7D133680436002D40F0A480012B00F05F
:10178000A8800521594809F067FBBDE7331D316882
:1017900085B957481E4609F03FFEB5E7371D366844
:1017A000304665B90CF02CF9014630463E4609F04A
:1017B00053FBA9E74C481E4609F02EFEA4E70CF0A7
:1017C0001FF9014630463E4607F0CCFF9CE74848EB
:1017D00003B0BDE8F04009F0CFBD073626F007069C
:1017E0000321D6E90023009165B94148083609F084
:1017F0001BFE89E7073626F00706D6E9002385B1E8
:10180000002100913848083609F00EFE7CE7371DAC
:101810003168F5B90023102235483E4609F0BCFD79
:1018200072E700953248083609F0FEFD6CE70221A8
:1018300030487DBB09F010FB3168371D2B46022272
:101840002B483E4609F0A8FD5EE707F08BFF3168A4
:10185000371D0023102224483E4609F09DFD53E722
:1018600002212548002DF0D109F0F6FA371D316824
:101870001F482B4610223E4609F08EFD44E7371DD7
:101880003168002DDAD00023022217483E4609F0C5
:1018900083FD39E707F066FF371D3168F3E73168EC
:1018A00004363DB901290EBF14481548012109F03D
:1018B000D3FA29E701290EBF10481148012107F08A
:1018C00051FF21E7012B09D00521084807F04AFF05
:1018D0001AE70C490648FFF7F5FE15E709490248E3
:1018E000FFF7F0FE10E700BFC087FF1F7413010071
:1018F000EC87FF1F601301005C13010064130100FB
:10190000681301006C1301000EB400B582B003A986
:10191000024651F8040B0191FFF7E8FE02B05DF8B2
:1019200004EB03B0704700BF30B4074D074C0849C3
:1019300000232B70236003654365836580F85C306A
:101940000B6030BC704700BF7492FF1F7092FF1F86
:101950006C92FF1F0A4A0B49906D536D03FB00F315
:101960004FF47A7000FB03F0642310B50B600BF0AA
:1019700003F80549054C0BF007F9206010BD00BFC6
:10198000FC92FF1F3887FF1FE4388E3EBC92FF1F7A
:101990002DE9F8434649474F474D484E484CDFF83C
:1019A00054810020FFF7B0FF464B474A47485A6032
:1019B000DF601222002746491A701861454A4648DE
:1019C0005D615E62454D9C614FF07C56444C1F63E7
:1019D000444F9962DA62444958630C2243489D633C
:1019E0005E6440F61C450A269C641F6241F20404B2
:1019F0003F4FD9641A6502210122C3F8BC009D66DD
:101A000000206425DE661C674FF496763224DF6181
:101A1000DF635A27597059721A725A6583F8400069
:101A20009D655E66DE651C665F67C3F89840C3F817
:101A3000A4408C244FF47A799867D967C3F8800062
:101A4000DFF8B4C0C3F8A00044F6206EC3F8AC20A1
:101A5000C3F8B010FF2741F28831C3F8B45005260F
:101A600083F8C02083F8C12083F8C2204FF4FA75B0
:101A700040F2D6624FF4964083F8CC40C3F89C9075
:101A8000C3F88880C3F88CC0C3F890E0C3F8A8708E
:101A9000A3F8BA60A3F8C450C3F8C800C3F8941000
:101AA000A3F8B810A3F88420A3F88620BDE8F88333
:101AB0007C1301006666864033338340CDCCCC3D39
:101AC000CDCC4C40FC92FF1F48E801000000404094
:101AD00000008242000020C1000020420000A0401F
:101AE0009A997940333373400AD7233D9A99993EA6
:101AF000CDCC4C3E0000684200C0204470B5464C3E
:101B0000464D4748E66800232B70FEF7ABFF0146C1
:101B100030460BF023F908B104232B704048FEF740
:101B200079FF21690BF01AF918B12B7843F01003F3
:101B30002B703B48FFF748F8A16A0BF02DF918B15C
:101B40002B7843F040032B70002335486B70FFF770
:101B50003DF8E16A314E0BF001F908B101237370D1
:101B600000232F48EB70FEF77DFF05462C482B4ED7
:101B7000FEF750FF014628460AF048FEE16B0BF0E5
:101B80000BF908B10123F370264D254800232B7073
:101B9000FEF768FF616A0646E0680AF037FE014614
:101BA00030460BF0F9F808B104232B701C48FEF7FF
:101BB00031FF616A064620690AF02AFE0146304676
:101BC0000BF0CCF818B12B7843F010032B701448AD
:101BD000FEF7FAFFA16B0646A06A0AF017FE01465F
:101BE00030460BF0D9F818B12B7843F040032B7036
:101BF00000230B486B70FEF7E9FFA16B0546E06A16
:101C0000084C0AF005FE014628460BF0A7F808B17B
:101C10000123637070BD00BFFC92FF1FF892FF1F8D
:101C2000A495FF1FD093FF1F2DE9F0417C4C236842
:101C3000012B82B031D0022B00F0A880032B00F0E2
:101C4000C8803BBB774B784AD3F8A410D3F8A830B0
:101C500012685B1A632B0EDD744803FB02F380FBF2
:101C60000302DB17C3EB62131944062002B0BDE880
:101C7000F04107F0DBB86E4803FB022380FB030250
:101C8000DB17C3EB22121144062002B0BDE8F0417D
:101C900007F0CCB802B0BDE8F081664E33680A3375
:101CA000B3F57A7F00F3B780184633600AF064FE1C
:101CB00061490AF0B5FE80465A4DD5F8A4000AF0F5
:101CC0005BFE0746D5F8A8000AF056FE39460AF032
:101CD0009DFD41460AF0A4FE58490AF055FF3946D9
:101CE0000AF096FD0BF062F80146062007F09EF818
:101CF0000221534809F0B0F8524809F03DFB062193
:101D0000514809F0A9F830680AF036FE4A490AF04D
:101D100087FE0AF0DBF9022702460B460097494886
:101D200009F082FB0D21494809F096F8D5F8A40086
:101D30000AF022FE804630680AF01EFE3E490AF094
:101D40006FFE0646D5F8A8000AF016FE41460AF0D6
:101D50005DFD014630460AF063FE38490AF014FF83
:101D600041460AF055FD0AF0B1F900970B460246CC
:101D7000344809F059FB3946314809F06DF83148CB
:101D800009F0FAFA2368022B7FF458AF294B254E4D
:101D900000221A60D6F8A4000AF0EEFD0546D6F837
:101DA000A8000AF0E9FD29460AF030FD00210AF0FA
:101DB00037FE22490AF0E8FE29460AF029FD0AF01A
:101DC000F5FF0146062007F031F82368032B7FF466
:101DD00038AF184B134E4FF47A721A60D6F8A4003D
:101DE0000AF0CAFD0546D6F8A8000AF0C5FD294646
:101DF0000AF00CFD11490AF013FE10490AF0C4FE66
:101E000029460AF005FD0AF0D1FF0146062007F039
:101E10000DF8236815E700234FF0000833604BE707
:101E2000D092FF1FFC92FF1F3887FF1F1F85EB51C9
:101E3000CBF08D288C92FF1FCDCCCC3D0000C8424A
:101E4000C4160100EC87FF1F9C130100A4130100BE
:101E500070B5B648B64C09F08FFAB44809F08CFA60
:101E6000B24809F089FA0D21B24808F0F5FFD4F81C
:101E7000A030012B11D0B04CAC48217800230A22AD
:101E800009F08AFA2378052B67D8DFE813F01001F0
:101E900015011A011F01240106010921A74808F0B4
:101EA000DBFFA748FEF7B6FD21690AF057FF18B11E
:101EB0000F21A44808F0D0FFA148FEF7D3FDE16848
:101EC0000AF06AFF18B10E219F4808F0C5FF9C4830
:101ED000FEF7C8FD05469A48FEF79CFD01462846D8
:101EE0000AF094FCE16B0AF057FF18B111219748F2
:101EF00008F0B2FF9248FEF70BFEA16A0AF04CFF11
:101F000018B10C21924808F0A7FF8D48FEF700FE9B
:101F1000E16A0AF023FF18B10D218E4808F09CFFFA
:101F20008D4B87481B68012B00F0E980FEF772FD9E
:101F300021697F4D0AF030FF78B18148FEF792FDAC
:101F4000E9680AF00BFF40B17B4B1B78052B00F0D2
:101F5000E7800821814808F07FFF0221804808F0CF
:101F60007BFF122007F0E8F8012800F0B98011206B
:101F700007F0E2F8012800F0BD807A4B1B78002BB7
:101F800040F0868002217648774C08F065FF774B59
:101F90006648196809F040FA644809F0EDF904212F
:101FA000734808F059FF0B2007F0C6F800230146DC
:101FB0000A225E4809F0F0F90C2007F0BDF8002372
:101FC00001460A22594809F0E7F9142007F0B4F84D
:101FD000002301460A22554809F0DEF9152007F0D2
:101FE000ABF80A2200230146504809F0D5F9062132
:101FF000604808F031FF2368DD074FF001014CBF56
:102000005D485E4808F028FF236898074FF00101FB
:102010004CBF5948594808F01FFF23685A074FF032
:1020200001014CBF5448554808F016FF23681B07B0
:102030004CBF51485148012108F00EFF042150487F
:1020400008F00AFF112007F077F8002301460A2262
:10205000364809F0A1F9102007F06EF80023014678
:102060000A22324809F098F9122007F065F8002397
:1020700001460A222D4809F08FF9132007F05CF879
:10208000002301460A222948BDE8704009F084B9BE
:1020900012213C4808F0E0FE74E707213A4808F0B6
:1020A000DBFE3A4B2148196809F0B6F955E70621DD
:1020B000374808F0D1FE50E70721364808F0CCFE3B
:1020C0004BE70721344808F0C7FE46E708213348AC
:1020D00008F0C2FE41E70B21314808F0BDFE3CE7A5
:1020E0000E21304808F0B8FE112007F025F801282D
:1020F0007FF443AF0A212C4808F0AEFE3DE7FEF71F
:1021000089FC216A0AF048FE00283FF422AF16211C
:10211000264808F0A1FE0A21254808F09DFE1CE78C
:102120000A21234808F098FE17E700BFEC87FF1F3D
:10213000FC92FF1FB41301007494FF1FC41301002D
:10214000A495FF1FD0130100E0130100F01301005C
:1021500004140100141401009892FF1F4814010098
:10216000C41601001495FF1FCC93FF1F5C94FF1F42
:10217000BC140100C4140100CC1401006C24010043
:10218000D0140100A8140100841401001895FF1F49
:10219000541401005C140100701401007814010053
:1021A000641401008C1401009C140100241401002B
:1021B0003C1401002DE9F04FAA4CE36F012B8DB0C8
:1021C00000F07681032B00F0CB80DFF8D882A64F99
:1021D000A64EA36FA648012B09BF3168316801F1F3
:1021E0000041316006F084FA3B68002B40F09E808D
:1021F0009F48DFF8B09206F051FA3B68C8F800003B
:102200000546002B44D1E36F012B53D00021284613
:102210000AF0C2FD002800F0F181284695490AF035
:10222000BBFD98B9944A954B12680B920B9A1A60B1
:10223000D4F8AC000AF0A0FB29460AF0F1FB002319
:10224000C8F8000033600DB0BDE8F08F8A4FDFF8AA
:102250002C923B680A930A98D9F80030DFF848A21C
:10226000C01A0AF085FB29460AF0DAFB84490AF015
:102270008BFC83490AF088FCDAF800100AF0C8FAEF
:102280003B680993099BCAF80000C9F80030CFE702
:1022900009F01CFF02250B4602460095794809F01B
:1022A000C3F80421784808F0D7FDE36FD9F800504F
:1022B000012BABD1754B1B68012B00F0E681022B83
:1022C000B6D1002128460AF067FD002800F05482AC
:1022D0002F46D4F890000AF04FFB014638460AF02A
:1022E0005BFD002800F0FE81DFF88CA1634FDAF877
:1022F0000030079307983B68DFF8AC91C01A0AF0EA
:1023000037FB29460AF08CFB5D490AF03DFC5C492D
:102310000AF03AFCD9F800100AF07AFADAF800303C
:102320000693069BC9F800003B6081E7504806F021
:10233000B5F909F0CBFE022502460B46009551483F
:1023400009F072F80321524808F086FDD4F8901085
:102350004C4809F061F803214D4808F07DFD47E73E
:102360004C4D4A4E2B68DFF83C81D3F884000F2196
:102370000123336006F04CF933683B4F012B3B6877
:1023800000F0BC80002B40F048812B68DFF81C91E6
:10239000D3F88400436B19698EB2C9F8006005F068
:1023A000B9FEB4F8862040F6E44303FB06F1B1FB26
:1023B000F0F0801A00B20AF0DFFA37492B4E82465D
:1023C000D4F888000AF02CFB014650460AF0DCFBEA
:1023D000D9F800303060632BDFF8D0A000F3118112
:1023E000002333603B68002B3FF4F3AE02212B48FF
:1023F00008F032FD2B68D9F80050D3F8840040F67D
:10240000E44303FB05F505F085FEB5FBF0F00AF0AB
:10241000AFFA0546B4F886000AF0AEFA014628463F
:102420000AF0F4F909F052FE022502460B46009527
:10243000144808F0F9FF2946184808F00DFD3068E7
:1024400009F044FE009502460B460E4808F0ECFFEA
:102450002946134808F000FD2946104808F0FCFC06
:10246000B7E600BFFC92FF1F3495FF1F9492FF1F39
:10247000D492FF1F0000FA4374B7FF1F0895FF1F97
:1024800000007A44EC87FF1F1C1501005487FF1FD2
:10249000181501000C95FF1F9175DD36C41601005B
:1024A00014150100B092FF1FBC92FF1FF492FF1F92
:1024B000DFF81483D8F80050002128460AF06CFC9D
:1024C000002800F09880D4F89000AE4E0AF054FA3C
:1024D000014628460AF042FCAB4D2A68002800F06D
:1024E00082800123D2F8840033600F2106F090F837
:1024F0003368A64F012B3B687FF444AF002B40F0BC
:10250000FF802B68DFF8C492D3F88400436B19690D
:102510001FFA81FBC9F800B005F0FCFDB4F8843067
:102520009B4E40F6E44A0AFB0BFBBBFBF0F0C01AE3
:1025300000B20AF021FA97498346D4F88C000AF0D9
:102540006FFA014658460AF01FFB2A68D9F8003096
:102550003060D2F884000AFB03FA05F0DBFDB4F822
:102560008430BAFBF0F00FFA80FAC3EB0A03002BB9
:10257000B4F8BA20B8BF5B429342BCBF00233360BB
:102580003B68002B3FF425AE0221834808F064FC31
:102590002B68D9F80050D3F8840040F6E44303FBDD
:1025A00005F505F0B7FDB4F88410B5FBF0F000B206
:1025B000411A7A4808F030FF0221774808F04CFCB5
:1025C000306809F083FD022502460B4600957348EA
:1025D00008F02AFF0321724808F03EFC29466E48A5
:1025E00008F03AFCF5E50223D2F8840033600E21AE
:1025F00006F00EF8C0E605F1004564E705F100407D
:102600000CE62B68D3F8840005F084FDDAF800307E
:1026100064389842FFF4E4AEE4E66048DFF8AC9139
:10262000DFF864A108F0A8FE0C215E4808F014FC55
:102630000C215D4808F010FC2A683B68D2F8840041
:10264000426B11698EB2C9F80060002B3FF4A7AE4F
:1026500005F060FD40F6E44100230A2201FB06F18B
:10266000B1FBF0F14D4808F097FE02214A4808F00E
:10267000F3FBB4F88610494808F0CEFEDAF80030D3
:10268000D9F80060D3F8840089E6002128460AF0D2
:1026900083FB002873D0284644490AF07DFB40B3F1
:1026A000DFF814A1424FDAF80030049304983B6835
:1026B000DFF81C91C01A0AF05BF929460AF0B0F95C
:1026C0003C490AF061FA3B490AF05EFAD9F8001079
:1026D0000AF09EF8DAF800300393039BC9F8000073
:1026E0003B60A5E5344A324B12680892089A1A609A
:1026F0009EE5314A2E4B12680592059A1A6097E5BD
:102700002648DFF8C890204E08F036FEE36F012B14
:102710004FF00B010CBF2948294808F09DFB0C2104
:10272000214808F099FB2A683B68D2F88400426B84
:1027300011691FFA81FBC9F800B0002B3FF4ECAE21
:1027400005F0E8FC40F6E44100230A2201FB0BF10E
:10275000B1FBF0F1114808F01FFE0121194808F003
:102760007BFBB4F884100D4808F056FE3368D9F8A6
:1027700000B0D3F88400CFE605F10047A9E505F1E4
:10278000004089E75487FF1F0C95FF1F3495FF1FFA
:102790009492FF1F9175DD36C4160100EC87FF1F70
:1027A0000015010004150100F01401000000FA43B7
:1027B0000895FF1F00007A4474B7FF1FD81401006A
:1027C000E4140100B0130100B092FF1FF492FF1F48
:1027D000BC92FF1F2DE9F04F994C236885B0002B68
:1027E0007BD0984DDFF86482974FDFF8A892D5F838
:1027F0008030944E012B00F08B80D7F800A0D6F8E3
:1028000058B0746D914E04FB0BF44FF47A7000FBDA
:1028100004F00AF0B1F88E49044650460AF000F977
:1028200021460AF0B1F98B490AF0FAF80AF0BEFA2B
:102830006328C8F800004BDD204685490AF0A4F95A
:10284000642338603360D9F80030002B3DD0EB6F43
:102850007C4C012B00F08A80032B00F0DF80022BE0
:1028600000F0E28002217C4808F0F6FA7B4B186801
:1028700009F02CFC022402460B460094784808F02C
:10288000D3FD2146774808F0E7FA2146724808F060
:10289000E3FAD8F80010724808F0BEFD062172482D
:1028A00008F0DAFA38686A490AF0BAF809F00EFC5A
:1028B000009402460B466A4808F0B6FD03216B48B7
:1028C00008F0CAFA664808F057FD05B0BDE8F08F79
:1028D0000028BCBF00233360B5E7654E594D33680F
:1028E0000293029A42F228339A424BD833680393F8
:1028F000039A42F210739A424BD8D5F88030DFF831
:102900004C81514FDFF88C914E4E012B7FF475AF07
:102910005848FEF75DF95849D6F868A0F46E0AF0F9
:102920007FF80AF069FA326F736FD5F858B0CAEBC6
:1029300002021B1B80B29A42CAEB0000C6BF03FB17
:1029400000000132584390FBF2F020446C6D00FB14
:102950000BF004FB00F000EB800040000AF00CF8E4
:102960003B490AF011F9824638604BE7434B1B683C
:10297000012B4FF00A010CBF4148424808F06CFAA5
:10298000E36F69E73B486A6C95F84010FEF794F8EE
:10299000ACE73848FEF71CF93749AF6EEE6E0AF027
:1029A0003FF80AF029FA2A6F6B6FD21B9B1B80B28B
:1029B0009A42A0EB07003CDD03FB0000531C90FB98
:1029C000F3F31E44A86D6B6DDFF88080DFF8C490D0
:1029D000C8F8006000FB06F003FB00F000EB80008D
:1029E000400009F0C9FF1A49174F0AF0CDF8D9F88D
:1029F0000030386001222260002B3FF4F8AE022143
:102A0000154808F029FA164808F0B6FC59211E4866
:102A100008F022FA124808F0AFFCE8E610211B4843
:102A200008F01AFAEB6F1AE70721194808F014FAB0
:102A300018E703FB00F393FBF2F31E44C2E700BF69
:102A40009092FF1FFC92FF1FBC92FF1F3887FF1F51
:102A5000E4388E3E0000C842C4160100B092FF1F49
:102A6000EC87FF1F14150100B4150100BC1501000F
:102A700074B7FF1FA495FF1F00007A445487FF1FFF
:102A8000801501008C150100241501009815010026
:102A9000AC1501004C87FF1F70B5112082B006F005
:102AA0004BFB012818D0122006F046FB012813D05A
:102AB00000210B2006F03AFB00210C2006F036FB2B
:102AC0000021152006F032FB2B492C4B012000225F
:102AD00008701A6002B070BD0121152006F026FBB7
:102AE000274A284D284B1268D5F8941001921B688C
:102AF000019A224C0B4493424FF00201216005D908
:102B000001210C2006F012FB02B070BD1F4B1E68A5
:102B1000002130460AF040F9D8B1D5F89C00194D93
:102B200009F02AFF31460AF019F90028E8D10121FD
:102B30000B2006F0FBFA95F8C030032525605BB149
:102B40000D4B02221A7000210C2006F0EFFA02B0A1
:102B500070BD06F10046E0E7122006F0EDFA01280C
:102B600008BF054B4FF0110008BF1D7006F0E4FAD6
:102B70000128E8D1E4E700BF7494FF1F3095FF1FE0
:102B800074B7FF1FFC92FF1F3895FF1FB092FF1F05
:102B9000F0B56D4E6D4D34682B689C4287B03AD0CD
:102BA00014F0010156D014F002014AD014F00401CF
:102BB0003ED0E3070FD52B68DF070CD4644F3A688B
:102BC000002A00F09E80634B1B680193019B934297
:102BD00000F289803468A0070DD52B6899070AD4C4
:102BE0005D4F3A68002A3ED05A4B1B680393039B03
:102BF00093425AD8346862070DD52B685B070BD413
:102C0000564F3A68002A3FD0524B1B680593059BEC
:102C1000934258D834680CB107B0F0BD2146162055
:102C200006F004F92146172006F000F907B0F0BDC0
:102C3000052006F0FBF82B68346803F0FB032B60DB
:102C4000B7E7172006F0F2F82B68346803F0FD03AD
:102C50002B60ABE7162006F0E9F82B68346803F028
:102C6000FE032B609FE73E4B1B68002B56D1FF21D4
:102C7000172006F0DBF8374B3A4A1968029102999F
:102C800012680A443A60B0E7354B1B68002B50D1FC
:102C9000FF21052006F0CAF82E4B324A196804912C
:102CA000049912680A443A60AFE72F4B1720D3F813
:102CB000981006F0BBF82B68346843F0020300223A
:102CC0002B603A6097E7284B0520D3F8981006F060
:102CD000ADF82B68346843F0040300222B603A609F
:102CE000002C99D19AE7204B1620D3F8981006F0C3
:102CF0009DF82B68346843F0010300222B603A6092
:102D000069E7FF21162006F091F8124B154A196861
:102D10000091009912680A443A6055E7134808F098
:102D20002BFB0C21124808F097F8104808F024FB00
:102D30009DE70E4808F020FB0C210E4808F08CF8A7
:102D40000A4808F019FBA3E73095FF1FCC93FF1F3B
:102D50004C94FF1F74B7FF1F5094FF1F5494FF1F24
:102D60004C87FF1F6C87FF1FFC92FF1FEC87FF1F24
:102D7000C0150100D01501002DE9F047534EDFF8D2
:102D800070813368DFF86C91D3F88400504D0F21C7
:102D900005F03EFC0023012222214E48C8F80030F5
:102DA000C9F8002008F058F8D8F80030132B20DCC0
:102DB00040F6E4473368B5F884A0D3F88400436B49
:102DC0001C6905F0A7F9A4B2012107FB04F4B4FBC8
:102DD000F0F441485444A5F8844008F03DF86420DC
:102DE00006F0E0F9D8F800300133132BC8F80030B2
:102DF000E0DDB5F88430394A3948A2FB03129B1A4A
:102E000002EB5303C3F30F131946A5F8843008F0FF
:102E100003FB1D21334808F01FF80221324808F057
:102E20001BF82F4808F0A8FA00231A460E21306834
:102E3000C8F8003005F0E8F8022322212548C9F837
:102E4000003008F009F8D8F80030132B20DC40F6E9
:102E5000E4473368B5F88690D3F88400436B1C6967
:102E600005F058F9A4B2012107FB04F4B4FBF0F417
:102E700019484C44A5F8864007F0EEFF642006F0A0
:102E800091F9D8F800300133132BC8F80030E0DD99
:102E9000B5F88630114A1248A2FB03129B1A02EBC6
:102EA0005303C3F30F131946A5F8863008F0B4FA9C
:102EB0001D210E4807F0D0FF02210B4807F0CCFF80
:102EC0000748BDE8F04708F057BA00BF0C95FF1F50
:102ED000FC92FF1FE015010024160100876118868F
:102EE000EC87FF1F04160100C4160100281601001C
:102EF000AC92FF1F5487FF1F904B2DE9F0411B68D8
:102F00008F4C40F2513108222160E271002B00F019
:102F1000E4808C4D286D09F02FFD296A064609F0E2
:102F20007FFD894909F07CFD09F066FF80B203123C
:102F300020726372854B864A1B681268A969A37266
:102F400015121B123046E3722273657309F068FD97
:102F50007D4909F065FD09F04FFF83B21A127849E7
:102F60007C48A373E27304F0A7FE7B4B7B4A1B688B
:102F700012887349A272DFB207EB870503EB830661
:102F80006D0046F3D71612121B1227722573667353
:102F90000825002640F255376E48E27263722760BA
:102FA000E571A673E67304F087FE40F256336C4871
:102FB0002360E571FDF77CFD6A4909F031FD09F0F8
:102FC0001BFF20726648FDF773FD664909F028FD76
:102FD00009F012FF644A6349C0F307231068637263
:102FE00009F0D2FD09F0E2FE40FA05F203465C4822
:102FF000E272A372FDF78CFD534909F011FD09F04F
:10300000D5FE20735648FDF783FD4F4909F008FDB2
:1030100009F0CCFE4A49A67340F307234D48637379
:10302000E67304F049FE022006F0BCF84F4A504B0C
:1030300017785678D178187892F802E02772DA7803
:103040005F786672E1729E78207340F25A333C4991
:103050004048E57184F80AE06773A673E273236061
:1030600004F02AFE434B364918785E789A7820722D
:10307000187993F803E05F796672A2729E79DA7923
:10308000207340F25E33334884F80BE0E273236030
:10309000E5716773A67304F00FFE022006F082F854
:1030A000354BE5711E785A7893F802E0D8781F798D
:1030B0009D79267262725E79DA79E0724FF45C7300
:1030C00084F80AE027736673A573E27323601C49D2
:1030D0002048BDE8F04104F0EFBD284B28481B68AC
:1030E000184D80FB0320DB17C3EB601009F044FC94
:1030F0006969804609F094FC0746286D09F03CFC9C
:103100003946064609F08CFC0F4909F089FC09F0A4
:1031100073FE39462072404609F082FC03460146A0
:103120006B61304609F07CFC074909F079FC09F035
:1031300063FEC0F307206072FCE600BF9892FF1F99
:103140002095FF1FFC92FF1F000020417C92FF1F73
:103150000495FF1FCCB5FF1F3887FF1F3C87FF1F5B
:10316000A495FF1F0000C842B092FF1FF892FF1FF6
:10317000D093FF1F2C87FF1F5887FF1F6887FF1FF3
:103180001F85EB5170B50A48FDF74AFD094B0A4807
:103190000325022400224FF40076DD711C725A725E
:1031A0009A721E601946BDE8704004F085BD00BFEC
:1031B000A495FF1F2095FF1FCCB5FF1FF8B5194C34
:1031C000002204F10805234603F8012FAB42FBD18E
:1031D000154E164808234FF440723146F3713260A1
:1031E00004F06AFD002304F8013FAC424FF00007F1
:1031F000F9D14FF4447205230B490C483260F37146
:103200004FF4007404F058FD022303227772B77262
:103210003460F271337204490448BDE8F84004F0A8
:103220004BBD00BF2795FF1F2095FF1FCCB5FF1F8B
:1032300038B5164C164A2368101D12F8011F90422B
:1032400041EA0323F9D12360124C03F100432360C8
:10325000114BDB6F022B11D0104B1B68012B00D0E0
:1032600038BD0F4808F088F821680D4808F0D4F8F8
:1032700003210C48BDE8384007F0EEBD20680A4D38
:1032800009F07AFB2860FEF795FFE5E75894FF1FE9
:10329000C792FF1FFC94FF1FFC92FF1F4894FF1F63
:1032A000EC87FF1F541601009492FF1F30B53C4C71
:1032B0003C4883B0214604F0F7FB236840F2C23259
:1032C000934252D0A3F58C621F2A48D9A3F5FC6320
:1032D0000F2B3FD9344B1B68012B01D003B030BDFD
:1032E000324B1B68012BF9D1314B32481B680193DB
:1032F0000A220023019908F04FF82268284B002A7F
:10330000DB7945DB2C492D480AF052FB2B480AF0AB
:1033100077FB0146294807F09FFD2568204B15F0F3
:10332000804526D1DB798BB1631925491A7A234868
:103330000AF03EFB21480AF063FB01461F4807F0F4
:103340008BFD0135E379EDB2AB42EDD8194808F0B9
:1033500013F8C3E712491B48FDF7F4FABAE710491E
:103360001848FDF7EFFA2368B0E7FFF761FF23681D
:10337000A8E7154D114C0FCD0FC495E8030044F894
:10338000040B204620F81419152107F065FDDDE730
:103390000E490A4822F060420AF00AFBB6E700BF75
:1033A000C092FF1FCCB5FF1F4C87FF1F4894FF1F23
:1033B00074B7FF1FEC87FF1F801601007894FF1F72
:1033C000AC160100A495FF1F9416010058160100C9
:1033D0009D4B1B78052B00F0C8802DE9F04F9B4CCE
:1033E0009B4E9C4D626EE36D9B48326083B02B60B8
:1033F000FDF7ECFBE16A09F0B1FC08B100232B609A
:103400009548FDF7E1FBA16A09F0C6FC10B1002365
:1034100033602B609048FDF725FBE16809F0BCFCA8
:1034200008B100232B608C48FDF71CFBE16809F014
:10343000B3FC08B100232B608748844FFDF7EAFAFC
:10344000216909F08BFC002800F09580002333608F
:103450002B68804F002B79DD7F48DFF8F081FDF786
:10346000B3FB216B09F07AFC002840F0FD807B4B18
:103470001B68012B00F02C81DFF8E8917648784F2B
:10348000DFF8C881FDF7EEFAD9F80030824687FBF5
:103490000320DB17C3EB601009F06EFA616909F0D5
:1034A000BFFAE169606109F0B1F90146504609F0DF
:1034B00073FC00284AD0286809F05EFA0446664882
:1034C000FDF7D0FA8246D9F8000087FB0037C01715
:1034D000C0EB671009F050FAD8F81410074609F04D
:1034E0009FFAD8F81C10814609F090F949468346A6
:1034F000384609F095FA8146C8F81490D8F860006B
:1035000009F03AFA0746D8F85C0009F035FA39466E
:1035100009F07CF959468046504609F077F9014692
:10352000404609F07DFA59468046484609F06EF952
:103530000146404609F028FB394609F069F9014681
:10354000204609F063F909F031FC28603368404AED
:10355000002BAFBF2B682B6800211160002B01DA14
:1035600000232B6003B0BDE8F08F3949394A0023AE
:103570000B60136070473848FDF74CFAB96909F0E1
:10358000EDFB00287FF462AF3368DFF8C490002BB6
:103590007FF75EAF3048FDF719FB796B09F0FCFB54
:1035A000002840F0E5802C48284FFDF733FA2169C8
:1035B00009F0F2FB002800F0D1802748DFF88C806A
:1035C000FDF728FAD4F8BC100746A06909F020F9E5
:1035D0000146384609F0C2FB00283FF439AF306895
:1035E00009F0CAF982461C48FDF714FA8346D8F858
:1035F0006400D8F8187009F0BFF93946814658467A
:1036000009F004F949468346002009F0FFF8014615
:10361000584609F005FAD8F8BC108346384609F038
:10362000F7F8394609F0F2F80146584609F0ACFAC5
:10363000494609F0EDF80146504609F0E7F809F06F
:10364000B5FB306004E700BF7494FF1FFC92FF1FBE
:103650000495FF1F7C92FF1FA495FF1F9892FF1FE8
:103660001F85EB516887FF1F386809F085F983468D
:103670005648FDF7A9FA0190D8F85C00D8F82CA0BC
:1036800009F07AF9019B81465146184609F0BEF8C7
:1036900049460190002009F0B9F8019B01461846FF
:1036A00009F0BEF951460190D8F8300009F0AEF8A3
:1036B000019B0146184609F067FA494609F0A8F847
:1036C0000146584609F0A2F809F070FB3860CEE6D2
:1036D0003E483F4FFDF7C6F9E1698046206A09F090
:1036E00095F80146404609F057FB00283FF42EAFFD
:1036F000286809F041F982463448FDF7B3F9D7F854
:103700002080F9698346404609F080F88146386E8A
:1037100009F032F90446F86D09F02EF9214609F056
:1037200075F849460746584609F070F8014638468C
:1037300009F076F949460746404609F067F8014620
:10374000384609F021FA214609F062F80146504650
:1037500009F05CF809F02AFB2860F7E61B48FDF742
:1037600059F9B96909F018FB00287FF426AF6FE614
:10377000D9F8000009F000F982461448FDF726FA4E
:103780000190786ED7F8348009F0F6F8019B8346F3
:103790004146184609F03AF80146584609F040F902
:1037A00041468346B86A09F031F80146584609F0A7
:1037B000EBF9002109F02CF80146504609F026F8F3
:1037C00009F0F4FAC9F80000EDE600BFA495FF1F68
:1037D000FC92FF1F08B5274807F0CEFD07212648B9
:1037E00007F03AFB112005F0A7FC0621F8B12348A9
:1037F00007F032FB122005F09FFC062100B32048A1
:1038000007F02AFB122005F097FC062108B31D489B
:1038100007F022FB132005F08FFC062110BB1A488D
:1038200007F01AFB1348BDE8084007F0A5BD17488C
:1038300007F012FB122005F07FFC06210028DED1E4
:10384000134807F009FB122005F076FC062100283A
:10385000DDD1104807F000FB132005F06DFC0621B8
:103860000028DCD00C4807F0F7FA0248BDE8084011
:1038700007F082BDEC87FF1FB8160100C0160100DB
:10388000D0160100E0160100F8160100C81601006C
:10389000D8160100E8160100F016010010B5254CFD
:1038A0002368042B27DC01210B2005F03FFC0121BC
:1038B0000C2005F03BFC0121142005F037FC012110
:1038C000152005F033FCFF21162005F0AFFAFF218B
:1038D000172005F0ABFAFF21052005F0A7FAFF211C
:1038E000062005F0A3FA236801330A2B2360C4BF26
:1038F0000023236010BD00210B2005F017FC0021E0
:103900000C2005F013FC0021142005F00FFC002111
:10391000152005F00BFC0021162005F087FA002188
:10392000172005F083FA0021052005F07FFA002119
:10393000D6E700BF1C95FF1F08B5FF2005F0BAFEB3
:10394000FF2005F0B7FEFF20BDE8084005F0B2BE3D
:1039500070B582B005F088FF022801DC02B070BDAE
:1039600005F092FFC0B22328F8D1254C05F08CFF5A
:1039700023680093009EC5B207E023680193019B72
:103980009B1B642BEAD805F00DFC05F06DFFA842E7
:103990004FF00100F1DB05F077FFC0B2012813D032
:1039A0000228DBD105F070FF164C2368F0B9013B0B
:1039B00023600A21144805F0D5FE2168134807F05A
:1039C0002BFDFFF7B9FFC9E705F05EFF104CE36D73
:1039D00090B90A3BE3650A210E4805F0C3FEE16D8C
:1039E0000A4807F019FDFFF7A7FFB7E70133642B7B
:1039F000C8BF64232360DCE70A33E365EBE700BF5D
:103A000074B7FF1F6887FF1F0C170100C087FF1FD7
:103A1000FC92FF1F001701002DE9F041122182B036
:103A20007648774C774E05F09DFE774B0A22197841
:103A30002046002307F0B0FCFFF77EFF0821734803
:103A400005F090FE724B2046196807F0E5FCFFF781
:103A500073FF0C216F4805F085FE6F4B6F491868A6
:103A600009F092F808F032FB002502460B4600955B
:103A7000204607F0D9FCFFF75FFF0921684805F0F1
:103A800071FE3046FDF744F808F020FB0095024631
:103A90000B46204607F0C8FCFFF74EFF0C2161489B
:103AA00005F060FE3046FDF791F808F00FFB009539
:103AB00002460B46204607F0B7FCFFF73DFF0D21FD
:103AC000594805F04FFE3046FDF77EF808F0FEFA43
:103AD000009502460B46204607F0A6FCFFF72CFF98
:103AE0000921524805F03EFE3046FCF7E1FF5049FF
:103AF00008F096FF08F0EAFA009502460B462046C9
:103B000007F092FCFFF718FF0C214A4805F02AFE47
:103B10003046FCF77FFF484908F082FF08F0D6FAEC
:103B2000009502460B46204607F07EFCFFF704FF97
:103B30000D21424805F016FE3046FCF793FF3E4942
:103B400008F06EFF08F0C2FA009502460B462046C8
:103B500007F06AFCFFF7F0FE0E21394805F002FE7F
:103B60003046FCF77FFF80463046FCF753FF324972
:103B70000746404608F054FF2F490646384608F0ED
:103B80004FFF0146304608F041FE08F09FFA0095CD
:103B900002460B46204607F047FCFFF7CDFE0C21FE
:103BA000284805F0DFFD284B2046197807F034FC43
:103BB000FFF7C2FE0921254805F0D4FD244B20461D
:103BC000196807F029FCFFF7B7FE0A21214805F024
:103BD000C9FD214B2046D96D07F01EFCFFF7ACFE56
:103BE0000A211E4805F0BEFD1D4B2046196807F04E
:103BF00013FC02B0BDE8F041FFF79EBE18170100AC
:103C0000C087FF1FA495FF1F7494FF1F2C1701008E
:103C10003887FF1F38170100B092FF1F0000C8420D
:103C200048170100541701006417010074170100C0
:103C3000000020418017010000007A449017010025
:103C4000A0170100B01701001495FF1FC017010055
:103C50002487FF1F00170100FC92FF1F0C170100B3
:103C60006887FF1F2DE9F04F374CD4F8B030042B94
:103C700083B077D0032B00F0C780012B00F00F81B9
:103C8000022B02D003B0BDE8F08F304D30482B72CC
:103C900040F20E32012329462A60EB7104F00CF841
:103CA0002C4B294F1B685B00FF2BC8BFFF236B7297
:103CB000294B4FF4417028601B68284840222A7223
:103CC00080FB0320DB17C3EB60100421E97108F0CF
:103CD00053FE6169804608F0A3FE06466661206DCA
:103CE00008F04AFE3146044608F09AFE1C4909F0E5
:103CF00053F8002800F091813146404608F090FECC
:103D000001460646204608F08BFE014608F080FD7D
:103D100009F072F83146C0F307234046AB7208F051
:103D20007FFE034601467B61204608F079FE01468E
:103D300008F06EFD09F060F8E8720449044803B029
:103D4000BDE8F04F03F0B8BFFC92FF1F2095FF1FA6
:103D5000CCB5FF1F7C92FF1F6887FF1F1F85EB51AB
:103D600000004843B14BB24D1B68B248AA79B24932
:103D7000296080FB0310DB170821C3EB601042F0C1
:103D80000103AB71E97108F0F7FD6169804608F045
:103D900047FE0646206D08F0EFFD3146074608F065
:103DA0003FFEA64908F03CFE09F026F83146C0F374
:103DB000072340462B7208F033FE03466361014639
:103DC000384608F02DFE9D4908F02AFE09F014F847
:103DD0009B4B9C4A6872002612681B689A4893FBAA
:103DE000F2F329461A12EB72AA722E736E73AE7337
:103DF000EE7303F061FFAA79D4F8B03066F30002E5
:103E0000032BAA717FF439AF884A8A481268884D1B
:103E100080FB0210D2170121C2EB601040F2FF2795
:103E2000E82207266A72AB722F60EE71297208F0E1
:103E3000A3FD6169804608F0F3FD0646206D08F099
:103E40009BFD3146074608F0EBFD7C4908F0E8FD94
:103E500008F0D2FF3146E872404608F0E1FD034623
:103E600063610146384608F0DBFD744908F0D8FD6F
:103E700008F0C2FF724B734A1B68126893FBF2F39F
:103E8000C0F307261A1229466F486B732E73AA7364
:103E900003F012FFD4F8B030012B7FF4F1AE6B4B7E
:103EA000634D1B682B60072280231020EA712B7260
:103EB00005F042F9002840F0B780654B1B68DFF839
:103EC0006C815C485E4F5F4EDFF86491316803EBB4
:103ED00083035B001A126A72D8F80020AB723B6849
:103EE00093FBF1F380FB0210D217C2EB60101912A2
:103EF000AB73697308F040FD6169009008F090FDB4
:103F00008346206D08F038FD524B0190D3F800A095
:103F1000594608F085FD514608F078FC474908F0FD
:103F20007FFD08F069FF5946C0F3072E009885F819
:103F30000BE008F075FD019A0346636101461046E7
:103F400008F06EFD514608F061FC3C4908F068FD40
:103F500008F052FF494628733B4803F0ADFE0220AB
:103F600005F020F93C4B1B682B60072280231020B2
:103F7000EA712B7205F0E0F8002853D1344B1B682E
:103F800003EB83035B001A1289F80A3089F80920D1
:103F9000D8F80030274AD81782FB0323C0EB631000
:103FA00008F0EAFC6169834608F03AFD8146206D1D
:103FB00008F0E2FC294BD3F800804946824608F01D
:103FC0002FFD414608F022FC1C4908F029FD08F0AD
:103FD00013FF4946C0F307235846EB7208F020FD53
:103FE000034663610146504608F01AFD414608F059
:103FF0000DFC124908F014FD08F0FEFE3B68287322
:1040000032680B4993FBF2F30F48AB731B126B73CF
:1040100003F052FED4F8B03032E601229023AA72A7
:10402000EB728AE60E4BAAE70D4B47E76887FF1F46
:104030002095FF1F1F85EB51F4E506180000204175
:104040007C92FF1F5087FF1FCCB5FF1F6487FF1FA7
:104050004487FF1FD493FF1F3487FF1FB892FF1FB1
:104060004887FF1F38B5164D164A1748294604F0F1
:10407000ABFB18B1154B1B68012B00D038BD1221CA
:104080001348144C06F0E8FE296813480023102258
:1040900007F082F9104807F06FF904F1080514F8E9
:1040A000011F0D4800230A2207F076F9092006F0C7
:1040B00057FFA542F3D10848BDE8384007F05CB986
:1040C000A092FF1FA492FF1F4095FF1F3C95FF1F6A
:1040D000CC170100A392FF1FEC87FF1FFA2810B531
:1040E00004461BD0B0F5FA7F0FD11021134804F01D
:1040F00021FCC8B10F21124806F0AEFE114807F0AE
:104100003BF9114BA3F8C44010BD0F210F4806F036
:10411000A3FE0C48BDE8104007F02EB90F21074858
:1041200004F008FC0028E5D11121094806F094FEAE
:104130000448BDE8104007F01FB900BF4095FF1FBD
:10414000E0170100EC87FF1FFC92FF1F041801001D
:10415000F01701002DE9F04FB94B1B78032B85B008
:104160000DD0B84C2768022F00F0EF800137022FE6
:10417000276001DD0023236005B0BDE8F08FB24D5C
:10418000B04CD5F8B000042800F00381032800F0FB
:10419000F880012800F0768102285ED12768DFF8D8
:1041A000A482002F00F05482012FDCD1A74EA84B2F
:1041B000A64A1B68A748A44F5B00FF2BC8BFFF237C
:1041C0005370A54B1B68402180FB0320DB17C3EB1A
:1041D0006010317008F0D0FB6969824608F020FC5D
:1041E0008046C5F81480286D08F0C6FB414681461C
:1041F00008F016FC994908F0CFFD002800F0A782CE
:104200004146504608F00CFC01468046484608F0FE
:1042100007FC014608F0FCFA08F0EEFDC0F30723A6
:104220004146B370504608F0FBFB034601467B61F4
:10423000484608F0F5FB014608F0EAFA08F0DCFD14
:10424000F070042200238DE844004FF441711A46B7
:10425000834804F085FAD5F8B000062840F097802E
:104260007D4B7C481B687F4E80FB0320DB170022C0
:104270000821C3EB60105027DC2332727372376061
:10428000F17108F079FB6969814608F0C9FB0746BE
:10429000286D08F071FB3946804608F0C1FB6F4974
:1042A00008F07AFD002840F05D810722D023B27229
:1042B000F372002339463373484608F0B1FB644B70
:1042C000686107461868674DDFF87CB108F054FB59
:1042D00039468246404608F0A3FB514608F0A0FB51
:1042E000614908F03BFD002800F05D8139464846F1
:1042F00008F096FB01460746404608F091FB514600
:1043000008F08EFB594908F03FFC08F075FDC0F33A
:10431000072339466B73484608F082FB0346CBF807
:1043200014300146404608F07BFB514608F078FB0C
:104330004E4908F029FC08F05FFDA87301234949A4
:104340004B48F37303F0B8FC21E03F4B93F8CC00EB
:1043500000283FF40FAF3D4DA0232B7008F00CFB5D
:10436000444908F05DFB08F047FD002368701A46D9
:10437000009701954FF4EA71394804F0F1F9276884
:10438000F4E6D4F800A0BAF1000F00F0108127681D
:10439000E9E6D4F800A0BAF1000FF8D1DFF8B89040
:1043A0002C48D9F80030294E80FB0320DB17C3EBE3
:1043B000601008F0E1FA6969814608F031FB0746B0
:1043C000286D08F0D9FA3946804608F029FB2A49B9
:1043D00008F026FB08F010FDC0F3072339463370C0
:1043E000484608F01DFB03466B610146404608F055
:1043F00017FB2149DFF85880204F08F011FB08F027
:10440000FBFC082170700196D8F800203F6892FBF1
:10441000F7F747FA01FE009153460122184986F842
:1044200004A086F805A086F806A086F807A00C4828
:10443000F77086F802E004F093F9D5F8B000A5E62D
:104440007494FF1FD893FF1FFC92FF1FA492FF1FBD
:104450007C92FF1F1F85EB516887FF1F00004843B8
:104460004095FF1F2095FF1F00404E450000704300
:10447000CCB5FF1F5C8FA23F000020415087FF1F7B
:10448000F4E506182368002B00F0F780012B7FF479
:104490007EAFDFF8F892B14EDFF8F482B04FDFF86C
:1044A000BCA280231020337004F046FE002840F0A8
:1044B0005381AC4B1B6803EB83035B001A128AF831
:1044C00002308AF80120D9F80030A74AD81782FBB9
:1044D0000323C0EB631008F04FFA6969029008F0FB
:1044E0009FFA8246286D08F047FAA04BD3F8009057
:1044F0005146834608F094FA494608F087F99C49EA
:1045000008F08EFA08F078FC029AC0F307235146AF
:104510001046F37008F084FA03466B610146584672
:1045200008F07EFA494608F071F9914908F078FAE6
:1045300008F062FC8F4BD8F80020307119683F6892
:1045400092FBF7F7072000234FEA272E00900196F1
:104550001A468948B77186F805E004F001F9D5F8E4
:10456000B00019E63946484608F05AFA07460146AF
:10457000404608F055FA7E4908F052FA08F03CFC33
:10458000C0F30723B3723946484608F049FA01469A
:104590000746404608F044FA754908F041FA08F029
:1045A0002BFCF07285E696236873AB73C6E6DFF8E2
:1045B000DC916A4ED9F800306B4AB07082FB032060
:1045C000DB170122C3EB6010E8233270737008F030
:1045D000D3F96969DFF8B881834608F021FA074604
:1045E000286D08F0C9F93946814608F019FA604982
:1045F00008F016FA08F000FC3946F070584608F04A
:104600000FFA03466B610146484608F009FA58491B
:10461000534F08F005FA08F0EFFB0196D8F8003088
:104620003F6893FBF7F7C0F3072C07224FEA272ECA
:1046300000925346524640F2FF214F4886F804C08C
:10464000777186F806E004F08BF8D5F8B000A0E5A5
:10465000424E0196042300933A463B46307040F2A6
:104660000E3145487770B770F77004F079F8D8F8D4
:104670000030012B7FF4EFAD99E5384E80231020F8
:10468000337004F059FD00285FD1364B1B68DFF80A
:10469000FC903548DFF8F880314F03EB83035B0073
:1046A0001A127270D9F800203968B370D8F8003047
:1046B00093FBF1F380FB0210D2171912C2EB6010CA
:1046C000B371717108F058F96969029008F0A8F99E
:1046D0008346286D08F050F9284B0390D3F800A0CA
:1046E000594608F09DF9514608F090F8204908F025
:1046F00097F908F081FBC0F3072E86F803E05946CE
:10470000029808F08DF9039A03466B610146104642
:1047100008F086F9514608F079F8154908F080F953
:1047200008F06AFB164B3071196813480196002394
:10473000072200921A4604F013F82368012B3FF475
:10474000AEAE104BD3F8B00026E50F4B9EE701222A
:104750009023B270F37074E50B4BABE6A492FF1F8D
:104760005087FF1F4487FF1F1F85EB51B892FF1F23
:10477000000020413487FF1F4095FF1FD493FF1F87
:104780006487FF1FFC92FF1F4887FF1F6887FF1F7A
:104790007C92FF1F10B504F09BF90B48FCF776F8EC
:1047A0000A48FDF7C1F80A4A0A48126800230121A5
:1047B00003F056FF942006F07DFF044603F0F6FB5D
:1047C000054B1C6010BD00BFA495FF1FE893FF1FA1
:1047D0004087FF1FD492FF1F0C95FF1FF0B54FF4C9
:1047E0007A6085B004F0DEFC0021112004F0B2FCF8
:1047F0000021102004F0AEFC0021122004F0AAFCDD
:104800000021132004F0A6FC01210B2004F0A2FCDF
:1048100001210C2004F09EFC0121142004F09AFCDC
:104820000121152004F096FC0121162004F092FCD1
:104830000121172004F08EFC0121052004F08AFCE0
:104840008E4C8F4D0121062004F084FC01210D20A7
:1048500004F080FC208808F08BF80146162004F054
:10486000E3FB208808F084F80146172004F0DCFB05
:10487000208808F07DF80146052004F0D5FB20884B
:1048800008F076F800240146062004F0CDFB0094E1
:1048900023467C4A7C497D4803F016F8E6B232464E
:1048A00077497A4802F0BEFF2B79754977486FF354
:1048B0000003013432462B7102F0AAFF082CEDD11F
:1048C0000924E6B232466E49704802F0ABFF2B79FC
:1048D0006B496E4843F00103013432462B7102F0FC
:1048E00097FF0D2CEDD16A4C23681021D3F884007A
:1048F00003F0BCFC23681021D3F8840003F04AFDC8
:1049000023680221D3F8840003F006FC2368022107
:10491000D3F8840003F08EFD23680F21D3F88400C0
:1049200003F076FE0C215B4806F096FA5A4806F032
:1049300023FD1621594806F08FFA574806F01CFD52
:104940004FF4E131564806F0B7FB534806F014FD2A
:104950001721544806F080FA4F4806F00DFD524BDF
:104960001B789A0600F1BC804F4B1B781B0700F1A7
:10497000C3804D4B1B785F0700F1CA804A4B1B7800
:104980009E0700F1D180494B1B781D0600F1D880AD
:10499000464B1B785C0600F1DF80444B1B78980681
:1049A00000F1E680414B1B78590700F1ED803F4B49
:1049B0001B781A0700F1F4803C4B1B789B0700F131
:1049C000FB80354806F0D8FC72B6394A4CF22050CC
:1049D0004DF62811108020231180013BFDD1354C6C
:1049E0003548364900234FF48055258003800B80DD
:1049F00032F80E3C9BB243F0D30322F80E3C62B671
:104A000018212F482F4D06F027FA234806F0B4FC52
:104A100005F1D0062F462C46601B04F0A1F804F8DF
:104A2000010BB442F8D13B78122B01D0FCF7B0FF58
:104A3000D7F8C810244806F0EFFB0420FCF750FE1E
:104A4000224B002201210D201A6004F06FFB796DCA
:104A50001F48FCF72FF87A6C97F840101C48FCF7B9
:104A60002BF81C4B1C491A68039203981B6802938D
:104A7000029A1A4B08601A6005B0F0BD2887FF1F24
:104A8000DC93FF1F68B7FF1F48E80100CCB5FF1F8C
:104A90000C95FF1F14180100EC87FF1F241801005C
:104AA000C087FF1F3C18010001F0074000F00740DD
:104AB0000E20054004200540062005401620054034
:104AC00040190100FC92FF1FD487FF1F8892FF1F2F
:104AD000A495FF1F74B7FF1F3895FF1FE493FF1FB6
:104AE0002121394806F0B8F9384806F045FC384B22
:104AF0001B781B077FF53DAF0C21364806F0ACF95B
:104B0000324806F039FC324B1B785F077FF536AF31
:104B10000E21314806F0A0F92C4806F02DFC2C4B54
:104B20001B789E077FF52FAF17212C4806F094F9CC
:104B3000264806F021FC2A4B1B781D067FF528AF7E
:104B40000E21284806F088F9204806F015FC244B71
:104B50001B785C067FF521AF1221234806F07CF913
:104B60001A4806F009FC1E4B1B7898067FF51AAF11
:104B700013211E4806F070F9144806F0FDFB184B8F
:104B80001B7859077FF513AF1C21194806F064F90B
:104B90000E4806F0F1FB124B1B781A077FF50CAF9D
:104BA0001921144806F058F9084806F0E5FB0C4BAB
:104BB0001B789B077FF505AF18210F4806F04CF9CD
:104BC000024806F0D9FBFCE654180100EC87FF1FF1
:104BD00001F00740781801008818010098180100BA
:104BE00000F00740B0180100C0180100D4180100FF
:104BF000E8180100081901002419010010B5014648
:104C0000044600230A22184806F0C6FB164806F0A0
:104C1000B3FBB4F5964F25D016D9B4F5164F11D085
:104C2000B4F5E13F15D10421104803F0A5FE104B67
:104C3000C3F8C84005F0D0F821460E48BDE8104042
:104C400006F0EABA0221EFE7B4F5165F01D10021C0
:104C5000EAE70F21084806F0FFF80348BDE81040D6
:104C600006F08ABB0121DFE7EC87FF1F4095FF1F9D
:104C7000FC92FF1FD487FF1F5C190100F0B5954C13
:104C8000954D83B006F082F823682860042B00F06D
:104C90009E82022B29D0092B70D0082B40F09680E1
:104CA000322800F0EC83712800F09D80312840F01C
:104CB0009E8006F0A7F8002840F311878748884EA9
:104CC00006F0ECFCC0B286F84000022894BF014612
:104CD0000021726C834888BF86F84010FBF7ECFE19
:104CE000012369202360286018E3A0F13102422AE1
:104CF0007DD8DFE812F07F078B079907AB07F50730
:104D000004087C0011087C007C007C007C007C0096
:104D10007C007C007C007C007C007C007C007C00B3
:104D20007C007C007C007C007C007C007C007C00A3
:104D30007C007C007C007C007C007C007C007C0093
:104D40007C007C007C007C007C007C007C007C0083
:104D50007C007C007C007C007C0079077C007C006F
:104D60007C007C007C007C007C007C007C007C0063
:104D70007C007C007C0078007C001E08332801F059
:104D80004C8410DC312801F07A8432282FD10123A1
:104D9000236006F037F8002815DD504806F07EFC49
:104DA000FFF79CF90FE034281BD10123236006F0A4
:104DB00029F8002807DD494806F070FC642303FB4E
:104DC00000F0FFF71BFF782023682860072B40F0D6
:104DD000AB80332801F02A8440F38682342801F026
:104DE0005C84712803D1002373202360286073281A
:104DF00008BF002B0CBF01200020002867D03748D7
:104E000006F0BAFA0421384806F026F8334806F0CE
:104E1000B3FA1021354806F01FF8304806F0ACFA16
:104E20001321334806F018F8324B2C48196806F065
:104E3000F3FA2A4806F0A0FA14212F4806F00CF8DD
:104E4000264806F099FA1E212C4806F005F823485A
:104E500006F092FA15212A4805F0FEFF1F4806F0D9
:104E60008BFA1E21274805F0F7FF1C4806F084FA4C
:104E70002021254805F0F0FF184806F07DFA192199
:104E8000224805F0E9FF154806F076FA1621204879
:104E900005F0E2FF114806F06FFA12211D4805F0F7
:104EA000DBFF0E4806F068FA0F211B4805F0D4FF1F
:104EB0000A4806F061FA0D21184805F0CDFF0748B1
:104EC00006F05AFA164A002101231160236003B04C
:104ED000F0BD00BF6094FF1F7892FF1FEC87FF1F9B
:104EE000FC92FF1FA495FF1F8C2201009422010059
:104EF000A82201002487FF1FBC220100D422010048
:104F0000F42201000C2301002C2301005023010096
:104F10006C2301008423010098230100A8230100D1
:104F20004C87FF1F23682868062B40F08D80A0F176
:104F30003102402A3FF65BAF01A151F822F000BFD9
:104F4000855B0000F15A00001B5B0000415B000024
:104F5000675B0000B15B0000D55B0000EF4D000017
:104F6000EF4D0000EF4D0000EF4D0000EF4D000051
:104F7000EF4D0000EF4D0000EF4D0000EF4D000041
:104F8000EF4D0000EF4D0000EF4D0000EF4D000031
:104F9000EF4D0000EF4D0000EF4D0000EF4D000021
:104FA000EF4D0000EF4D0000EF4D0000EF4D000011
:104FB000EF4D0000EF4D0000EF4D0000EF4D000001
:104FC000EF4D0000EF4D0000EF4D0000EF4D0000F1
:104FD000EF4D0000EF4D0000EF4D0000EF4D0000E1
:104FE000EF4D0000EF4D0000EF4D0000EF4D0000D1
:104FF000EF4D0000EF4D0000EF4D0000EF4D0000C1
:10500000EF4D0000EF4D0000EF4D0000EF4D0000B0
:10501000EF4D0000EF4D0000EF4D0000EF4D0000A0
:10502000EF4D0000EF4D0000EF4D0000EF4D000090
:10503000EF4D0000EF4D0000EF4D0000EF4D000080
:10504000E74D000023682868052B15D1332801F0AF
:105050004C8340F39181352801F03183C1F25683AE
:1050600071287FF4C4AECF4A0023732013602360FD
:105070002860BCE623682868032B40F0A480A0F1D8
:105080003002422A3FF6B3AE01A151F822F000BF30
:105090009D51000097640000BF640000036400009D
:1050A00025640000476400006F6400002163000075
:1050B0003F63000063630000EF4D0000EF4D000010
:1050C000EF4D0000EF4D0000EF4D0000EF4D0000F0
:1050D000EF4D0000EF4D0000EF4D0000EF4D0000E0
:1050E000EF4D0000EF4D0000EF4D0000EF4D0000D0
:1050F000EF4D0000EF4D0000EF4D0000EF4D0000C0
:10510000EF4D0000EF4D0000EF4D0000EF4D0000AF
:10511000EF4D0000EF4D0000EF4D0000EF4D00009F
:10512000EF4D0000EF4D0000EF4D0000EF4D00008F
:10513000EF4D0000EF4D0000EF4D0000EF4D00007F
:10514000EF4D0000EF4D0000EF4D0000EF4D00006F
:10515000EF4D00008B630000475E0000E563000038
:10516000A9630000C76300009F620000FD5D0000AE
:10517000215E0000EF4D0000EF4D0000EF4D0000FC
:10518000EF4D0000EF4D0000EF4D0000EF4D00002F
:10519000EF4D000015630000F562000005F032FEDF
:1051A000002841F333828048804E06F077FA0127C9
:1051B0000346014662227E48736527602A60FBF73A
:1051C00079FC23682868012B7FF411AEA6E0A0F1DA
:1051D0003002412A3FF60BAE01A151F822F000BF88
:1051E000E15D0000F95D0000435D00005B5D0000D3
:1051F000815D0000C55D0000895D00009B5D0000D1
:105200009F5D0000A35D0000EF4D0000EF4D00002A
:10521000EF4D0000EF4D0000EF4D0000EF4D00009E
:10522000EF4D0000EF4D0000EF4D0000EF4D00008E
:10523000EF4D0000EF4D0000EF4D0000EF4D00007E
:10524000EF4D0000EF4D0000EF4D0000EF4D00006E
:10525000EF4D0000EF4D0000EF4D0000EF4D00005E
:10526000EF4D0000EF4D0000EF4D0000EF4D00004E
:10527000EF4D0000EF4D0000EF4D0000EF4D00003E
:10528000EF4D0000EF4D0000EF4D0000EF4D00002E
:10529000EF4D0000EF4D0000EF4D0000EF4D00001E
:1052A000EF4D0000855D0000EF4D0000EF4D000068
:1052B000EF4D0000EF4D0000EF4D0000EF4D0000FE
:1052C000EF4D0000EF4D0000EF4D0000EF4D0000EE
:1052D000EF4D0000EF4D0000EF4D0000EF4D0000DE
:1052E000EF4D0000E74D0000312801F0B281322877
:1052F0007FF47DAD05F086FD00287FF713AE2A48C8
:105300002A4E06F0CBF907F037FB2A4907F088FB55
:1053100061230122F06322602B601846A0F1520342
:10532000262B01F26A81DFE813F0DE0868096809BC
:1053300068096809680968096809680968096809E5
:105340006809680968096809C1004C0B88022503CF
:10535000A5016809680968093A026809490B6809E2
:105360006809680968096809E3086809680968093B
:105370006809680968093501312801F0D5813228AA
:105380007FF435AD05F03EFD00287FF773AE06488B
:10539000064E06F083F901226B23C6F89C002260BA
:1053A0002B600BE0D092FF1FEC87FF1FFC92FF1FCA
:1053B000A495FF1F6F12833A05F0E8FC05F022FD6B
:1053C0000028F9D1914805F0D7FF904805F0D4FFA7
:1053D0008E4805F0D1FF8D4805F0CEFF8B4805F0D3
:1053E000CBFF21218A4805F037FD884805F0C4FF2E
:1053F0001521884805F030FDD6F89410834806F052
:105400000BF80221844805F027FD804805F0B4FF21
:105410001E21824805F020FDD6F89C107B4805F03F
:10542000FBFF03217E4805F017FD784805F0A4FF37
:105430001E217C4805F010FDD6F89810734805F041
:10544000EBFF724805F098FF1D21774805F004FD39
:10545000D6F8A4106D4805F0DFFF6C4805F08CFF0E
:105460001E21724805F0F8FCD6F8A810674805F030
:10547000D3FF664805F080FF0523236027E505F08C
:10548000C1FC002840F330836048694E06F006F9FD
:1054900007F072FA674907F0C3FA0346024696F826
:1054A00040106548736419E405F070FC05F0AAFC2F
:1054B00005460028F8D155485D4E05F05DFF53487C
:1054C00005F05AFF514805F057FF504805F054FFCA
:1054D0004E4805F051FF1F21584805F0BDFC4B48D0
:1054E00005F04AFF1C21564805F0B6FC706A554984
:1054F00007F096FA06F0EAFD009502460B4643488F
:1055000005F092FF0221504805F0A6FC3F4805F047
:1055100033FF23214D4805F09FFCF06B494907F00C
:105520007FFA06F0D3FD009502460B46374805F09A
:105530007BFF0221444805F08FFC344805F01CFF36
:105540001921434805F088FCB06B06F0BFFD022529
:105550000B46024600952D4805F066FF29463D485A
:1055600005F07AFC294805F007FF19213A4805F0B3
:1055700073FCB6F8B810254805F04EFF03213748F4
:1055800005F06AFC214805F0F7FE072323609EE43E
:1055900005F0FCFB05F036FC05460028F8D11B4859
:1055A000234E05F0E9FE194805F0E6FE174805F020
:1055B000E3FE164805F0E0FE144805F0DDFE12217A
:1055C000274805F049FC114805F0D6FE0F4805F0C4
:1055D000D3FE0E4805F0D0FE1921224805F03CFC10
:1055E00096F8C230002B41F0C28004211E4805F01D
:1055F00033FC064805F0C0FE13211C4805F02CFCC6
:10560000024805F0B9FE0923236060E4EC87FF1F20
:10561000841C0100A81C0100941B0100C01C010097
:1056200000150100E01C0100001D0100201D01000B
:10563000FC92FF1F6F12833AA495FF1FE01B01002D
:10564000001C010000007A44781A0100201C0100AF
:10565000441C0100601C0100641C0100801C01004E
:105660007023010090190100AC1901001C1A0100FF
:1056700005F08CFB05F0C6FB05460028F8D1A548CF
:10568000A54E05F079FEA34805F076FEA14805F089
:1056900073FEA04805F070FE9E4805F06DFE1121D6
:1056A0009E4805F0D9FB9B4805F066FE28219C48E2
:1056B00005F0D2FB70699B4907F0B2F906F006FDD0
:1056C000009502460B46934805F0AEFE022196482F
:1056D00005F0C2FB8F4805F04FFE1621934805F0F8
:1056E000BBFBF0698F4907F09BF906F0EFFC0095D2
:1056F0000B460246874805F097FE02218A4805F0CE
:10570000ABFB844805F038FED6F8B030002B32DD14
:105710001D21874805F0A0FBF06D07F02DF98549A4
:1057200007F07EF906F0D2FC022502460B460095F2
:10573000784805F079FE01217F4805F08DFB75481A
:1057400005F01AFE1F217D4805F086FB306E07F03C
:1057500013F9784907F064F906F0B8FC00950246A1
:105760000B466C4805F060FE0121734805F074FBA0
:10577000684805F001FE1121714805F06DFBD6F86F
:10578000B030062B00F2E486DFE813F02D07320775
:10579000280723071E071907DE0605F0F7FA05F0AC
:1057A00031FB05460028F8D15A485B4E05F0E4FD70
:1057B000584805F0E1FD574805F0DEFD554805F075
:1057C000DBFD544805F0D8FD15215E4805F044FB8B
:1057D000504805F0D1FD18215B4805F03DFB2B46F4
:1057E0000A2296F840104B4805F0D6FD494805F0CE
:1057F000C3FD2821554805F02FFB706C494907F07F
:105800000FF906F063FC00950B460246414805F08F
:105810000BFE0221444805F01FFB3E4805F0ACFD9D
:1058200013214B4805F018FB3A4805F0A5FD082365
:105830002360FFF74CBB05F0A9FA05F0E3FA002856
:10584000F9D13448344E05F097FD324805F094FD07
:10585000304805F091FD2F4805F08EFD2D4805F0EC
:105860008BFD1F213B4805F0F7FA2A4805F084FD1F
:105870001E21394805F0F0FA264805F07DFD1A2171
:10588000364805F0E9FAF36F022B01F07880032B1C
:1058900001F06C80012B01F060800921304805F097
:1058A000DBFA1C4805F068FD14212E481A4F05F05C
:1058B000D3FAB16F174805F0AFFD164805F05CFD4F
:1058C0001C21294805F0C8FAD6F88010114805F0C7
:1058D000A3FD104805F050FD1C21244805F0BCFA3A
:1058E000D6F8AC100B4805F097FD0A4805F044FDCA
:1058F000F56F25F00205012D00F0C487132114482F
:1059000005F0AAFA034805F037FD02232360FFF7EC
:10591000DEBA00BFEC87FF1FFC92FF1FF8220100D8
:105920007C1A010000007A44781A0100A81A0100CC
:10593000C01A0100CDCCCC3DBC1F0100E01A010013
:10594000001B010054230100301A01004C1A010011
:105950001C1A01007C1E01009C1E0100BC1E0100DF
:10596000341F0100401F0100581F0100781F010073
:1059700005F00CFA05F046FA0028F9D1BD48BE4DF5
:1059800005F0FAFCBB4805F0F7FCBA4805F0F4FC5A
:10599000B84805F0F1FCB74805F0EEFC1321B74814
:1059A00005F05AFAB34805F0E7FC0D21B44805F0BC
:1059B00053FAB04805F0E0FC0F21B24805F04CFA6C
:1059C000B14BAC48196805F027FDAA4805F0D4FC96
:1059D0001321AE4805F040FAAD4BA648196805F012
:1059E0001BFDA44805F0C8FC1221AA4805F034FAB2
:1059F000A94BA048196805F00FFD9E4805F0BCFCB6
:105A00001121A64805F028FAA54B9A48196805F017
:105A100003FD984805F0B0FC0E21A24805F01CFAE1
:105A2000D5F8A010934805F0F7FC924805F0A4FCC7
:105A300019219D4805F010FA9C4B8E48196805F015
:105A4000EBFC8C4805F098FC1121994805F004FA0C
:105A5000984B8848196805F0DFFC864805F08CFCF7
:105A60001021954805F0F8F9944B8248196805F023
:105A7000D3FC804805F080FC1C21914805F0ECF92E
:105A8000904B7C48196805F0C7FC7A4805F074FC17
:105A90001E218D4805F0E0F995F8C130002B00F08B
:105AA000AC860D21894805F0D7F9724805F064FCF1
:105AB0001521874805F0D0F9864B6E48196805F026
:105AC000ABFC6C4805F058FC1321834805F0C4F981
:105AD000684805F051FC04232360FFF7F8B9664ECF
