:1000000000800020BD0100006D8A0000258A0000EC
:10001000258A0000258A0000258A0000258A000024
:10002000258A0000258A0000258A00006D8A0000CC
:100030006D8A0000258A000045AE000049AE000030
:100040006D8A00006D8A00006D8A00006D8A0000D4
:100050006D8A00006D8A00006D8A00006D8A0000C4
:100060006D8A00006D8A00006D8A00006D8A0000B4
:100070006D8A00006D8A00006D8A00006D8A0000A4
:100080006D8A00006D8A00006D8A00006D8A000094
:100090006D8A00006D8A00006D8A00006D8A000084
:1000A0006D8A00006D8A00006D8A00006D8A000074
:1000B0006D8A0000197D0000257D0000297D00006B
:1000C000357D0000397D00003D7D00006D8A000017
:1000D0006D8A00006D8A00006D8A00006D8A000044
:1000E0006D8A00006D8A00006D8A00006D8A000034
:1000F0006D8A00006D8A00006D8A00000D97000077
:100100006D8A0000919C00006D8A00006D8A0000DD
:100110006D8A00006D8A00006D8A00006D8A000003
:100120006D8A00006D8A00006D8A00006D8A0000F3
:100130006D8A00006D8A00006D8A00006D8A0000E3
:100140006D8A00006D8A00006D8A00006D8A0000D3
:100150006D8A00006D8A00006D8A00006D8A0000C3
:100160006D8A00001D9F00006D8A00006D8A0000EE
:100170006D8A00006D8A00006D8A00006D8A0000A3
:100180006D8A00006D8A00006D8A00006D8A000093
:100190006D8A00006D8A00006D8A00006D8A000083
:1001A0006D8A00006D8A00006D8A00006D8A000073
:1001B0006D8A00006D8A00006D8A0000564B4CF27B
:1001C000205210B51A804DF628121A8000BF00BFC9
:1001D00008F050FC514B4FF010621A60504A9A6080
:1001E000504ADA60504A136813F4807304D14F49BF
:1001F0000B604FF4A85313604D4B1A78110703D5C9
:100200001A7842F008021A704A4B4B492A221A7097
:100210004A4A4B4B8B4204D252F8040F43F8040B6A
:10022000F8E7484B484900228B4202D243F8042B9E
:10023000FAE74649464A002352F8230041F82300D2
:1002400001336F2BF8D1434B434A802103F8011B44
:100250009342FBD1414B3D4A1A60414B8A221A70AE
:10026000A3F5805324225A70A0221A709A7992071B
:10027000FCD59A79D406FCD43A4A937903F00C035E
:10028000082B384BF9D103221A7140225A719A79FE
:100290009006FCD5334A9179324B4906FBD5324A58
:1002A000324911600221516020221A709A7902F0BD
:1002B0000C020C2AFAD12E4B2E4A1A602E4B2F4AD2
:1002C0001A6000225A60072243F8042C2C4AC3F813
:1002D0000C2D62B608F084FE144B1B68DA0705D5B6
:1002E000284808F061FC284B284A1A60284B1B78E4
:1002F0005B0609D5244C254B22689A4204D121483B
:1003000008F052FC002323600CF06CFC08F0B8FBF2
:100310000BF098F8FEE700BF0E2005403080044047
:10032000823F04000100002B10D0034014D0034092
:1003300002D0074000E007405092FF1F8C290100C7
:100340002087FF1F5092FF1FDCB9FF1F0082FF1F95
:100350000000000000E400E05FE400E008ED00E0E1
:100360000050064000400640448004400000030165
:1003700004800440C010050014E000E0FF76010096
:10038000000020201072E35F1CE00340A5C3945AD4
:1003900000F00740FFFFFFFFFFFFFFFFFFFFFFFF32
:1003A000FFFFFFFFFFFFFFFFFFFFFFFFFFFFFFFF5D
:1003B000FFFFFFFFFFFFFFFFFFFFFFFFFFFFFFFF4D
:1003C000FFFFFFFFFFFFFFFFFFFFFFFFFFFFFFFF3D
:1003D000FFFFFFFFFFFFFFFFFFFFFFFFFFFFFFFF2D
:1003E000FFFFFFFFFFFFFFFFFFFFFFFFFFFFFFFF1D
:1003F000FFFFFFFFFFFFFFFFFFFFFFFFFFFFFFFF0D
:10040000FFFFFFFFFFFFFFFFFFFFFFFFDEF9FFFF23
:1004100010B5054C237833B9044B13B10448AFF33E
:1004200000800123237010BD5092FF1F00000000C8
:1004300088290100084B10B51BB108490848AFF3E3
:1004400000800848036803B910BD074B002BFBD0A0
:10045000BDE81040184700BF000000005492FF1F85
:10046000882901005092FF1F00000000F0B4154FD2
:100470000024031F00F1800100F5827200F17C0668
:1004800043F8044FB34241F8047F4FF0000542F8AF
:10049000044FF5D100230C4A0C49C0F88C51C0F828
:1004A0009051C0F8B051C0F8A421C0F8AC21C0F8F8
:1004B000A81180F8B83180F8B93180F8D031F0BC9B
:1004C000704700BF0000A040000048430000C8C2C1
:1004D00038B590F8D031023B092B0546144607D8B1
:1004E00070296AD0E02931D0602900F09C8038BDA5
:1004F00070293AD0E02929D06029F8D1137A507AAE
:100500001B0203F47063181805D00CF005F961495B
:100510000CF056F96860A37AE07A1B0203F470636A
:10052000181805D00CF0F8F85A490CF049F9A860F1
:10053000237B607B1B0203F470631818D7D00CF088
:10054000EBF854490CF03CF9E86038BDE37BA07B44
:1005500003EB00200CF0E0F84F490CF031F94F4963
:100560000CF026F8C5F8900138BD137A507A1B02BA
:1005700003F47063181805D00CF0CEF845490CF060
:100580001FF92861A37AE07A1B0203F4706318183C
:1005900005D00CF0C1F83F490CF012F96861237BDB
:1005A000607B1B0203F470631818A0D00CF0B4F841
:1005B00038490CF005F9A86138BD137A507A1B024E
:1005C00003F47063181805D00CF0A6F831490CF04C
:1005D000F7F86861A37AE07A1B0203F470631818D5
:1005E00005D00CF099F82B490CF0EAF8A861237BB0
:1005F000607B1B0203F47063181805D00CF08CF8B4
:1006000024490CF0DDF8E861A37BE07B1B0203F4D6
:10061000706318183FF46BAF0CF07EF81D490CF0B6
:10062000CFF8286238BD137A507A1B0203F4706346
:10063000181805D00CF070F816490CF0C1F8686075
:10064000A37AE07A1B0203F47063181805D00CF04B
:1006500063F810490CF0B4F8A860237B607B1B02A0
:1006600003F47063181805D00CF056F809490CF023
:10067000A7F8E860A37BE07B1B0203F47063181803
:100680003FF435AF0CF048F802490CF099F82861B6
:1006900038BD00BF0AD7A33ADDB504BD000016433C
:1006A000D0F8DC01704700BF90F8C001704700BF70
:1006B00090F8BC01704700BF90F8C401704700BFBC
:1006C00090F8C801704700BF202994BF50F821005E
:1006D000002070472DE9F0410B4E8046041F00F1C9
:1006E0007C0754F8045F314628460CF007FA30B115
:1006F000D8F8B41128460CF01FFA00B12E46BC42BF
:10070000EFD13046BDE8F081000020412DE9F041F5
:10071000D0F8B4714FF00008041F00F17C0654F8C3
:10072000045F394628460CF007FA084948B12846C4
:100730000CF0E4F9414620B128460CF0FDF900B177
:10074000A846B442EBD14046BDE8F08100007042BB
:100750002DE9F0470023D0F8B471C0F8DC318246AF
:100760001C464FF000099846061F56F8045F3846AD
:1007700029460CF0C3F90E4960B128460CF0BEF9C9
:1007800040B1484629460BF013FF08F101088146A5
:10079000CAF8DC410134202CE7D1CAF8D4814046A4
:1007A0000BF0BAFF014648460CF0BEF8BDE8F087F2
:1007B00000007042D0F8D401704700BFD0F890011B
:1007C000704700BFD0F89001704700BFD0F890018B
:1007D000704700BF2DE9F8434FF00008D0F8B4711E
:1007E000C0F88C818146041F00F17C0654F8045F38
:1007F000394628460CF0A0F9084950B128460CF0BB
:100800007DF930B1404629460BF0D2FE8046C9F84A
:100810008C01B442EAD14046BDE8F8830000704242
:1008200002299ABF643150F821000020704700BFB0
:10083000102998BF80F8D011704700BF90F8B80118
:10084000704700BFC0F8CC11704700BF80F8B811E6
:10085000704700BF80F8B911704700BF30B5C0F8CD
:10086000B41183B008460BF001FB074C0225024689
:100870000B46009520460AF0A7FC204603B0BDE8D1
:1008800030400AF049BC00BFEC87FF1F70B500F58F
:1008900000550646183500F13804204604F5F0747A
:1008A000FFF7E4FDAC42F8D106F5067501242846B1
:1008B0000021FFF7CBFF214628460134FFF7B8FFA0
:1008C000112C05F5F075F2D142F2200400250548FF
:1008D000054A064B3555002130627162B262F362FF
:1008E000304670BD00007A44000048430000C8C292
:1008F00042F224032DE9F041002200F5F15500F504
:1009000000578046C2501835243700F5067403E0BE
:1009100004F5F074AC420ED02046FFF78FFF00289C
:10092000F6D020463E68FFF745FF04F5F0743044EA
:10093000AC423860F0D142F2240358F80300BDE81D
:10094000F08100BF70B50E460121356805F00F0437
:100950000C44C4EB041400EB441000F138042046AE
:10096000FFF774FF20460121FFF774FF324620464F
:1009700005F0F001BDE87040FFF7AABD70B5002397
:1009800000F5005605460361183600F5067403E0CD
:1009900004F5F074A64223D02046FFF74FFF00284D
:1009A000F6D02046FFF716FF014628690BF000FE3F
:1009B00028612046FFF702FFA96A0CF09FF820BBD0
:1009C0002046FFF7FFFEE96A0CF0B6F80028DFD0FA
:1009D0002046FFF7F7FE04F5F074A642E862DBD18B
:1009E00068690BF099FE014628690BF09DFF696A62
:1009F000286104460CF0A0F800B16C62296A204618
:100A00000CF07CF800B12C6270BD2046FFF7D6FEDA
:100A1000A862D5E770B5124B836100F50055064614
:100A2000183500F5067403E004F5F074AC4214D0F8
:100A30002046FFF703FF0028F6D02046FFF74AFEC6
:100A4000B1690CF05BF80028EED02046FFF742FEBB
:100A500004F5F074AC42B061EAD1B06970BD00BF7A
:100A60000000A04070B5002300F500550646C361A4
:100A7000183500F5067403E004F5F074AC4214D0A8
:100A80002046FFF7DBFE0028F6D02046FFF73EFEAB
:100A9000F1690CF051F80028EED02046FFF736FE41
:100AA00004F5F074AC42F061EAD1F06970BD00BFAA
:100AB0000069704741617047F8B50F46164600F56A
:100AC0000674012504E00135112D04F5F0741BD0E6
:100AD0002046FFF7B3FE0028F5D029460B480AF060
:100AE0006BFB0A480AF018FB78200AF009F9204647
:100AF0003946FFF7A7FE013520463146FFF7AEFE27
:100B0000112D04F5F074E3D1F8BD00BFEC87FF1F91
:100B100042F21C032DE9F041002200F50055C250BD
:100B20002F46274A274B426306464FF000080363CF
:100B300018351C3700F5067403E004F5F074AC4278
:100B40002ED02046FFF77AFE0028F6D02046FFF789
:100B50003DFE00210BF0F0FF0028EED03B68013392
:100B60003B602046FFF732FE014640460BF020FD79
:100B700080462046FFF726FE316B0BF0DDFFD0B933
:100B80002046FFF71BFE716B0BF0B8FF0028D4D096
:100B90002046FFF713FE04F5F074AC427063D0D129
:100BA00042F21C03F0580BF0B7FD014640460BF033
:100BB000BBFEBDE8F0812046FFF704FE3063DFE7AF
:100BC00000C0794400C079C4006B7047406B704727
:100BD000F8B500F5005507460026183500F50674EF
:100BE00003E004F5F074AC4210D02046FFF726FE77
:100BF0000028F6D02046FFF7ABFD014630460BF04B
:100C0000D7FC04F5F074AC420646EED142F21C0368
:100C1000F8580BF081FD014630460BF085FEF8BD1B
:100C20002DE9F04F83B000F10F02C31D009204467E
:100C30000193002203F8012F00999942FAD101276C
:100C4000B94604F5067504F108082846FFF7F6FDD5
:100C5000E8B14FF0010B00262046FFF7B9FF5946D7
:100C600082462846FFF730FD014650460BF046FF0E
:100C700020B10BF1FF3209FA02F216430BF1010B1E
:100C8000BBF1090FE8D1092F55D088F80060013772
:100C90000A2F05F5F07508F10108D6D14FF440721E
:100CA00008232260E3712146244806F0D5FE019B0B
:100CB000002203F8012F00999942FAD104F59756C2
:100CC00018364FF00A084FF001093046FFF7B6FD1D
:100CD000D8B1012500272046FFF77AFF2946834631
:100CE0003046FFF7F1FC014658460BF007FF18B1FC
:100CF0006B1E09FA03F31F430135092DEBD1019B4C
:100D0000B8F10B0FCCBF1F705F70019B08F1010899
:100D10000133B8F1100F06F5F0760193D5D10748ED
:100D20004FF44472052321462260E37103B0BDE80D
:100D3000F04F06F091BEE673B0E700BFCCB5FF1FE1
:100D40002DE9F04F93B004460F91002A40F0D08176
:100D500015461046C54900F0D7FDC449284600F0A5
:100D6000D3FDC249284600F0CFFD42F21C032046C5
:100D700054F803B0FFF7BCFD8146206966690BF0AB
:100D800075F8CDE910012046FFF722FF8246204684
:100D9000A769D4F81C80FFF7BBFE0BF067F8CDE91C
:100DA0000C01394640460BF001FCB1490BF008FD3F
:100DB0000BF05CF8CDE90A0140460BF057F8CDE99D
:100DC000080138460BF052F8CDE9060150460BF009
:100DD0004DF8DDE91023CDE90401CDE90223A54951
:100DE00000964B465A46284600F08EFD9F492846FD
:100DF00000F08AFD04F506744FF0010ADDF83C901E
:100E000007E00AF1010ABAF1100F04F5F07400F0DE
:100E1000F2802046FFF712FD0028F2D02046FFF7AF
:100E200043FC2046FFF744FC2046FFF745FC2046E4
:100E3000FFF746FC0821904809F0DEFE51468F4836
:100E40000AF0BAF9BAF1090F03DC01218C4809F064
:100E5000D3FE02218B4809F0CFFE2046FFF7BAFCF3
:100E60000BF004F85FFA89F802460B46CDF80080D3
:100E700082480AF0A9F90121834809F0BDFE204605
:100E8000FFF70EFC0C2800F3B98001261DE00721B6
:100E90007E4809F0B1FE294678480AF08DF9022112
:100EA0007B4809F0A9FE31462046FFF70DFC0AF009
:100EB000DDFFCDF8008002460B4670480AF084F949
:100EC000012171480E4409F097FE2046FFF7E8FB28
:100ED000864269DC092D05F10105D8DC012168484D
:100EE00009F08AFED3E72046FFF7DAFB172800F364
:100EF000B98035460D261CE0013509F07DFE2946F6
:100F00005E480AF059F90221614809F075FE314640
:100F10002046FFF7D9FB0AF0A9FFCDF80080024672
:100F20000B4656480AF050F9012157480E4409F083
:100F300063FE2046FFF7B4FB86424FF0070153489B
:100F4000DADD0F21534809F057FE4C480AF0E4F867
:100F50002046FFF7A5FB192826DD19261CE00135E0
:100F600009F04AFE294645480AF026F90221484878
:100F700009F042FE31462046FFF7A6FB0AF076FF55
:100F8000CDF8008002460B463C480AF01DF90121CD
:100F90003D480E4409F030FE2046FFF781FB8642B3
:100FA0004FF007013948DADD0F213A4809F024FEF5
:100FB00032480AF0B1F80921374809F01DFE002136
:100FC0002046FFF72DFC0AF051FF022602460B4691
:100FD00000962A480AF0F8F80F212E4809F00CFE76
:100FE0000AF1010A25480AF097F8BAF1100F04F542
:100FF000F0747FF40EAF13B0BDE8F08F2F460126DA
:101000001FE00721214809F0F7FD39461B480AF087
:10101000D3F802211E4809F0EFFD31462046FFF7C4
:1010200053FB0AF023FFCDF8008002460B4613481D
:101030000AF0CAF801360121134809F0DDFD0C2E33
:1010400008D0092F07F10107DBDC01210C4809F06A
:10105000D3FDD6E72046FFF723FB0C2805F10B064E
:101060003FF741AF16350D2739E000BF502301008F
:1010700000007A4420100100C0100100EC87FF1F1F
:101080007011010084140100CC100100D010010087
:1010900060110100D8100100E81001000721BA48D2
:1010A00009F0AAFD3146B9480AF086F80221B8488D
:1010B00009F0A2FD39462046FFF706FB0AF0D6FEEE
:1010C000CDF8008002460B46B0480AF07DF80121B9
:1010D000B0480F4409F090FDB5423FF432AF092EFD
:1010E00006F10106DADC0121AB4809F085FDD5E700
:1010F000AA49012000F008FCA849012000F004FCE6
:10110000A649012000F000FC42F21C032046E258F0
:101110001092FFF7EDFB8246206966690AF0A6FE91
:10112000804620468946FFF753FD83462046A56941
:10113000E769FFF7EDFC0AF099FECDE90C012946BD
:1011400038460BF033FA96490BF03AFB0AF08EFE64
:10115000CDE90A0138460AF089FECDE908012846A2
:101160000AF084FECDE9060158460AF07FFE534698
:10117000CDE90401CDE90289109A8A49009601203F
:1011800000F0C2FB8549012000F0BEFB04F50674A7
:101190004FF0010A0025DDF83C9007E00AF1010A52
:1011A000BAF1100F04F5F0743FF425AF2046FFF7B5
:1011B00045FB0028F2D02046FFF776FA2046FFF7DD
:1011C00077FA2046FFF778FA2046FFF779FA0821E8
:1011D000754808F097F95146744809F0EDFFBAF1E7
:1011E000090F03DC01216C4808F08CF902217048DA
:1011F00008F088F92046FFF7EDFA0AF037FE5FFAAB
:1012000089F802460B46CDF80080684809F0DCFFFB
:101210000121604808F076F92046FFF741FA0C28D2
:1012200000F3AF8001261DE00721574808F06AF956
:1012300029465E4809F0C0FF0221554808F062F9CE
:1012400031462046FFF740FA0AF010FECDF8008044
:1012500002460B46554809F0B7FF01214D480E44A0
:1012600008F050F92046FFF71BFA864269DC092D89
:1012700005F10105D8DC0121474808F043F9D3E71F
:101280002046FFF70DFA172800F3C98035460D26D2
:101290001CE0013508F036F92946444809F08CFF76
:1012A00002213B4808F02EF931462046FFF70CFAA0
:1012B0000AF0DCFDCDF8008002460B463B4809F001
:1012C00083FF012133480E4408F01CF92046FFF744
:1012D000E7F986424FF007012B48DADD0F21354848
:1012E00008F010F9314809F017FF2046FFF7D8F948
:1012F000192826DD19261CE0013508F003F92946D6
:101300002A4809F059FF0221214808F0FBF831462C
:101310002046FFF7D9F90AF0A9FDCDF80080024672
:101320000B46224809F050FF01211A480E4408F0EC
:10133000E9F82046FFF7B4F986424FF0070112485A
:10134000DADD0F211B4808F0DDF8184809F0E4FE4B
:101350000921194808F0D6F800212046FFF760FA65
:101360000AF084FD022602460B4600960F4809F05B
:101370002BFF0F210F4808F0C5F80C4809F0CCFEF0
:101380000CE72F46012639E0D0100100EC87FF1F43
:1013900060110100CC100100701101005023010008
:1013A00000007A4420100100C0100100C087FF1F18
:1013B00084140100D8100100E810010007212E4814
:1013C00008F0A0F839462D4809F0F6FE02212C4815
:1013D00008F098F831462046FFF776F90AF046FD06
:1013E000CDF8008002460B46244809F0EDFE013698
:1013F0000121244808F086F80C2E08D0092F07F1A7
:101400000107DBDC0121204808F07CF8D6E7204604
:10141000FFF746F90C2805F10B063FF731AF1635FB
:101420000D2720E00721144808F06CF831461348D6
:1014300009F0C2FE0221124808F064F8394620463D
:10144000FFF742F90AF012FDCDF8008002460B4684
:101450000A4809F0B9FE01210A480F4408F052F881
:10146000B5423FF43BAF092E06F10106DADC01215B
:10147000054808F047F8D5E7D0100100C087FF1FE6
:1014800060110100CC100100701101002DE9F04F36
:1014900085B000F506758A4603929B462E464FF0AE
:1014A000010806E008F10108B8F13F0F06F5F076F3
:1014B0007BD03046FFF7C2F90028F3D000230A2280
:1014C00051467D4809F038FE01217C4809F094FB23
:1014D00003980AF0CBFC00230246009376480B46A3
:1014E00009F072FE0121754809F086FB59467248E1
:1014F00009F062FE0121714809F07EFB41466E4809
:1015000009F05AFE01216D4809F076FB00244FF0E6
:10151000020921463046FFF7D7F80AF0A7FCCDF8BC
:10152000009002460B46644809F04EFE013401214A
:10153000624809F061FB082C4FF00207E9D1002155
:101540003046FFF76DF90AF091FC009702460B4612
:10155000594809F039FE0121584809F04DFB012195
:101560003046FFF75DF90AF081FC009702460B4612
:10157000514809F029FE0121504809F03DFB394648
:101580003046FFF74DF90AF071FC009702460B4612
:10159000494809F019FE08F10108474809F0BCFD67
:1015A000B8F13F0F06F5F07683D101274FF000091F
:1015B00004E001373F2F05F5F07579D02846FFF795
:1015C0003DF90028F5D000230A2251463C4809F095
:1015D000B3FD0121394807F095FF03980AF046FC56
:1015E000CDF8009002460B46354809F0EDFD01218B
:1015F000324807F087FF5946314809F0DDFD0121E7
:101600002E4807F07FFF39462D4809F0D5FD01210E
:101610002A4807F077FF00244FF0020821462846A9
:10162000FFF752F80AF022FCCDF8008002460B4684
:10163000234809F0C9FD01340121204807F062FF69
:10164000082C4FF00206E9D100212846FFF7E8F800
:101650000AF00CFC009602460B46194809F0B4FD4E
:101660000121164807F04EFF01212846FFF7D8F860
:101670000AF0FCFB009602460B46114809F0A4FD57
:1016800001210E4807F03EFF31462846FFF7C8F813
:101690000AF0ECFB009602460B46094809F094FD5F
:1016A0000137074809F038FD3F2F05F5F07585D162
:1016B00005B0BDE8F08F00BFEC87FF1FF4100100FC
:1016C000C087FF1F70B5044608460D460CF078F839
:1016D00023680246294620465B68BDE870401847EB
:1016E000014B1870704700BF2087FF1FF0B51546EB
:1016F000027883B062B103460E46252A16D01878C8
:101700001C4685B909F0FCFA6278631C002AF4D102
:10171000002D5CD0744803B0BDE8F04009F0FCBC7B
:101720001046002DEED007F095FEEDE758785C1CD2
:101730000028EDD02528F3D073282FD0642825D099
:10174000692823D0662848D07A2853D078285ED0DC
:10175000582800F08580622800F09180422866D0E9
:101760006C2813D0632811D0742800F09880542876
:10177000C7D133680436002D40F0A480012B00F05F
:10178000A8800521594809F037FABDE7331D3168B3
:1017900085B957481E4609F00FFDB5E7371D366875
:1017A000304665B90CF00CF8014630463E4609F06B
:1017B00023FAA9E74C481E4609F0FEFCA4E70BF00B
:1017C000FFFF014630463E4607F09CFE9CE7484836
:1017D00003B0BDE8F04009F09FBC073626F00706CD
:1017E0000321D6E90023009165B94148083609F084
:1017F000EBFC89E7073626F00706D6E9002385B11A
:10180000002100913848083609F0DEFC7CE7371DDE
:101810003168F5B90023102235483E4609F08CFCAA
:1018200072E700953248083609F0CEFC6CE70221D9
:1018300030487DBB09F0E0F93168371D2B460222A4
:101840002B483E4609F078FC5EE707F05BFE316806
:10185000371D0023102224483E4609F06DFC53E753
:1018600002212548002DF0D109F0C6F9371D316855
:101870001F482B4610223E4609F05EFC44E7371D08
:101880003168002DDAD00023022217483E4609F0C5
:1018900053FC39E707F036FE371D3168F3E731684E
:1018A00004363DB901290EBF14481548012109F03D
:1018B000A3F929E701290EBF10481148012107F0BB
:1018C00021FE21E7012B09D00521084807F01AFE67
:1018D0001AE70C490648FFF7F5FE15E709490248E3
:1018E000FFF7F0FE10E700BFC087FF1F34110100B3
:1018F000EC87FF1F201101001C11010024110100C1
:10190000281101002C1101000EB400B582B003A90A
:10191000024651F8040B0191FFF7E8FE02B05DF8B2
:1019200004EB03B0704700BF30B4074D074C0849C3
:1019300000232B70236003654365836580F85C306A
:101940000B6030BC704700BF7492FF1F7092FF1F86
:101950006C92FF1F2DE9F8434649474F474D484ECB
:10196000484CDFF854810020FFF7CEFF464B474A32
:1019700047485A60DF601222002746491A701861F2
:10198000454A46485D615E62454D9C614FF07C561C
:10199000444C1F63444F9962DA62444958630C22F5
:1019A00043489D635E6440F61C450A269C641F62A2
:1019B00041F204043F4FD9641A6502210122C3F8A1
:1019C000BC009D6600206425DE661C674FF4967699
:1019D0003224DF61DF635A27597059721A725A65CF
:1019E00083F840009D655E66DE651C665F67C3F830
:1019F0009840C3F8A4408C244FF47A799867D9674B
:101A0000C3F88000DFF8B4C0C3F8A00044F6206E2D
:101A1000C3F8AC20C3F8B010FF2741F28831C3F8F7
:101A2000B450052683F8C02083F8C12083F8C22073
:101A30004FF4FA7540F2D6624FF4964083F8CC40EA
:101A4000C3F89C90C3F88880C3F88CC0C3F890E0BA
:101A5000C3F8A870A3F8BA60A3F8C450C3F8C800CC
:101A6000C3F89410A3F8B810A3F88420A3F8862034
:101A7000BDE8F8833C11010066668640333383403D
:101A8000CDCCCC3DCDCC4C40FC92FF1F48E80100B2
:101A90000000404000008242000020C100002042BF
:101AA0000000A0409A997940333373400AD7233D10
:101AB0009A99993ECDCC4C3E0000684200C020442B
:101AC00070B5464C464D4748E66800232B70FEF73C
:101AD000C9FF014630460BF011F808B104232B7002
:101AE0004048FEF797FF21690BF008F818B12B78F2
:101AF00043F010032B703B48FFF766F8A16A0BF028
:101B00001BF818B12B7843F040032B7000233548A5
:101B10006B70FFF75BF8E16A314E0AF0EFFF08B136
:101B20000123737000232F48EB70FEF79BFF0546DF
:101B30002C482B4EFEF76EFF014628460AF036FD74
:101B4000E16B0AF0F9FF08B10123F370264D254837
:101B500000232B70FEF786FF616A0646E0680AF0F4
:101B600025FD014630460AF0E7FF08B104232B703B
:101B70001C48FEF74FFF616A064620690AF018FD0F
:101B8000014630460AF0BAFF18B12B7843F0100333
:101B90002B701448FFF718F8A16B0646A06A0AF0EC
:101BA00005FD014630460AF0C7FF18B12B7843F017
:101BB00040032B7000230B486B70FFF707F8A16BF5
:101BC0000546E06A084C0AF0F3FC014628460AF094
:101BD00095FF08B10123637070BD00BFFC92FF1F29
:101BE000F892FF1FA495FF1FD093FF1F2DE9F0412E
:101BF0007C4C2368012B82B031D0022B00F0A880EE
:101C0000032B00F0C8803BBB774B784AD3F8A41075
:101C1000D3F8A83012685B1A632B0EDD744803FBFF
:101C200002F380FB0302DB17C3EB621319440620A7
:101C300002B0BDE8F04106F0C9BF6E4803FB0223C5
:101C400080FB0302DB17C3EB22121144062002B013
:101C5000BDE8F04106F0BABF02B0BDE8F081664EC3
:101C600033680A33B3F57A7F00F3B78018463360E0
:101C70000AF052FD61490AF0A3FD80465A4DD5F89D
:101C8000A4000AF049FD0746D5F8A8000AF044FD73
:101C900039460AF08BFC41460AF092FD58490AF099
:101CA00043FE39460AF084FC0AF050FF0146062044
:101CB00006F08CFF0221534808F09EFF524809F0BD
:101CC0002BFA0621514808F097FF30680AF024FDEE
:101CD0004A490AF075FD0AF0C9F8022702460B4688
:101CE0000097494809F070FA0D21494808F084FF2F
:101CF000D5F8A4000AF010FD804630680AF00CFD0B
:101D00003E490AF05DFD0646D5F8A8000AF004FD3C
:101D100041460AF04BFC014630460AF051FD384975
:101D20000AF002FE41460AF043FC0AF09FF80097D1
:101D30000B460246344809F047FA3946314808F064
:101D40005BFF314809F0E8F92368022B7FF458AFB4
:101D5000294B254E00221A60D6F8A4000AF0DCFCBC
:101D60000546D6F8A8000AF0D7FC29460AF01EFC62
:101D700000210AF025FD22490AF0D6FD29460AF085
:101D800017FC0AF0E3FE0146062006F01FFF236859
:101D9000032B7FF438AF184B134E4FF47A721A604E
:101DA000D6F8A4000AF0B8FC0546D6F8A8000AF058
:101DB000B3FC29460AF0FAFB11490AF001FD10496B
:101DC0000AF0B2FD29460AF0F3FB0AF0BFFE014615
:101DD000062006F0FBFE236815E700234FF00008FD
:101DE00033604BE7D092FF1FFC92FF1F3887FF1F25
:101DF0001F85EB51CBF08D288C92FF1FCDCCCC3DB5
:101E00000000C84284140100EC87FF1F5C11010030
:101E10006411010070B5B648B64C09F07DF9B448BC
:101E200009F07AF9B24809F077F90D21B24808F0C3
:101E3000E3FED4F8A030012B11D0B04CAC4821788F
:101E400000230A2209F078F92378052B67D8DFE808
:101E500013F0100115011A011F01240106010921C7
:101E6000A74808F0C9FEA748FEF7D4FD21690AF08B
:101E700045FE18B10F21A44808F0BEFEA148FEF7A8
:101E8000F1FDE1680AF058FE18B10E219F4808F0F4
:101E9000B3FE9C48FEF7E6FD05469A48FEF7BAFDFC
:101EA000014628460AF082FBE16B0AF045FE18B1B4
:101EB0001121974808F0A0FE9248FEF729FEA16A7A
:101EC0000AF03AFE18B10C21924808F095FE8D48B0
:101ED000FEF71EFEE16A0AF011FE18B10D218E48D0
:101EE00008F08AFE8D4B87481B68012B00F0E980C3
:101EF000FEF790FD21697F4D0AF01EFE78B1814802
:101F0000FEF7B0FDE9680AF0F9FD40B17B4B1B78A4
:101F1000052B00F0E7800821814808F06DFE0221C2
:101F2000804808F069FE122006F0D6FF012800F074
:101F3000B980112006F0D0FF012800F0BD807A4B57
:101F40001B78002B40F0868002217648774C08F001
:101F500053FE774B6648196809F02EF9644809F07A
:101F6000DBF80421734808F047FE0B2006F0B4FFAD
:101F7000002301460A225E4809F0DEF80C2006F034
:101F8000ABFF002301460A22594809F0D5F8142076
:101F900006F0A2FF002301460A22554809F0CCF8BA
:101FA000152006F099FF0A2200230146504809F047
:101FB000C3F80621604808F01FFE2368DD074FF0D4
:101FC00001014CBF5D485E4808F016FE2368980783
:101FD0004FF001014CBF5948594808F00DFE2368E5
:101FE0005A074FF001014CBF5448554808F004FE11
:101FF00023681B074CBF51485148012108F0FCFDE4
:102000000421504808F0F8FD112006F065FF002378
:1020100001460A22364809F08FF8102006F05CFFCE
:10202000002301460A22324809F086F8122006F001
:1020300053FF002301460A222D4809F07DF81320A2
:1020400006F04AFF002301460A222948BDE87040F5
:1020500009F072B812213C4808F0CEFD74E7072160
:102060003A4808F0C9FD3A4B2148196809F0A4F82C
:1020700055E70621374808F0BFFD50E707213648ED
:1020800008F0BAFD4BE70721344808F0B5FD46E7F4
:102090000821334808F0B0FD41E70B21314808F032
:1020A000ABFD3CE70E21304808F0A6FD112006F0FC
:1020B00013FF01287FF443AF0A212C4808F09CFD50
:1020C0003DE7FEF7A7FC216A0AF036FD00283FF441
:1020D00022AF1621264808F08FFD0A21254808F076
:1020E0008BFD1CE70A21234808F086FD17E700BF97
:1020F000EC87FF1FFC92FF1F741101007494FF1FF7
:1021000084110100A495FF1F90110100A01101008E
:10211000B0110100C4110100D41101009892FF1FF9
:1021200008120100841401001495FF1FCC93FF1FB7
:102130005C94FF1F7C120100841201008C120100CC
:102140002C220100901201006812010044120100CB
:102150001895FF1F141201001C120100301201001B
:1021600038120100241201004C1201005C1201001F
:10217000E4110100FC1101002DE9F04FAA4CE36FBE
:10218000012B8DB000F07681032B00F0CB80DFF8BF
:10219000D882A64FA64EA36FA648012B09BF31686F
:1021A000316801F10041316006F072F93B68002BA3
:1021B00040F09E809F48DFF8B09206F03FF93B6800
:1021C000C8F800000546002B44D1E36F012B53D023
:1021D000002128460AF0B0FC002800F0F1812846D2
:1021E00095490AF0A9FC98B9944A954B12680B924C
:1021F0000B9A1A60D4F8AC000AF08EFA29460AF05D
:10220000DFFA0023C8F8000033600DB0BDE8F08F9E
:102210008A4FDFF82C923B680A930A98D9F800306D
:10222000DFF848A2C01A0AF073FA29460AF0C8FA81
:1022300084490AF079FB83490AF076FBDAF800104A
:102240000AF0B6F93B680993099BCAF80000C9F87F
:102250000030CFE709F00AFE02250B460246009542
:10226000794808F0B1FF0421784808F0C5FCE36F15
:10227000D9F80050012BABD1754B1B68012B00F036
:10228000E681022BB6D1002128460AF055FC002831
:1022900000F054822F46D4F890000AF03DFA01462F
:1022A00038460AF049FC002800F0FE81DFF88CA1D6
:1022B000634FDAF80030079307983B68DFF8AC917A
:1022C000C01A0AF025FA29460AF07AFA5D490AF09E
:1022D0002BFB5C490AF028FBD9F800100AF068F9DA
:1022E000DAF800300693069BC9F800003B6081E7EE
:1022F000504806F0A3F809F0B9FD022502460B4646
:102300000095514808F060FF0321524808F074FC22
:10231000D4F890104C4808F04FFF03214D4808F0C6
:102320006BFC47E74C4D4A4E2B68DFF83C81D3F8F5
:1023300084000F210123336006F03AF833683B4FE5
:10234000012B3B6800F0BC80002B40F048812B68DB
:10235000DFF81C91D3F88400436B19698EB2C9F879
:10236000006005F0A7FDB4F8862040F6E44303FBC7
:1023700006F1B1FBF0F0801A00B20AF0CDF937494E
:102380002B4E8246D4F888000AF01AFA01465046CD
:102390000AF0CAFAD9F800303060632BDFF8D0A019
:1023A00000F31181002333603B68002B3FF4F3AE50
:1023B00002212B4808F020FC2B68D9F80050D3F8F4
:1023C000840040F6E44303FB05F505F073FDB5FB1F
:1023D000F0F00AF09DF90546B4F886000AF09CF981
:1023E000014628460AF0E2F809F040FD02250246BF
:1023F0000B460095144808F0E7FE2946184808F0F7
:10240000FBFB306809F032FD009502460B460E4892
:1024100008F0DAFE2946134808F0EEFB294610487A
:1024200008F0EAFBB7E600BFFC92FF1F3495FF1FE0
:102430009492FF1FD492FF1F0000FA4374B7FF1F4E
:102440000895FF1F00007A44EC87FF1FDC12010093
:102450005487FF1FD81201000C95FF1F9175DD36C0
:1024600084140100D4120100B092FF1FBC92FF1F20
:10247000F492FF1FDFF81483D8F80050002128469B
:102480000AF05AFB002800F09880D4F89000AE4E75
:102490000AF042F9014628460AF030FBAB4D2A68A3
:1024A000002800F082800123D2F8840033600F21DD
:1024B00005F07EFF3368A64F012B3B687FF444AFE5
:1024C000002B40F0FF802B68DFF8C492D3F8840023
:1024D000436B19691FFA81FBC9F800B005F0EAFCEB
:1024E000B4F884309B4E40F6E44A0AFB0BFBBBFB7E
:1024F000F0F0C01A00B20AF00FF997498346D4F8F9
:102500008C000AF05DF9014658460AF00DFA2A6877
:10251000D9F800303060D2F884000AFB03FA05F0E5
:10252000C9FCB4F88430BAFBF0F00FFA80FAC3EBC0
:102530000A03002BB4F8BA20B8BF5B429342BCBF79
:10254000002333603B68002B3FF425AE0221834813
:1025500008F052FB2B68D9F80050D3F8840040F6FD
:10256000E44303FB05F505F0A5FCB4F88410B5FBC6
:10257000F0F000B2411A7A4808F01EFE02217748B6
:1025800008F03AFB306809F071FC022502460B4660
:102590000095734808F018FE0321724808F02CFBE0
:1025A00029466E4808F028FBF5E50223D2F884009E
:1025B00033600E2105F0FCFEC0E605F1004564E73E
:1025C00005F100400CE62B68D3F8840005F072FC9E
:1025D000DAF8003064389842FFF4E4AEE4E660488C
:1025E000DFF8AC91DFF864A108F096FD0C215E489D
:1025F00008F002FB0C215D4808F0FEFA2A683B68EF
:10260000D2F88400426B11698EB2C9F80060002BC9
:102610003FF4A7AE05F04EFC40F6E44100230A2249
:1026200001FB06F1B1FBF0F14D4808F085FD0221F8
:102630004A4808F0E1FAB4F88610494808F0BCFDB1
:10264000DAF80030D9F80060D3F8840089E6002178
:1026500028460AF071FA002873D0284644490AF047
:102660006BFA40B3DFF814A1424FDAF8003004935C
:1026700004983B68DFF81C91C01A0AF049F8294613
:102680000AF09EF83C490AF04FF93B490AF04CF930
:10269000D9F8001009F08CFFDAF800300393039B9F
:1026A000C9F800003B60A5E5344A324B1268089235
:1026B000089A1A609EE5314A2E4B12680592059AD7
:1026C0001A6097E52648DFF8C890204E08F024FDF0
:1026D000E36F012B4FF00B010CBF2948294808F08C
:1026E0008BFA0C21214808F087FA2A683B68D2F857
:1026F0008400426B11691FFA81FBC9F800B0002BFE
:102700003FF4ECAE05F0D6FB40F6E44100230A228C
:1027100001FB0BF1B1FBF0F1114808F00DFD0121B7
:10272000194808F069FAB4F884100D4808F044FD1F
:102730003368D9F800B0D3F88400CFE605F100473C
:10274000A9E505F1004089E75487FF1F0C95FF1F9D
:102750003495FF1F9492FF1F9175DD36841401009C
:10276000EC87FF1FC0120100C4120100B01201006B
:102770000000FA430895FF1F00007A4474B7FF1F5A
:1027800098120100A412010070110100B092FF1F05
:10279000F492FF1FBC92FF1F2DE9F04F994C236864
:1027A00085B0002B7BD0984DDFF86482974FDFF81F
:1027B000A892D5F88030944E012B00F08B80D7F88A
:1027C00000A0D6F858B0746D914E04FB0BF44FF492
:1027D0007A7000FB04F009F09FFF8E4904465046D2
:1027E00009F0EEFF21460AF09FF88B4909F0E8FF57
:1027F0000AF0ACF96328C8F800004BDD2046854993
:102800000AF092F8642338603360D9F80030002B66
:102810003DD0EB6F7C4C012B00F08A80032B00F045
:10282000DF80022B00F0E28002217C4808F0E4F90E
:102830007B4B186809F01AFB022402460B460094F1
:10284000784808F0C1FC2146774808F0D5F92146C0
:10285000724808F0D1F9D8F80010724808F0ACFCC2
:102860000621724808F0C8F938686A4909F0A8FFDB
:1028700009F0FCFA009402460B466A4808F0A4FCF2
:1028800003216B4808F0B8F9664808F045FC05B02C
:10289000BDE8F08F0028BCBF00233360B5E7654E6C
:1028A000594D33680293029A42F228339A424BD828
:1028B00033680393039A42F210739A424BD8D5F8C7
:1028C0008030DFF84C81514FDFF88C914E4E012B58
:1028D0007FF475AF5848FEF77BF95849D6F868A0E1
:1028E000F46E09F06DFF0AF057F9326F736FD5F887
:1028F00058B0CAEB02021B1B80B29A42CAEB00001E
:10290000C6BF03FB00000132584390FBF2F02044A5
:102910006C6D00FB0BF004FB00F000EB800040004E
:1029200009F0FAFE3B4909F0FFFF824638604BE7A9
:10293000434B1B68012B4FF00A010CBF4148424832
:1029400008F05AF9E36F69E73B486A6C95F8401064
:10295000FEF7B2F8ACE73848FEF73AF93749AF6E00
:10296000EE6E09F02DFF0AF017F92A6F6B6FD21B7C
:102970009B1B80B29A42A0EB07003CDD03FB0000EA
:10298000531C90FBF3F31E44A86D6B6DDFF8808041
:10299000DFF8C490C8F8006000FB06F003FB00F00D
:1029A00000EB8000400009F0B7FE1A49174F09F00C
:1029B000BBFFD9F80030386001222260002B3FF4C1
:1029C000F8AE0221154808F017F9164808F0A4FBE4
:1029D00059211E4808F010F9124808F09DFBE8E65E
:1029E00010211B4808F008F9EB6F1AE70721194876
:1029F00008F002F918E703FB00F393FBF2F31E441F
:102A0000C2E700BF9092FF1FFC92FF1FBC92FF1F06
:102A10003887FF1FE4388E3E0000C842841401004E
:102A2000B092FF1FEC87FF1FD41201007413010046
:102A30007C13010074B7FF1FA495FF1F00007A44A8
:102A40005487FF1F401301004C130100E4120100E2
:102A5000581301006C1301004C87FF1F70B5112043
:102A600082B006F039FA012818D0122006F034FAA4
:102A7000012813D000210B2006F028FA00210C2099
:102A800006F024FA0021152006F020FA2C492D4BDF
:102A90000120002208701A6002B070BD01211520CB
:102AA00006F014FA284A294D294B1268D5F89410DB
:102AB00001921B68019A234C0B4493424FF0020190
:102AC000216005D901210C2006F000FA02B070BD8A
:102AD000204B1E68002130460AF02EF8D8B1D5F8F8
:102AE0009C001A4D09F018FE31460AF007F800283C
:102AF000E8D101210B2006F0E9F995F8C030032256
:102B000022605BB10E4B02221A7000210C2006F0ED
:102B1000DDF902B070BD06F10046E0E7112006F0D5
:102B2000DBF9012808D0122006F0D6F90128ECD1F3
:102B3000034B03221A70E8E7014B02221A70F2E7F6
:102B40007494FF1F3095FF1F74B7FF1FFC92FF1F87
:102B50003895FF1FB092FF1FF0B56D4E6D4D346874
:102B60002B689C4287B03AD014F0010156D014F083
:102B700002014AD014F004013ED0E3070FD52B68C0
:102B8000DF070CD4644F3A68002A00F09E80634B44
:102B90001B680193019B934200F289803468A0076F
:102BA0000DD52B6899070AD45D4F3A68002A3ED0AC
:102BB0005A4B1B680393039B93425AD834686207AD
:102BC0000DD52B685B070BD4564F3A68002A3FD0CF
:102BD000524B1B680593059B934258D834680CB13F
:102BE00007B0F0BD2146162005F0F0FF2146172062
:102BF00005F0ECFF07B0F0BD052005F0E7FF2B68FE
:102C0000346803F0FB032B60B7E7172005F0DEFF05
:102C10002B68346803F0FD032B60ABE7162005F04A
:102C2000D5FF2B68346803F0FE032B609FE73E4B13
:102C30001B68002B56D1FF21172005F0C7FF374B2B
:102C40003A4A19680291029912680A443A60B0E758
:102C5000354B1B68002B50D1FF21052005F0B6FF36
:102C60002E4B324A19680491049912680A443A605A
:102C7000AFE72F4B1720D3F8981005F0A7FF2B686C
:102C8000346843F0020300222B603A6097E7284B38
:102C90000520D3F8981005F099FF2B68346843F0AD
:102CA000040300222B603A60002C99D19AE7204B54
:102CB0001620D3F8981005F089FF2B68346843F08C
:102CC000010300222B603A6069E7FF21162005F01E
:102CD0007DFF124B154A19680091009912680A4449
:102CE0003A6055E7134808F017FA0C21124807F02C
:102CF00083FF104808F010FA9DE70E4808F00CFA20
:102D00000C210E4807F078FF0A4808F005FAA3E7FF
:102D10003095FF1FCC93FF1F4C94FF1F74B7FF1F0C
:102D20005094FF1F5494FF1F4C87FF1F6C87FF1F99
:102D3000FC92FF1FEC87FF1F80130100901301001E
:102D40002DE9F047534EDFF870813368DFF86C915E
:102D5000D3F88400504D0F2105F02AFB00230122F7
:102D600022214E48C8F80030C9F8002007F044FF7F
:102D7000D8F80030132B20DC40F6E4473368B5F870
:102D800084A0D3F88400436B1C6905F093F8A4B2C7
:102D9000012107FB04F4B4FBF0F441485444A5F8C6
:102DA000844007F029FF642006F0CCF8D8F8003002
:102DB0000133132BC8F80030E0DDB5F88430394A10
:102DC0003948A2FB03129B1A02EB5303C3F30F1300
:102DD0001946A5F8843008F0EFF91D21334807F0B3
:102DE0000BFF0221324807F007FF2F4808F094F943
:102DF00000231A460E213068C8F8003004F0D4FFD2
:102E0000022322212548C9F8003007F0F5FED8F842
:102E10000030132B20DC40F6E4473368B5F8869089
:102E2000D3F88400436B1C6905F044F8A4B2012177
:102E300007FB04F4B4FBF0F419484C44A5F88640B1
:102E400007F0DAFE642006F07DF8D8F80030013390
:102E5000132BC8F80030E0DDB5F88630114A12486F
:102E6000A2FB03129B1A02EB5303C3F30F13194681
:102E7000A5F8863008F0A0F91D210E4807F0BCFE29
:102E800002210B4807F0B8FE0748BDE8F04708F0FC
:102E900043B900BF0C95FF1FFC92FF1FA013010058
:102EA000E413010087611886EC87FF1FC41301003B
:102EB00084140100E8130100AC92FF1F5487FF1F28
:102EC000F8B5804B804C814D1B68286D40F2513124
:102ED00008222160E271002B00F0E28009F01CFC66
:102EE000296A064609F06CFC794909F069FC09F089
:102EF00053FE80B203126372764A774B12681B68E6
:102F0000A96920721512A37230461B12E372227354
:102F1000657309F055FC6E4909F052FC09F03CFE5E
:102F200083B21A1268496D48A373E27304F094FDEA
:102F30006B4B6C4A1B6812886349A272DFB207EBC5
:102F4000870503EB83066D0046F3D71612121B129A
:102F50002772257366730825002640F255375F48AF
:102F6000E27263722760E571A673E67304F074FD84
:102F700040F256335C482360E571FDF799FD5B49EB
:102F800009F01EFC09F008FE20725748FDF790FD7D
:102F9000564909F015FC09F0FFFD554A5349C0F3A5
:102FA00007231068637209F0BFFC09F0CFFD40FAF7
:102FB00005F203464C48E272A372FDF7A9FD4449AD
:102FC00009F0FEFB09F0C2FD20734748FDF7A0FDA4
:102FD0003F4909F0F5FB09F0B9FD3B49A67340F301
:102FE00007233E486373E67304F036FD022005F0C4
:102FF000A9FF404A404B17785678D178187892F854
:1030000002E02772DA785F786672E1729E78207348
:1030100040F25A332C493148E57184F80AE067736D
:10302000A673E273236004F017FD344B2649187829
:103030005E789A782072187993F803E05F79667267
:10304000A2729E79DA79207340F25E33234884F8C5
:103050000BE0E2732360E5716773A67304F0FCFC78
:10306000022005F06FFF264BE5711E785A7893F821
:1030700002E0D8781F799D79267262725E79DA79DA
:10308000E0724FF45C7384F80AE027736673A573EB
:10309000E27323600C491148BDE8F84004F0DCBC41
:1030A00009F03AFB174B06461B68174880FB0320C4
:1030B000DB17C3EB601009F02FFB696909F080FB97
:1030C00031460FE79892FF1F2095FF1FFC92FF1FCC
:1030D000000020410495FF1F7C92FF1FCCB5FF1F0D
:1030E0003887FF1F3C87FF1FA495FF1F0000C842C1
:1030F000B092FF1FF892FF1FD093FF1F2C87FF1F76
:103100005887FF1F6887FF1F1F85EB5170B50A485E
:10311000FDF786FD094B0A480325022400224FF4DF
:103120000076DD711C725A729A721E601946BDE8F3
:10313000704004F091BC00BFA495FF1F2095FF1FB5
:10314000CCB5FF1FF8B5194C002204F10805234641
:1031500003F8012FAB42FBD1154E164808234FF45C
:1031600040723146F371326004F076FC002304F8BB
:10317000013FAC424FF00007F9D14FF444720523F0
:103180000B490C483260F3714FF4007404F064FC96
:10319000022303227772B7723460F27133720449EA
:1031A0000448BDE8F84004F057BC00BF2795FF1F56
:1031B0002095FF1FCCB5FF1F38B5164C164A236863
:1031C000101D12F8011F904241EA0323F9D1236038
:1031D000124C03F100432360114BDB6F022B11D023
:1031E000104B1B68012B00D038BD0F4807F094FF2F
:1031F00021680D4807F0E0FF03210C48BDE8384086
:1032000007F0FABC20680A4D09F086FA2860FEF73C
:10321000B3FFE5E75894FF1FC792FF1FFC94FF1F01
:10322000FC92FF1F4894FF1FEC87FF1F141401003E
:103230009492FF1F30B53C4C3C4883B0214604F0CB
:1032400003FB236840F2C232934252D0A3F58C6252
:103250001F2A48D9A3F5FC630F2B3FD9344B1B68B9
:10326000012B01D003B030BD324B1B68012BF9D1CB
:10327000314B32481B6801930A220023019907F061
:103280005BFF2268284B002ADB7945DB2C492D485F
:103290000AF05EFA2B480AF093FA0146294807F033
:1032A000ABFC2568204B15F0804526D1DB798BB12E
:1032B000631925491A7A23480AF04AFA21480AF084
:1032C0007FFA01461F4807F097FC0135E379EDB21C
:1032D000AB42EDD8194807F01FFFC3E712491B485E
:1032E000FDF730FBBAE710491848FDF72BFB2368C0
:1032F000B0E7FFF761FF2368A8E7154D114C0FCD2C
:103300000FC495E8030044F8040B204620F8141974
:10331000152107F071FCDDE70E490A4822F06042F2
:103320000AF016FAB6E700BFC092FF1FCCB5FF1F28
:103330004C87FF1F4894FF1F74B7FF1FEC87FF1FC8
:10334000401401007894FF1F6C140100A495FF1F26
:103350005414010018140100A24B1B78052B00F037
:10336000A1802DE9F04FA04CA04EA14D626EE36DFF
:10337000A048326083B02B60FDF728FCE16A09F0B9
:10338000BDFB08B100232B609A48FDF71DFCA16A24
:1033900009F0D2FB10B1002333602B609548FDF794
:1033A00061FBE16809F0C8FB08B100232B6091487C
:1033B000FDF758FBE16809F0BFFB08B100232B6063
:1033C0008C48894FFDF726FB216909F097FB0028FF
:1033D0006ED0002333602B68854F002B53DD85486A
:1033E000DFF80482FDF7F0FB216B09F087FB002872
:1033F00040F0C480804B7F481B687B4F012B00F05E
:10340000FD80FDF72FFBE1698046606909F0CEF889
:103410000146404609F090FB002834D0286809F0A6
:103420007BF982467348FDF71DFBD7F8148083466D
:10343000F969404609F0BAF88146386E09F06CF92E
:103440000446F86D09F068F9214609F0AFF84946DD
:103450000746584609F0AAF80146384609F0B0F97F
:1034600049460746404609F0A1F80146384609F0AA
:103470005BFA214609F09CF80146504609F096F89F
:1034800009F064FB28603368584A002BAFBF2B68F3
:103490002B6800211160002B01DA00232B6003B0A0
:1034A000BDE8F08F5149524A00230B60136070470A
:1034B0005048FDF7AFFAB96909F020FB002888D120
:1034C0003368DFF82891002B85DD4A48FDF77EFB45
:1034D000796B09F031FB002840F0B3804548424F3A
:1034E000FDF798FA216909F027FB002800F09F807A
:1034F0004048DFF8F480FDF78DFAD4F8BC10074699
:10350000A06909F055F80146384609F0F7FA002895
:103510003FF461AF306809F0FFF882463548FDF7A7
:1035200079FA8346D8F86400D8F8187009F0F4F8EE
:1035300039468146584609F039F849468346002005
:1035400009F034F80146584609F03AF9D8F8BC10A9
:103550008346384609F02CF8394609F027F8014629
:10356000584609F0E1F9494609F022F8014650466B
:1035700009F01CF809F0EAFA30602CE7386809F025
:10358000CBF883461B48FDF71FFB0190D8F85C0081
:10359000D8F82CA009F0C0F8019B81465146184686
:1035A00009F004F849460190002008F0FFFF019B54
:1035B0000146184609F004F951460190D8F8300048
:1035C00008F0F4FF019B0146184609F0ADF94946A1
:1035D00008F0EEFF0146584608F0E8FF09F0B6FA99
:1035E000386007E77494FF1FFC92FF1F0495FF1FCC
:1035F0007C92FF1FA495FF1F9892FF1FFDF732FAE0
:10360000E1698046206A08F0D1FF0146404609F092
:1036100093FA00283FF437AF286809F07DF8824616
:103620001E48FDF71FFAD7F82080834600E71B48A5
:10363000FDF7F0F9B96909F07FFA00287FF458AF77
:10364000C9E6D9F8000009F067F882461348FDF78B
:10365000BDFA0190786ED7F8348009F05DF8019BCF
:1036600083464146184608F0A1FF0146584609F036
:10367000A7F841468346B86A08F098FF01465846C5
:1036800009F052F9002108F093FF0146504608F076
:103690008DFF09F05BFAC9F800001FE7A495FF1F32
:1036A00008B5274807F038FD0721264807F0A4FA97
:1036B000112005F011FC0621F8B1234807F09CFA0F
:1036C000122005F009FC062100B3204807F094FA07
:1036D000122005F001FC062108B31D4807F08CFA02
:1036E000132005F0F9FB062110BB1A4807F084FAF5
:1036F0001348BDE8084007F00FBD174807F07CFAF3
:10370000122005F0E9FB06210028DED1134807F05E
:1037100073FA122005F0E0FB06210028DDD11048E5
:1037200007F06AFA132005F0D7FB06210028DCD049
:103730000C4807F061FA0248BDE8084007F0ECBC0D
:10374000EC87FF1F78140100801401009014010021
:10375000A0140100B814010088140100981401009D
:10376000A8140100B014010010B5254C2368042BE7
:1037700027DC01210B2005F0A9FB01210C2005F01D
:10378000A5FB0121142005F0A1FB0121152005F066
:103790009DFBFF21162005F019FAFF21172005F0E7
:1037A00015FAFF21052005F011FAFF21062005F08A
:1037B0000DFA236801330A2B2360C4BF0023236062
:1037C00010BD00210B2005F081FB00210C2005F02D
:1037D0007DFB0021142005F079FB0021152005F068
:1037E00075FB0021162005F0F1F90021172005F0E6
:1037F000EDF90021052005F0E9F90021D6E700BF29
:103800001C95FF1F08B5FF2005F024FEFF2005F0E2
:1038100021FEFF20BDE8084005F01CBE70B582B057
:1038200005F0F2FE022801DC02B070BD05F0FCFEDE
:10383000C0B22328F8D12E4C05F0F6FE2368009381
:10384000009EC5B207E023680193019B9B1B642B7C
:10385000EAD805F077FB05F0D7FEA8424FF001004B
:10386000F1DB05F0E1FEC0B201380328DCD8DFE867
:1038700000F02311090205F0D7FE0028D4D11D4B1A
:103880001860D1E705F0D0FE0028CDD11A4B1B4AB5
:103890001A60C9E705F0C8FE194C2368F0B9013B6E
:1038A00023600A21174805F02DFE2168164807F00D
:1038B00083FCFFF7A7FFB7E705F0B6FE134CE36DF7
:1038C00090B90A3BE3650A21114805F01BFEE16D42
:1038D0000D4807F071FCFFF795FFA5E70133642B56
:1038E000C8BF64232360DCE70A33E365EBE700BF6E
:1038F00074B7FF1F9092FF1F0CED00E00400FA0563
:103900006887FF1FCC140100C087FF1FFC92FF1FB8
:10391000C01401002DE9F041122182B07648774CA5
:10392000774E05F0EFFD774B0A22197820460023E9
:1039300007F002FCFFF766FF0821734805F0E2FD7F
:10394000724B2046196807F037FCFFF75BFF0C212C
:103950006F4805F0D7FD6F4B6F49186808F0E4FF1A
:1039600008F084FA002502460B460095204607F031
:103970002BFCFFF747FF0921684805F0C3FD3046DF
:10398000FDF7C6F808F072FA009502460B4620468D
:1039900007F01AFCFFF736FF0C21614805F0B2FD75
:1039A0003046FDF713F908F061FA009502460B4620
:1039B000204607F009FCFFF725FF0D21594805F0C7
:1039C000A1FD3046FDF700F908F050FA00950246D7
:1039D0000B46204607F0F8FBFFF714FF0921524879
:1039E00005F090FD3046FDF763F8504908F0E8FE19
:1039F00008F03CFA009502460B46204607F0E4FB2F
:103A0000FFF700FF0C214A4805F07CFD3046FDF72A
:103A100001F8484908F0D4FE08F028FA009502465B
:103A20000B46204607F0D0FBFFF7ECFE0D21424885
:103A300005F068FD3046FDF715F83E4908F0C0FE78
:103A400008F014FA009502460B46204607F0BCFB2E
:103A5000FFF7D8FE0E21394805F054FD3046FDF73A
:103A600001F880463046FCF7D5FF3249074640460C
:103A700008F0A6FE2F490646384608F0A1FE01468A
:103A8000304608F093FD08F0F1F9009502460B4628
:103A9000204607F099FBFFF7B5FE0C21284805F0FA
:103AA00031FD284B2046197807F086FBFFF7AAFE68
:103AB0000921254805F026FD244B2046196807F00A
:103AC0007BFBFFF79FFE0A21214805F01BFD214BE0
:103AD0002046D96D07F070FBFFF794FE0A211E48BF
:103AE00005F010FD1D4B2046196807F065FB02B07C
:103AF000BDE8F041FFF786BED8140100C087FF1F64
:103B0000A495FF1F7494FF1FEC1401003887FF1F5A
:103B1000F8140100B092FF1F0000C8420815010010
:103B20001415010024150100341501000000204186
:103B30004015010000007A44501501006015010095
:103B4000701501001495FF1F801501002487FF1FC9
:103B5000C0140100FC92FF1FCC1401006887FF1FF6
:103B60002DE9F047B64DD5F8B030042B4ED0032BDD
:103B700000F08E80012B00F0C680022B01D0BDE842
:103B8000F087B04CB048237240F20E320123214638
:103B90002260E37103F060FFAC4B1B685B00FF2BFE
:103BA000C8BFFF236372AA4B4FF4417020601B68AB
:103BB000A84840222272042180FB0320DB17C3EBBC
:103BC0006010E17108F0A8FD696908F0F9FD06468A
:103BD000286D08F0A1FD0146304608F0F1FD9E4930
:103BE000054608F0A9FF002800F021812946284653
:103BF00008F0DEFC08F0D0FF80B20312E072A3727E
:103C000090499148BDE8F04703F026BF904B8D4C9A
:103C10001B689048A2799149216080FB0310DB1753
:103C20000821C3EB601042F00103A371E17108F0B9
:103C300073FD696908F0C4FD0646286D08F06CFD47
:103C40000146304608F0BCFD854908F0B9FD08F092
:103C5000A3FF7E4B834A1B68126893FBF2F380B28A
:103C600000261A120712607221467748E372A27288
:103C7000277226736673A673E67303F0EDFEA279CE
:103C8000D5F8B03066F30002032BA2717FF472AF57
:103C90006F4A704812686B4C80FB0210D2170121EA
:103CA000C2EB601040F2FF27E8220726A37262727F
:103CB0002760E671217208F02FFD696908F080FD28
:103CC0000646286D08F028FD0146304608F078FDCC
:103CD000634908F075FD08F05FFF5C4B614A1B68A3
:103CE000126893FBF2F382B21E1217122146564855
:103CF0006373E2722773A67303F0AEFED5F8B0309B
:103D0000012B7FF43AAF584B4E4C1B6823600722BF
:103D100080231020E271237205F0DEF8002840F0C5
:103D20008D80524B1B68DFF828814A48474F4D4E23
:103D3000DFF81091316803EB83035B001A126272A3
:103D4000D8F80020A3723B6893FBF1F380FB0210CC
:103D5000D217C2EB60101A126273A37308F0DCFC76
:103D6000696908F02DFD8246286D08F0D5FC0146F2
:103D7000504608F025FD3E4B196808F017FC3849FD
:103D800008F01EFD08F008FF80B2031249462073B8
:103D90002D48E37203F060FE022005F0D3F8354BA6
:103DA0001B682360072280231020E271237205F034
:103DB00093F8002840D12D4B1B6803EB83035B0075
:103DC0001A1289F80A3089F80920D8F80030214AF7
:103DD000D81782FB0323C0EB631008F09DFC6969D0
:103DE00008F0EEFC8046286D08F096FC014640463F
:103DF00008F0E6FC204B196808F0D8FB184908F0D9
:103E0000DFFC08F0C9FE82B24FEA222E30683B6820
:103E1000227393FBF0F30B490B48A3731A1284F837
:103E20000BE0627303F018FED5F8B030A5E601226E
:103E30009023A272E372E3E6104BBDE70F4B71E7EC
:103E4000FC92FF1F2095FF1FCCB5FF1F7C92FF1F28
:103E50006887FF1F1F85EB5100004843F4E50618F3
:103E6000000020415087FF1F6487FF1F4487FF1F0A
:103E7000D493FF1F3487FF1FB892FF1F4887FF1F8F
:103E800038B5164D164A1748294604F06DFB18B18F
:103E9000154B1B68012B00D038BD12211348144C60
:103EA00006F0AAFE296813480023102207F044F9FF
:103EB000104807F031F904F1080514F8011F0D4806
:103EC00000230A2207F038F9092006F019FFA5425D
:103ED000F3D10848BDE8384007F01EB9A092FF1F93
:103EE000A492FF1F4095FF1F3C95FF1F8C150100FA
:103EF000A392FF1FEC87FF1FFA2810B504461BD0C2
:103F0000B0F5FA7F0FD11021134804F0E3FBC8B1DC
:103F10000F21124806F070FE114807F0FDF8114B12
:103F2000A3F8C44010BD0F210F4806F065FE0C48F1
:103F3000BDE8104007F0F0B80F21074804F0CAFBB5
:103F40000028E5D11121094806F056FE0448BDE8D5
:103F5000104007F0E1B800BF4095FF1FA015010019
:103F6000EC87FF1FFC92FF1FC4150100B015010074
:103F70002DE9F04FBF4B1B78032B83B00DD0BE4D06
:103F80002C68022C00F0AE800134022C2C6001DD84
:103F900000232B6003B0BDE8F08FB84FB64DD7F8C3
:103FA000B060042E00F0C080032E00F0B780012E18
:103FB00000F00481022E48D12C68DFF8BC92002C5E
:103FC00000F0D781012CDCD1DFF8B882AC4BAD4AD0
:103FD0001B68AD485B00FF2BC8BFFF235370AB4B82
:103FE0001B6880FB0320DB17C3EB6010402188F8BF
:103FF000001008F091FB796908F0E2FB0446386D87
:1040000008F08AFB0146204608F0DAFBA049044686
:1040100008F092FD002800F024822146204608F096
:10402000C7FA08F0B9FD80B2031288F8030088F8D7
:104030000230042200238DE804014FF441711A4636
:10404000944804F05DFAD7F8B060062E6AD18F4B21
:104050008D481B68904C80FB0320DB170022082151
:10406000C3EB60105026DC23227263722660E1717C
:1040700008F052FB796908F0A3FB0646386D08F09A
:104080004BFB0146304608F09BFB8149074608F090
:1040900053FD002840F016810722D023A272E3725C
:1040A000774B7D4E18680023237308F035FB3946A3
:1040B00008F086FB7949074608F020FD002800F04B
:1040C0000C817749384608F02FFC08F065FD80B276
:1040D0000312B073737301236F497248E37303F0E3
:1040E000BBFC1FE0654B93F8CC0000283FF450AFB9
:1040F000644EA023337008F00FFB6B4908F060FB9F
:1041000008F04AFD002370701A468DE850004FF405
:10411000EA71604804F0F4F92C6835E72C68002C4B
:1041200000F0DF802C682CE72C68002CFAD1DFF837
:104130005CA15548DAF80030DFF84881DFF840919B
:104140005A4E80FB0320DB17C3EB601008F0E4FA43
:10415000796908F035FB8246386D08F0DDFA0146D2
:10416000504608F02DFB524908F02AFB08F014FDD8
:10417000CDF8048080B2D9F80030366893FBF6F6AB
:10418000021208234FEA262E009388F8002088F8B0
:1041900001002346012247493E4888F8036088F819
:1041A000044088F8054088F8064088F8074088F8F9
:1041B00002E004F0A5F9D7F8B060F5E62B68002B13
:1041C00000F0F280012BADD1DFF8C0A0DFF8B480A1
:1041D000DFF8AC90354E2B4C8023102088F800304F
:1041E00004F07AFE002840F04381334B1B682648D8
:1041F00003EB83035B001A12A370DAF800306270DD
:1042000080FB0320DB17C3EB601008F085FA7969A7
:1042100008F0D6FA0446386D08F07EFA01462046CA
:1042200008F0CEFA254B196808F0C0F9204908F0CB
:10423000C7FA08F0B1FC224AD9F800301168346896
:1042400093FBF4F480B2072200230092021288F854
:104250000400261288F80320CDF804801A460D4881
:1042600088F8056088F8064004F04AF9D7F8B0608D
:10427000A0E600BF7494FF1FD893FF1FFC92FF1F9E
:104280007C92FF1FA492FF1F1F85EB516887FF1FC1
:10429000000048434095FF1F2095FF1F00404E45FA
:1042A00000007043CCB5FF1F5C8FA23F5087FF1FFB
:1042B00000002041F4E506184487FF1FB892FF1F55
:1042C0003487FF1F6B49384608F07AFA08F064FC1F
:1042D00080B20312E072A372E2E696237073B373A6
:1042E000F9E6DFF8B4A16448DAF80030DFF8AC8111
:1042F000DFF8AC9188F8026080FB0320DB17012215
:10430000C3EB6010E82388F8002088F8013008F03B
:1043100003FA7969594E08F053FA8246386D08F06D
:10432000FBF90146504608F04BFA524908F048FAAA
:1043300008F032FC80B2CDF8048001120722D9F8CF
:104340000030366888F8030093FBF6F600924FEAD7
:10435000262E88F804102346224640F2FF214848C2
:1043600088F8056088F806E004F0CAF8D7F8B0606D
:104370001DE6DFF82881CDF804800423009322464F
:10438000234640F20E313E4888F8006088F801402C
:1043900088F8024088F8034004F0B2F8D9F80030F9
:1043A000012B7FF450AE11E6DFF8F080802310205F
:1043B00088F8003004F090FD002850D1314B1B6884
:1043C000DFF8D4A02C48DFF8D8902C4E2E4C316862
:1043D00003EB83035B001A1288F80120DAF800204F
:1043E00088F80230D9F8003093FBF1F380FB02101B
:1043F000D217C2EB6010191288F8063088F8051041
:1044000008F08AF9796908F0DBF98346386D08F01D
:1044100083F90146584608F0D3F91C4B196808F097
:10442000C5F8144908F0CCF908F0B6FB184BCDF8E4
:104430000480196880B2002307224FEA202E0092E0
:1044400088F804001A460E4888F803E004F058F88B
:104450002B68012B3FF4BFAED4F8B060AAE50D4B3A
:10446000ADE70122902388F8022088F80330E0E5C8
:10447000084BBBE6000020411F85EB515087FF1F12
:104480004095FF1F4487FF1FFC92FF1FD493FF1F1F
:104490006487FF1F4887FF1F6887FF1FA492FF1FC5
:1044A0007C92FF1F10B504F0E3F90B48FCF7EEF91E
:1044B0000A48FDF739FA0A4A0A481268002301211E
:1044C00003F09EFF942006F0C5FF044603F03EFC77
:1044D000054B1C6010BD00BFA495FF1FE893FF1F94
:1044E0004087FF1FD492FF1F0C95FF1FF0B54FF4BC
:1044F0007A6085B004F026FD0021112004F0FAFC5A
:104500000021102004F0F6FC0021122004F0F2FC3F
:104510000021132004F0EEFC01210B2004F0EAFC42
:1045200001210C2004F0E6FC0121142004F0E2FC3F
:104530000121152004F0DEFC0121162004F0DAFC34
:104540000121172004F0D6FC0121052004F0D2FC43
:104550008E4C8F4D0121062004F0CCFC01210D2052
:1045600004F0C8FC208808F0D3F80146162004F0B7
:104570002BFC208808F0CCF80146172004F024FC1E
:10458000208808F0C5F80146052004F01DFC2088AD
:1045900008F0BEF800240146062004F015FC009443
:1045A00023467C4A7C497D4803F05EF8E6B23246F9
:1045B00077497A4803F006F82B79754977486FF305
:1045C0000003013432462B7102F0F2FF082CEDD1CA
:1045D0000924E6B232466E49704802F0F3FF2B79A7
:1045E0006B496E4843F00103013432462B7102F0EF
:1045F000DFFF0D2CEDD16A4C23681021D3F8840025
:1046000003F004FD23681021D3F8840003F092FD29
:1046100023680221D3F8840003F04EFC23680221B2
:10462000D3F8840003F0D6FD23680F21D3F884006B
:1046300003F0BEFE0C215B4806F0DEFA5A4806F095
:104640006BFD1621594806F0D7FA574806F064FD6D
:104650004FF4E131564806F0FFFB534806F05CFD8D
:104660001721544806F0C8FA4F4806F055FD524B42
:104670001B789A0600F1BC804F4B1B781B0700F19A
:10468000C3804D4B1B785F0700F1CA804A4B1B78F3
:104690009E0700F1D180494B1B781D0600F1D880A0
:1046A000464B1B785C0600F1DF80444B1B78980674
:1046B00000F1E680414B1B78590700F1ED803F4B3C
:1046C0001B781A0700F1F4803C4B1B789B0700F124
:1046D000FB80354806F020FD72B6394A4CF2205076
:1046E0004DF62811108020231180013BFDD1354C5F
:1046F0003548364900234FF48055258003800B80D0
:1047000032F80E3C9BB243F0D30322F80E3C62B663
:1047100018212F482F4D06F06FFA234806F0FCFCB5
:1047200005F1D0062F462C46601B04F0E9F804F88A
:10473000010BB442F8D13B78122B01D0FDF70AF9F6
:10474000D7F8C810244806F037FC0420FCF7C8FF4F
:10475000224B002201210D201A6004F0B7FB796D75
:104760001F48FCF7A7F97A6C97F840101C48FCF733
:10477000A3F91C4B1C491A68039203981B68029307
:10478000029A1A4B08601A6005B0F0BD2887FF1F17
:10479000DC93FF1F68B7FF1F48E80100CCB5FF1F7F
:1047A0000C95FF1FD4150100EC87FF1FE4150100D5
:1047B000C087FF1FFC15010001F0074000F0074013
:1047C0000E20054004200540062005401620054027
:1047D00000170100FC92FF1FD487FF1F8892FF1F64
:1047E000A495FF1F74B7FF1F3895FF1FE493FF1FA9
:1047F0002121394806F000FA384806F08DFC384B84
:104800001B781B077FF53DAF0C21364806F0F4F905
:10481000324806F081FC324B1B785F077FF536AFDC
:104820000E21314806F0E8F92C4806F075FC2C4BB7
:104830001B789E077FF52FAF17212C4806F0DCF977
:10484000264806F069FC2A4B1B781D067FF528AF29
:104850000E21284806F0D0F9204806F05DFC244BD4
:104860001B785C067FF521AF1221234806F0C4F9BE
:104870001A4806F051FC1E4B1B7898067FF51AAFBC
:1048800013211E4806F0B8F9144806F045FC184BF1
:104890001B7859077FF513AF1C21194806F0ACF9B6
:1048A0000E4806F039FC124B1B781A077FF50CAF47
:1048B0001921144806F0A0F9084806F02DFC0C4B0D
:1048C0001B789B077FF505AF18210F4806F094F978
:1048D000024806F021FCFCE614160100EC87FF1FDD
:1048E00001F0074038160100481601005816010073
:1048F00000F00740701601008016010094160100B8
:10490000A8160100C8160100E416010010B5014602
:10491000044600230A221A4806F00EFC184806F046
:10492000FBFBB4F5964F28D019D9B4F5164F14D027
:10493000B4F5E13F18D10421124803F0EDFE124B0B
:10494000C3F8C84005F018F92146104806F034FBBA
:104950000C48BDE8104003F0ADBE0221ECE7B4F511
:10496000165F01D10021E7E70F21094806F044F95D
:104970000348BDE8104006F0CFBB0121DCE700BFD3
:10498000EC87FF1F4095FF1FFC92FF1FD487FF1F7E
:104990001C170100F0B5954C954D83B006F0C6F894
:1049A00023682860042B00F09E82022B29D0092B5B
:1049B00070D0082B40F09680322800F0EC837128EC
:1049C00000F09D80312840F09E8006F0EBF8002832
:1049D00040F311878748884E06F030FDC0B286F854
:1049E0004000022894BF01460021726C834888BFB2
:1049F00086F84010FCF760F80123692023602860E6
:104A000018E3A0F13102422A7DD8DFE812F07F07D7
:104A10008B079907AB07F50704087C0011087C0099
:104A20007C007C007C007C007C007C007C007C00A6
:104A30007C007C007C007C007C007C007C007C0096
:104A40007C007C007C007C007C007C007C007C0086
:104A50007C007C007C007C007C007C007C007C0076
:104A60007C007C007C007C007C007C007C007C0066
:104A70007C0079077C007C007C007C007C007C0052
:104A80007C007C007C007C007C007C007C0078004A
:104A90007C001E08332801F04C8410DC312801F022
:104AA0007A8432282FD10123236006F07BF8002876
:104AB00015DD504806F0C2FCFFF71EFA0FE034285F
:104AC0001BD10123236006F06DF8002807DD49485B
:104AD00006F0B4FC642303FB00F0FFF717FF782017
:104AE00023682860072B40F0AB80332801F02A842C
:104AF00040F38682342801F05C84712803D10023BE
:104B0000732023602860732808BF002B0CBF01208E
:104B10000020002867D0374806F0FEFA0421384804
:104B200006F06AF8334806F0F7FA1021354806F027
:104B300063F8304806F0F0FA1321334806F05CF8C9
:104B4000324B2C48196806F037FB2A4806F0E4FA85
:104B500014212F4806F050F8264806F0DDFA1E21F1
:104B60002C4806F049F8234806F0D6FA15212A48C1
:104B700006F042F81F4806F0CFFA1E21274806F03B
:104B80003BF81C4806F0C8FA2021254806F034F806
:104B9000184806F0C1FA1921224806F02DF81548E8
:104BA00006F0BAFA1621204806F026F8114806F059
:104BB000B3FA12211D4806F01FF80E4806F0ACFAB1
:104BC0000F211B4806F018F80A4806F0A5FA0D2137
:104BD000184806F011F8074806F09EFA164A002118
:104BE00001231160236003B0F0BD00BF6094FF1F7C
:104BF0007892FF1FEC87FF1FFC92FF1FA495FF1FF9
:104C00004C20010054200100682001002487FF1F70
:104C10007C20010094200100B4200100CC20010080
:104C2000EC200100102101002C2101004421010091
:104C300058210100682101004C87FF1F2368286864
:104C4000062B40F08D80A0F13102402A3FF65BAF89
:104C500001A151F822F000BF9D5800000958000042
:104C600033580000595800007F580000C958000010
:104C7000ED580000074B0000074B0000074B0000F9
:104C8000074B0000074B0000074B0000074B0000DC
:104C9000074B0000074B0000074B0000074B0000CC
:104CA000074B0000074B0000074B0000074B0000BC
:104CB000074B0000074B0000074B0000074B0000AC
:104CC000074B0000074B0000074B0000074B00009C
:104CD000074B0000074B0000074B0000074B00008C
:104CE000074B0000074B0000074B0000074B00007C
:104CF000074B0000074B0000074B0000074B00006C
:104D0000074B0000074B0000074B0000074B00005B
:104D1000074B0000074B0000074B0000074B00004B
:104D2000074B0000074B0000074B0000074B00003B
:104D3000074B0000074B0000074B0000074B00002B
:104D4000074B0000074B0000074B0000074B00001B
:104D5000074B0000074B0000FF4A0000236828684B
:104D6000052B15D1332801F04C8340F39181352870
:104D700001F03183C1F2568371287FF4C4AECF4A6B
:104D800000237320136023602860BCE62368286832
:104D9000032B40F0A480A0F13002422A3FF6B3AECC
:104DA00001A151F822F000BFB54E0000AF61000034
:104DB000D76100001B6100003D6100005F610000E1
:104DC0008761000039600000576000007B600000D0
:104DD000074B0000074B0000074B0000074B00008B
:104DE000074B0000074B0000074B0000074B00007B
:104DF000074B0000074B0000074B0000074B00006B
:104E0000074B0000074B0000074B0000074B00005A
:104E1000074B0000074B0000074B0000074B00004A
:104E2000074B0000074B0000074B0000074B00003A
:104E3000074B0000074B0000074B0000074B00002A
:104E4000074B0000074B0000074B0000074B00001A
:104E5000074B0000074B0000074B0000074B00000A
:104E6000074B0000074B0000074B0000A360000049
:104E70005F5B0000FD600000C1600000DF600000BB
:104E8000B75F0000155B0000395B0000074B0000B6
:104E9000074B0000074B0000074B0000074B0000CA
:104EA000074B0000074B0000074B00002D6000007F
:104EB0000D60000005F076FE002841F33382804843
:104EC000804E06F0BBFA01270346014662227E4867
:104ED000736527602A60FBF7EDFD23682868012BC6
:104EE0007FF411AEA6E0A0F13002412A3FF60BAEEE
:104EF00001A151F822F000BFF95A0000115B000037
:104F00005B5A0000735A0000995A0000DD5A0000F5
:104F1000A15A0000B35A0000B75A0000BB5A000063
:104F2000074B0000074B0000074B0000074B000039
:104F3000074B0000074B0000074B0000074B000029
:104F4000074B0000074B0000074B0000074B000019
:104F5000074B0000074B0000074B0000074B000009
:104F6000074B0000074B0000074B0000074B0000F9
:104F7000074B0000074B0000074B0000074B0000E9
:104F8000074B0000074B0000074B0000074B0000D9
:104F9000074B0000074B0000074B0000074B0000C9
:104FA000074B0000074B0000074B0000074B0000B9
:104FB000074B0000074B0000074B00009D5A000004
:104FC000074B0000074B0000074B0000074B000099
:104FD000074B0000074B0000074B0000074B000089
:104FE000074B0000074B0000074B0000074B000079
:104FF000074B0000074B0000074B0000FF4A000072
:10500000312801F0B28132287FF47DAD05F0CAFD70
:1050100000287FF713AE2A482A4E06F00FFA07F051
:105020007BFB2A4907F0CCFB61230122F06322605D
:105030002B601846A0F15203262B01F26A81DFE8AB
:1050400013F0DE08680968096809680968096809D1
:1050500068096809680968096809680968096809C8
:10506000C1004C0B88022503A5016809680968097D
:105070003A026809490B68096809680968096809FA
:10508000E308680968096809680968096809350159
:10509000312801F0D58132287FF435AD05F082FD4D
:1050A00000287FF773AE0648064E06F0C7F90122C6
:1050B0006B23C6F89C0022602B600BE0D092FF1F90
:1050C000EC87FF1FFC92FF1FA495FF1F6F12833A0E
:1050D00005F02CFD05F066FD0028F9D1914806F099
:1050E0001BF8904806F018F88E4806F015F88D4821
:1050F00006F012F88B4806F00FF821218A4805F0D7
:105100007BFD884806F008F81521884805F074FDF5
:10511000D6F89410834806F04FF80221844805F031
:105120006BFD804805F0F8FF1E21824805F064FD04
:10513000D6F89C107B4806F03FF803217E4805F026
:105140005BFD784805F0E8FF1E217C4805F054FD22
:10515000D6F89810734806F02FF8724805F0DCFF77
:105160001D21774805F048FDD6F8A4106D4806F0DB
:1051700023F86C4805F0D0FF1E21724805F03CFD75
:10518000D6F8A810674806F017F8664805F0C4FF7F
:105190000523236027E505F005FD002840F3308353
:1051A0006048694E06F04AF907F0B6FA674907F019
:1051B00007FB0346024696F840106548736419E4FD
:1051C00005F0B4FC05F0EEFC05460028F8D1554882
:1051D0005D4E05F0A1FF534805F09EFF514805F0D4
:1051E0009BFF504805F098FF4E4805F095FF1F21A2
:1051F000584805F001FD4B4805F08EFF1C2156482C
:1052000005F0FAFC706A554907F0DAFA06F02EFE4E
:10521000009502460B46434805F0D6FF0221504850
:1052200005F0EAFC3F4805F077FF23214D4805F0E3
:10523000E3FCF06B494907F0C3FA06F017FE00954E
:1052400002460B46374805F0BFFF0221444805F0EF
:10525000D3FC344805F060FF1921434805F0CCFC2D
:10526000B06B06F003FE02250B46024600952D4862
:1052700005F0AAFF29463D4805F0BEFC294805F087
:105280004BFF19213A4805F0B7FCB6F8B81025488D
:1052900005F092FF0321374805F0AEFC214805F0E8
:1052A0003BFF072323609EE405F040FC05F07AFCF9
:1052B00005460028F8D11B48234E05F02DFF19485C
:1052C00005F02AFF174805F027FF164805F024FFD0
:1052D000144805F021FF1221274805F08DFC1148E4
:1052E00005F01AFF0F4805F017FF0E4805F014FFF0
:1052F0001921224805F080FC96F8C230002B41F0BD
:10530000C28004211E4805F077FC064805F004FF22
:1053100013211C4805F070FC024805F0FDFE09232E
:10532000236060E4EC87FF1F441A0100681A010043
:1053300054190100801A0100C0120100A01A0100D6
:10534000C01A0100E01A0100FC92FF1F6F12833A9D
:10535000A495FF1FA0190100C019010000007A44A4
:1053600038180100E0190100041A0100201A010098
:10537000241A0100401A01003021010050170100D9
:105380006C170100DC17010005F0D0FB05F00AFCEA
:1053900005460028F8D1A548A54E05F0BDFEA34856
:1053A00005F0BAFEA14805F0B7FEA04805F0B4FE2E
:1053B0009E4805F0B1FE11219E4805F01DFC9B485A
:1053C00005F0AAFE28219C4805F016FC70699B494F
:1053D00007F0F6F906F04AFD009502460B469348A1
:1053E00005F0F2FE0221964805F006FC8F4805F014
:1053F00093FE1621934805F0FFFBF0698F4907F0F3
:10540000DFF906F033FD00950B460246874805F0AC
:10541000DBFE02218A4805F0EFFB844805F07CFEA4
:10542000D6F8B030002B32DD1D21874805F0E4FBB3
:10543000F06D07F071F9854907F0C2F906F016FD25
:10544000022502460B460095784805F0BDFE012175
:105450007F4805F0D1FB754805F05EFE1F217D48B1
:1054600005F0CAFB306E07F057F9784907F0A8F944
:1054700006F0FCFC009502460B466C4805F0A4FEC5
:105480000121734805F0B8FB684805F045FE11217D
:10549000714805F0B1FBD6F8B030062B00F2E48677
:1054A000DFE813F02D073207280723071E07190727
:1054B000DE0605F03BFB05F075FB05460028F8D13C
:1054C0005A485B4E05F028FE584805F025FE57481F
:1054D00005F022FE554805F01FFE544805F01CFE5D
:1054E00015215E4805F088FB504805F015FE18218F
:1054F0005B4805F081FB2B460A2296F840104B488A
:1055000005F01AFE494805F007FE2821554805F028
:1055100073FB706C494907F053F906F0A7FC00953E
:105520000B460246414805F04FFE0221444805F073
:1055300063FB3E4805F0F0FD13214B4805F05CFB92
:105540003A4805F0E9FD08232360FFF74CBB05F05E
:10555000EDFA05F027FB0028F9D13448344E05F068
:10556000DBFD324805F0D8FD304805F0D5FD2F4869
:1055700005F0D2FD2D4805F0CFFD1F213B4805F079
:105580003BFB2A4805F0C8FD1E21394805F034FBD5
:10559000264805F0C1FD1A21364805F02DFBF36FB2
:1055A000022B01F07880032B01F06C80012B01F0BD
:1055B00060800921304805F01FFB1C4805F0ACFD58
:1055C00014212E481A4F05F017FBB16F174805F04C
:1055D000F3FD164805F0A0FD1C21294805F00CFB41
:1055E000D6F88010114805F0E7FD104805F094FD4D
:1055F0001C21244805F000FBD6F8AC100B4805F040
:10560000DBFD0A4805F088FDF56F25F00205012D48
:1056100000F0C4871321144805F0EEFA034805F0A2
:105620007BFD02232360FFF7DEBA00BFEC87FF1F7C
:10563000FC92FF1FB82001003C18010000007A44D2
:10564000381801006818010080180100CDCCCC3D4D
:105650007C1D0100A0180100C018010014210100E8
:10566000F01701000C180100DC1701003C1C0100C0
:105670005C1C01007C1C0100F41C0100001D0100E9
:10568000181D0100381D010005F050FA05F08AFAD6
:105690000028F9D1BD48BE4D05F03EFDBB4805F0E0
:1056A0003BFDBA4805F038FDB84805F035FDB74870
:1056B00005F032FD1321B74805F09EFAB34805F016
:1056C0002BFD0D21B44805F097FAB04805F024FDF4
:1056D0000F21B24805F090FAB14BAC48196805F0BB
:1056E0006BFDAA4805F018FD1321AE4805F084FAB9
:1056F000AD4BA648196805F05FFDA44805F00CFD08
:105700001221AA4805F078FAA94BA048196805F0BB
:1057100053FD9E4805F000FD1121A64805F06CFAE6
:10572000A54B9A48196805F047FD984805F0F4FC28
:105730000E21A24805F060FAD5F8A010934805F0B4
:105740003BFD924805F0E8FC19219D4805F054FA0C
:105750009C4B8E48196805F02FFD8C4805F0DCFC49
:105760001121994805F048FA984B8848196805F0C6
:1057700023FD864805F0D0FC1021954805F03CFA41
:10578000944B8248196805F017FD804805F0C4FC69
:105790001C21914805F030FA904B7C48196805F0BF
:1057A0000BFD7A4805F0B8FC1E218D4805F024FA5F
:1057B00095F8C130002B00F0AC860D21894805F02A
:1057C0001BFA724805F0A8FC1521874805F014FA69
:1057D000864B6E48196805F0EFFC6C4805F09CFCA0
:1057E0001321834805F008FA684805F095FC042366
:1057F0002360FFF7F8B9664E96F84000FFF7F1B85E
:1058000023682868FFF76EB905F0CCF900287FF708
:10581000A5AA5E485E4E05F011FE06F07DFF7549B3
:1058200007F082F865230122F06122602B601846A0
:1058300000E405F0B7F900287FF790AA5348544ECA
:1058400005F0FCFD00EB8000430001226520F365BC
:1058500022602860FFF7EEBB05F0A4F900287FF76F
:105860007DAA4A484A4E05F0E9FD00EB800043005E
:1058700001226520336622602860FFF7DBBB444AC3
:10588000D2F8B0300133062BC8BF0023C2F8B030C5
:105890000123652023602860FFF7CCBB05F082F967
:1058A00000287FF75BAA3948394E05F0C7FD06F09E
:1058B00033FF504907F038F86523012270612260F8
:1058C0002B601846FFF7B6BB05F06CF900287FF790
:1058D00045AA2E482E4E05F0B1FD65230122C6F8DB
:1058E000B40022602B601846FFF7A4BB284B93F846
:1058F000C020002A00F0C285002283F8C020C7E73C
:10590000FDF71EFA23682868FFF751B8204EB36FE1
:10591000B3FA83F35B0901226320B3672260286036
:10592000FFF788BB1A4ED6F88030B3FA83F35B09D1
:1059300001226320C6F8803022602860FFF77ABB1E
:105940000123236005F02EF9002805DD0F48104ED5
:1059500005F074FDC6F8AC000123632023602860C5
:10596000FFF768BB0123236005F01CF9002807DD61
:105970000648074E05F062FD06F0CEFEC6F88C0024
:10598000632028602368FFF714B800BFEC87FF1F6F
:10599000FC92FF1F001B0100141B0100241B0100CF
:1059A0004894FF1F341B01003495FF1F481B010062
:1059B0007094FF1F5C1B01001095FF1F701B0100FE
:1059C000801B01005C94FF1F9C1B0100D092FF1FF5
:1059D000B01B01009C92FF1FC41B01006087FF1FCA
:1059E000E41B0100041C0100241C01003C95FF1F66
:1059F000DC17010000007A440123236005F0D2F88F
:105A00000028BDDD5D485E4E05F018FD06F084FE01
:105A1000C6F88800B4E70123236005F0C3F8002826
:105A2000AEDD5648564E05F009FDA6F8BA00A7E7C8
:105A30000123236005F0B6F800288DDD4F48504E55
:105A400005F0FCFCC6F8900086E74D4AD36F0133A1
:105A5000032BC8BF0023D3677EE74A4A1368B3FA13
:105A600083F35B0901216420136021602860FFF744
:105A7000E1BA454A454F1368002B0CBF01230023B0
:105A80004FF001001360206040F00E860346642250
:105A90002A606420FEF78BBF3D4ADFE73D4ADDE721
:105AA00001233D482360FAF723FF3C4A2368106036
:105AB000EDE73B4AD2E73B4AD0E70123236005F0FC
:105AC00071F8002800F32E85374B1A68042AC4BFEA
:105AD00002221A6064232B602368DAE7284ED6F886
