:1000000000800020BD010000358A0000ED8900005D
:10001000ED890000ED890000ED890000ED89000008
:10002000ED890000ED890000ED890000358A0000AF
:10003000358A0000ED8900000DAE000011AE000011
:10004000358A0000358A0000358A0000358A0000B4
:10005000358A0000358A0000358A0000358A0000A4
:10006000358A0000358A0000358A0000358A000094
:10007000358A0000358A0000358A0000358A000084
:10008000358A0000358A0000358A0000358A000074
:10009000358A0000358A0000358A0000358A000064
:1000A000358A0000358A0000358A0000358A000054
:1000B000358A0000E17C0000ED7C0000F17C00004E
:1000C000FD7C0000017D0000057D0000358A0000F8
:1000D000358A0000358A0000358A0000358A000024
:1000E000358A0000358A0000358A0000358A000014
:1000F000358A0000358A0000358A0000D596000058
:10010000358A0000599C0000358A0000358A0000BD
:10011000358A0000358A0000358A0000358A0000E3
:10012000358A0000358A0000358A0000358A0000D3
:10013000358A0000358A0000358A0000358A0000C3
:10014000358A0000358A0000358A0000358A0000B3
:10015000358A0000358A0000358A0000358A0000A3
:10016000358A0000E59E0000358A0000358A0000CF
:10017000358A0000358A0000358A0000358A000083
:10018000358A0000358A0000358A0000358A000073
:10019000358A0000358A0000358A0000358A000063
:1001A000358A0000358A0000358A0000358A000053
:1001B000358A0000358A0000358A0000564B4CF223
:1001C000205210B51A804DF628121A8000BF00BFC9
:1001D00008F034FC514B4FF010621A60504A9A609C
:1001E000504ADA60504A136813F4807304D14F49BF
:1001F0000B604FF4A85313604D4B1A78110703D5C9
:100200001A7842F008021A704A4B4B492A221A7097
:100210004A4A4B4B8B4204D252F8040F43F8040B6A
:10022000F8E7484B484900228B4202D243F8042B9E
:10023000FAE74649464A002352F8230041F82300D2
:1002400001336F2BF8D1434B434A802103F8011B44
:100250009342FBD1414B3D4A1A60414B8A221A70AE
:10026000A3F5805324225A70A0221A709A7992071B
:10027000FCD59A79D406FCD43A4A937903F00C035E
:10028000082B384BF9D103221A7140225A719A79FE
:100290009006FCD5334A9179324B4906FBD5324A58
:1002A000324911600221516020221A709A7902F0BD
:1002B0000C020C2AFAD12E4B2E4A1A602E4B2F4AD2
:1002C0001A6000225A60072243F8042C2C4AC3F813
:1002D0000C2D62B608F068FE144B1B68DA0705D5D2
:1002E000284808F045FC284B284A1A60284B1B7800
:1002F0005B0609D5244C254B22689A4204D121483B
:1003000008F036FC002323600CF050FC08F09CFB46
:100310000BF07CF8FEE700BF0E2005403080044063
:10032000823F04000100002B10D0034014D0034092
:1003300002D0074000E007405092FF1F4C29010007
:100340002087FF1F5092FF1FDCB9FF1F0082FF1F95
:100350000000000000E400E05FE400E008ED00E0E1
:100360000050064000400640448004400000030165
:1003700004800440C010050014E000E0FF76010096
:1003800000002020E999E25F1CE00340A5C3945AD5
:1003900000F00740FFFFFFFFFFFFFFFFFFFFFFFF32
:1003A000FFFFFFFFFFFFFFFFFFFFFFFFFFFFFFFF5D
:1003B000FFFFFFFFFFFFFFFFFFFFFFFFFFFFFFFF4D
:1003C000FFFFFFFFFFFFFFFFFFFFFFFFFFFFFFFF3D
:1003D000FFFFFFFFFFFFFFFFFFFFFFFFFFFFFFFF2D
:1003E000FFFFFFFFFFFFFFFFFFFFFFFFFFFFFFFF1D
:1003F000FFFFFFFFFFFFFFFFFFFFFFFFFFFFFFFF0D
:10040000FFFFFFFFFFFFFFFFFFFFFFFFDEF9FFFF23
:1004100010B5054C237833B9044B13B10448AFF33E
:1004200000800123237010BD5092FF1F00000000C8
:1004300048290100084B10B51BB108490848AFF323
:1004400000800848036803B910BD074B002BFBD0A0
:10045000BDE81040184700BF000000005492FF1F85
:10046000482901005092FF1F00000000F0B4154F12
:100470000024031F00F1800100F5827200F17C0668
:1004800043F8044FB34241F8047F4FF0000542F8AF
:10049000044FF5D100230C4A0C49C0F88C51C0F828
:1004A0009051C0F8B051C0F8A421C0F8AC21C0F8F8
:1004B000A81180F8B83180F8B93180F8D031F0BC9B
:1004C000704700BF0000A040000048430000C8C2C1
:1004D00038B590F8D031023B092B0546144607D8B1
:1004E00070296AD0E02931D0602900F09C8038BDA5
:1004F00070293AD0E02929D06029F8D1137A507AAE
:100500001B0203F47063181805D00CF0E9F8614978
:100510000CF03AF96860A37AE07A1B0203F4706386
:10052000181805D00CF0DCF85A490CF02DF9A86029
:10053000237B607B1B0203F470631818D7D00CF088
:10054000CFF854490CF020F9E86038BDE37BA07B7C
:1005500003EB00200CF0C4F84F490CF015F94F499B
:100560000CF00AF8C5F8900138BD137A507A1B02D6
:1005700003F47063181805D00CF0B2F845490CF07C
:1005800003F92861A37AE07A1B0203F47063181858
:1005900005D00CF0A5F83F490CF0F6F86861237B14
:1005A000607B1B0203F470631818A0D00CF098F85D
:1005B00038490CF0E9F8A86138BD137A507A1B026B
:1005C00003F47063181805D00CF08AF831490CF068
:1005D000DBF86861A37AE07A1B0203F470631818F1
:1005E00005D00CF07DF82B490CF0CEF8A861237BE8
:1005F000607B1B0203F47063181805D00CF070F8D0
:1006000024490CF0C1F8E861A37BE07B1B0203F4F2
:10061000706318183FF46BAF0CF062F81D490CF0D2
:10062000B3F8286238BD137A507A1B0203F4706362
:10063000181805D00CF054F816490CF0A5F86860AD
:10064000A37AE07A1B0203F47063181805D00CF04B
:1006500047F810490CF098F8A860237B607B1B02D8
:1006600003F47063181805D00CF03AF809490CF03F
:100670008BF8E860A37BE07B1B0203F4706318181F
:100680003FF435AF0CF02CF802490CF07DF82861EE
:1006900038BD00BF0AD7A33ADDB504BD000016433C
:1006A000D0F8DC01704700BF90F8C001704700BF70
:1006B00090F8BC01704700BF90F8C401704700BFBC
:1006C00090F8C801704700BF202994BF50F821005E
:1006D000002070472DE9F0410B4E8046041F00F1C9
:1006E0007C0754F8045F314628460CF0EBF930B132
:1006F000D8F8B41128460CF003FA00B12E46BC42DB
:10070000EFD13046BDE8F081000020412DE9F041F5
:10071000D0F8B4714FF00008041F00F17C0654F8C3
:10072000045F394628460CF0EBF9084948B12846E1
:100730000CF0C8F9414620B128460CF0E1F900B1AF
:10074000A846B442EBD14046BDE8F08100007042BB
:100750002DE9F0470023D0F8B471C0F8DC318246AF
:100760001C464FF000099846061F56F8045F3846AD
:1007700029460CF0A7F90E4960B128460CF0A2F901
:1007800040B1484629460BF0F7FE08F101088146C2
:10079000CAF8DC410134202CE7D1CAF8D4814046A4
:1007A0000BF09EFF014648460CF0A2F8BDE8F0872A
:1007B00000007042D0F8D401704700BFD0F890011B
:1007C000704700BFD0F89001704700BFD0F890018B
:1007D000704700BF2DE9F8434FF00008D0F8B4711E
:1007E000C0F88C818146041F00F17C0654F8045F38
:1007F000394628460CF084F9084950B128460CF0D7
:1008000061F930B1404629460BF0B6FE8046C9F882
:100810008C01B442EAD14046BDE8F8830000704242
:1008200002299ABF643150F821000020704700BFB0
:10083000102998BF80F8D011704700BF90F8B80118
:10084000704700BFC0F8CC11704700BF80F8B811E6
:10085000704700BF80F8B911704700BF30B5C0F8CD
:10086000B41183B008460BF0E5FA074C02250246A6
:100870000B46009520460AF08BFC204603B0BDE8ED
:1008800030400AF02DBC00BFEC87FF1F70B500F5AB
:1008900000550646183500F13804204604F5F0747A
:1008A000FFF7E4FDAC42F8D106F5067501242846B1
:1008B0000021FFF7CBFF214628460134FFF7B8FFA0
:1008C000112C05F5F075F2D142F2200400250548FF
:1008D000054A064B3555002130627162B262F362FF
:1008E000304670BD00007A44000048430000C8C292
:1008F00042F224032DE9F041002200F5F15500F504
:1009000000578046C2501835243700F5067403E0BE
:1009100004F5F074AC420ED02046FFF78FFF00289C
:10092000F6D020463E68FFF745FF04F5F0743044EA
:10093000AC423860F0D142F2240358F80300BDE81D
:10094000F08100BF70B50E460121356805F00F0437
:100950000C44C4EB041400EB441000F138042046AE
:10096000FFF774FF20460121FFF774FF324620464F
:1009700005F0F001BDE87040FFF7AABD70B5002397
:1009800000F5005605460361183600F5067403E0CD
:1009900004F5F074A64223D02046FFF74FFF00284D
:1009A000F6D02046FFF716FF014628690BF0E4FD5C
:1009B00028612046FFF702FFA96A0CF083F820BBEC
:1009C0002046FFF7FFFEE96A0CF09AF80028DFD016
:1009D0002046FFF7F7FE04F5F074A642E862DBD18B
:1009E00068690BF07DFE014628690BF081FF696A9A
:1009F000286104460CF084F800B16C62296A204634
:100A00000CF060F800B12C6270BD2046FFF7D6FEF6
:100A1000A862D5E770B5124B836100F50055064614
:100A2000183500F5067403E004F5F074AC4214D0F8
:100A30002046FFF703FF0028F6D02046FFF74AFEC6
:100A4000B1690CF03FF80028EED02046FFF742FED7
:100A500004F5F074AC42B061EAD1B06970BD00BF7A
:100A60000000A04070B5002300F500550646C361A4
:100A7000183500F5067403E004F5F074AC4214D0A8
:100A80002046FFF7DBFE0028F6D02046FFF73EFEAB
:100A9000F1690CF035F80028EED02046FFF736FE5D
:100AA00004F5F074AC42F061EAD1F06970BD00BFAA
:100AB0000069704741617047F8B50F46164600F56A
:100AC0000674012504E00135112D04F5F0741BD0E6
:100AD0002046FFF7B3FE0028F5D029460B480AF060
:100AE0004FFB0A480AF0FCFA78200AF0EDF820469D
:100AF0003946FFF7A7FE013520463146FFF7AEFE27
:100B0000112D04F5F074E3D1F8BD00BFEC87FF1F91
:100B100042F21C032DE9F041002200F50055C250BD
:100B20002F46274A274B426306464FF000080363CF
:100B300018351C3700F5067403E004F5F074AC4278
:100B40002ED02046FFF77AFE0028F6D02046FFF789
:100B50003DFE00210BF0D4FF0028EED03B680133AE
:100B60003B602046FFF732FE014640460BF004FD95
:100B700080462046FFF726FE316B0BF0C1FFD0B94F
:100B80002046FFF71BFE716B0BF09CFF0028D4D0B2
:100B90002046FFF713FE04F5F074AC427063D0D129
:100BA00042F21C03F0580BF09BFD014640460BF04F
:100BB0009FFEBDE8F0812046FFF704FE3063DFE7CB
:100BC00000C0794400C079C4006B7047406B704727
:100BD000F8B500F5005507460026183500F50674EF
:100BE00003E004F5F074AC4210D02046FFF726FE77
:100BF0000028F6D02046FFF7ABFD014630460BF04B
:100C0000BBFC04F5F074AC420646EED142F21C0384
:100C1000F8580BF065FD014630460BF069FEF8BD53
:100C20002DE9F04F83B000F10F02C31D009204467E
:100C30000193002203F8012F00999942FAD101276C
:100C4000B94604F5067504F108082846FFF7F6FDD5
:100C5000E8B14FF0010B00262046FFF7B9FF5946D7
:100C600082462846FFF730FD014650460BF02AFF2A
:100C700020B10BF1FF3209FA02F216430BF1010B1E
:100C8000BBF1090FE8D1092F55D088F80060013772
:100C90000A2F05F5F07508F10108D6D14FF440721E
:100CA00008232260E3712146244806F0B9FE019B27
:100CB000002203F8012F00999942FAD104F59756C2
:100CC00018364FF00A084FF001093046FFF7B6FD1D
:100CD000D8B1012500272046FFF77AFF2946834631
:100CE0003046FFF7F1FC014658460BF0EBFE18B119
:100CF0006B1E09FA03F31F430135092DEBD1019B4C
:100D0000B8F10B0FCCBF1F705F70019B08F1010899
:100D10000133B8F1100F06F5F0760193D5D10748ED
:100D20004FF44472052321462260E37103B0BDE80D
:100D3000F04F06F075BEE673B0E700BFCCB5FF1FFD
:100D40002DE9F04F93B004460F91002A40F0D08176
:100D500015461046C54900F0D7FDC449284600F0A5
:100D6000D3FDC249284600F0CFFD42F21C032046C5
:100D700054F803B0FFF7BCFD8146206966690BF0AB
:100D800059F8CDE910012046FFF722FF82462046A0
:100D9000A769D4F81C80FFF7BBFE0BF04BF8CDE938
:100DA0000C01394640460BF0E5FBB1490BF0ECFC79
:100DB0000BF040F8CDE90A0140460BF03BF8CDE9D5
:100DC000080138460BF036F8CDE9060150460BF025
:100DD00031F8DDE91023CDE90401CDE90223A5496D
:100DE00000964B465A46284600F08EFD9F492846FD
:100DF00000F08AFD04F506744FF0010ADDF83C901E
:100E000007E00AF1010ABAF1100F04F5F07400F0DE
:100E1000F2802046FFF712FD0028F2D02046FFF7AF
:100E200043FC2046FFF744FC2046FFF745FC2046E4
:100E3000FFF746FC0821904809F0C2FE51468F4852
:100E40000AF09EF9BAF1090F03DC01218C4809F080
:100E5000B7FE02218B4809F0B3FE2046FFF7BAFC2B
:100E60000AF0E8FF5FFA89F802460B46CDF80080E9
:100E700082480AF08DF90121834809F0A1FE20463D
:100E8000FFF70EFC0C2800F3B98001261DE00721B6
:100E90007E4809F095FE294678480AF071F902214A
:100EA0007B4809F08DFE31462046FFF70DFC0AF025
:100EB000C1FFCDF8008002460B4670480AF068F981
:100EC000012171480E4409F07BFE2046FFF7E8FB44
:100ED000864269DC092D05F10105D8DC012168484D
:100EE00009F06EFED3E72046FFF7DAFB172800F380
:100EF000B98035460D261CE0013509F061FE294612
:100F00005E480AF03DF90221614809F059FE314678
:100F10002046FFF7D9FB0AF08DFFCDF8008002468E
:100F20000B4656480AF034F9012157480E4409F09F
:100F300047FE2046FFF7B4FB86424FF007015348B7
:100F4000DADD0F21534809F03BFE4C480AF0C8F89F
:100F50002046FFF7A5FB192826DD19261CE00135E0
:100F600009F02EFE294645480AF00AF902214848B0
:100F700009F026FE31462046FFF7A6FB0AF05AFF8D
:100F8000CDF8008002460B463C480AF001F90121E9
:100F90003D480E4409F014FE2046FFF781FB8642CF
:100FA0004FF007013948DADD0F213A4809F008FE11
:100FB00032480AF095F80921374809F001FE00216E
:100FC0002046FFF72DFC0AF035FF022602460B46AD
:100FD00000962A480AF0DCF80F212E4809F0F0FDAF
:100FE0000AF1010A25480AF07BF8BAF1100F04F55E
:100FF000F0747FF40EAF13B0BDE8F08F2F460126DA
:101000001FE00721214809F0DBFD39461B480AF0A3
:10101000B7F802211E4809F0D3FD31462046FFF7FC
:1010200053FB0AF007FFCDF8008002460B46134839
:101030000AF0AEF801360121134809F0C1FD0C2E6B
:1010400008D0092F07F10107DBDC01210C4809F06A
:10105000B7FDD6E72046FFF723FB0C2805F10B066A
:101060003FF741AF16350D2739E000BF10230100CF
:1010700000007A44E00F010080100100EC87FF1FA0
:1010800030110100441401008C1001009010010087
:101090002011010098100100A81001000721BA4892
:1010A00009F08EFD3146B9480AF06AF80221B848C5
:1010B00009F086FD39462046FFF706FB0AF0BAFE26
:1010C000CDF8008002460B46B0480AF061F80121D5
:1010D000B0480F4409F074FDB5423FF432AF092E19
:1010E00006F10106DADC0121AB4809F069FDD5E71C
:1010F000AA49012000F008FCA849012000F004FCE6
:10110000A649012000F000FC42F21C032046E258F0
:101110001092FFF7EDFB8246206966690AF08AFEAD
:10112000804620468946FFF753FD83462046A56941
:10113000E769FFF7EDFC0AF07DFECDE90C012946D9
:1011400038460BF017FA96490BF01EFB0AF072FEB8
:10115000CDE90A0138460AF06DFECDE908012846BE
:101160000AF068FECDE9060158460AF063FE5346D0
:10117000CDE90401CDE90289109A8A49009601203F
:1011800000F0C2FB8549012000F0BEFB04F50674A7
:101190004FF0010A0025DDF83C9007E00AF1010A52
:1011A000BAF1100F04F5F0743FF425AF2046FFF7B5
:1011B00045FB0028F2D02046FFF776FA2046FFF7DD
:1011C00077FA2046FFF778FA2046FFF779FA0821E8
:1011D000754808F07BF95146744809F0D1FFBAF11F
:1011E000090F03DC01216C4808F070F902217048F6
:1011F00008F06CF92046FFF7EDFA0AF01BFE5FFAE3
:1012000089F802460B46CDF80080684809F0C0FF17
:101210000121604808F05AF92046FFF741FA0C28EE
:1012200000F3AF8001261DE00721574808F04EF972
:1012300029465E4809F0A4FF0221554808F046F906
:1012400031462046FFF740FA0AF0F4FDCDF8008061
:1012500002460B46554809F09BFF01214D480E44BC
:1012600008F034F92046FFF71BFA864269DC092DA5
:1012700005F10105D8DC0121474808F027F9D3E73B
:101280002046FFF70DFA172800F3C98035460D26D2
:101290001CE0013508F01AF92946444809F070FFAE
:1012A00002213B4808F012F931462046FFF70CFABC
:1012B0000AF0C0FDCDF8008002460B463B4809F01D
:1012C00067FF012133480E4408F000F92046FFF77C
:1012D000E7F986424FF007012B48DADD0F21354848
:1012E00008F0F4F8314809F0FBFE2046FFF7D8F982
:1012F000192826DD19261CE0013508F0E7F82946F3
:101300002A4809F03DFF0221214808F0DFF8314664
:101310002046FFF7D9F90AF08DFDCDF8008002468E
:101320000B46224809F034FF01211A480E4408F008
:10133000CDF82046FFF7B4F986424FF00701124876
:10134000DADD0F211B4808F0C1F8184809F0C8FE83
:101350000921194808F0BAF800212046FFF760FA81
:101360000AF068FD022602460B4600960F4809F077
:101370000FFF0F210F4808F0A9F80C4809F0B0FE44
:101380000CE72F46012639E090100100EC87FF1F83
:10139000201101008C100100301101001023010008
:1013A00000007A44E00F010080100100C087FF1F99
:1013B0004414010098100100A810010007212E48D4
:1013C00008F084F839462D4809F0DAFE02212C484D
:1013D00008F07CF831462046FFF776F90AF02AFD3E
:1013E000CDF8008002460B46244809F0D1FE0136B4
:1013F0000121244808F06AF80C2E08D0092F07F1C3
:101400000107DBDC0121204808F060F8D6E7204620
:10141000FFF746F90C2805F10B063FF731AF1635FB
:101420000D2720E00721144808F050F831461348F2
:1014300009F0A6FE0221124808F048F83946204675
:10144000FFF742F90AF0F6FCCDF8008002460B46A1
:101450000A4809F09DFE01210A480F4408F036F8B9
:10146000B5423FF43BAF092E06F10106DADC01215B
:10147000054808F02BF8D5E790100100C087FF1F42
:10148000201101008C100100301101002DE9F04FF6
:1014900085B000F506758A4603929B462E464FF0AE
:1014A000010806E008F10108B8F13F0F06F5F076F3
:1014B0007BD03046FFF7C2F90028F3D000230A2280
:1014C00051467D4809F01CFE01217C4809F078FB5B
:1014D00003980AF0AFFC00230246009376480B46BF
:1014E00009F056FE0121754809F06AFB5946724819
:1014F00009F046FE0121714809F062FB41466E4841
:1015000009F03EFE01216D4809F05AFB00244FF01E
:10151000020921463046FFF7D7F80AF08BFCCDF8D8
:10152000009002460B46644809F032FE0134012166
:10153000624809F045FB082C4FF00207E9D1002171
:101540003046FFF76DF90AF075FC009702460B462E
:10155000594809F01DFE0121584809F031FB0121CD
:101560003046FFF75DF90AF065FC009702460B462E
:10157000514809F00DFE0121504809F021FB394680
:101580003046FFF74DF90AF055FC009702460B462E
:10159000494809F0FDFD08F10108474809F0A0FDA0
:1015A000B8F13F0F06F5F07683D101274FF000091F
:1015B00004E001373F2F05F5F07579D02846FFF795
:1015C0003DF90028F5D000230A2251463C4809F095
:1015D00097FD0121394807F079FF03980AF02AFCAA
:1015E000CDF8009002460B46354809F0D1FD0121A7
:1015F000324807F06BFF5946314809F0C1FD01211F
:101600002E4807F063FF39462D4809F0B9FD012146
:101610002A4807F05BFF00244FF0020821462846C5
:10162000FFF752F80AF006FCCDF8008002460B46A0
:10163000234809F0ADFD01340121204807F046FFA1
:10164000082C4FF00206E9D100212846FFF7E8F800
:101650000AF0F0FB009602460B46194809F098FD87
:101660000121164807F032FF01212846FFF7D8F87C
:101670000AF0E0FB009602460B46114809F088FD8F
:1016800001210E4807F022FF31462846FFF7C8F82F
:101690000AF0D0FB009602460B46094809F078FD97
:1016A0000137074809F01CFD3F2F05F5F07585D17E
:1016B00005B0BDE8F08F00BFEC87FF1FB41001003C
:1016C000C087FF1F70B5044608460D460CF058F859
:1016D00023680246294620465B68BDE870401847EB
:1016E000014B1870704700BF2087FF1FF0B51546EB
:1016F000027883B062B103460E46252A16D01878C8
:101700001C4685B909F0E0FA6278631C002AF4D11E
:10171000002D5CD0744803B0BDE8F04009F0E0BC97
:101720001046002DEED007F079FEEDE758785C1CEE
:101730000028EDD02528F3D073282FD0642825D099
:10174000692823D0662848D07A2853D078285ED0DC
:10175000582800F08580622800F09180422866D0E9
:101760006C2813D0632811D0742800F09880542876
:10177000C7D133680436002D40F0A480012B00F05F
:10178000A8800521594809F01BFABDE7331D3168CF
:1017900085B957481E4609F0F3FCB5E7371D366892
:1017A000304665B90BF0ECFF014630463E4609F085
:1017B00007FAA9E74C481E4609F0E2FCA4E70BF043
:1017C000DFFF014630463E4607F080FE9CE7484872
:1017D00003B0BDE8F04009F083BC073626F00706E9
:1017E0000321D6E90023009165B94148083609F084
:1017F000CFFC89E7073626F00706D6E9002385B136
:10180000002100913848083609F0C2FC7CE7371DFA
:101810003168F5B90023102235483E4609F070FCC6
:1018200072E700953248083609F0B2FC6CE70221F5
:1018300030487DBB09F0C4F93168371D2B460222C0
:101840002B483E4609F05CFC5EE707F03FFE31683E
:10185000371D0023102224483E4609F051FC53E76F
:1018600002212548002DF0D109F0AAF9371D316871
:101870001F482B4610223E4609F042FC44E7371D24
:101880003168002DDAD00023022217483E4609F0C5
:1018900037FC39E707F01AFE371D3168F3E7316886
:1018A00004363DB901290EBF14481548012109F03D
:1018B00087F929E701290EBF10481148012107F0D7
:1018C00005FE21E7012B09D00521084807F0FEFDA0
:1018D0001AE70C490648FFF7F5FE15E709490248E3
:1018E000FFF7F0FE10E700BFC087FF1FF4100100F4
:1018F000EC87FF1FE0100100DC100100E410010084
:10190000E8100100EC1001000EB400B582B003A98C
:10191000024651F8040B0191FFF7E8FE02B05DF8B2
:1019200004EB03B0704700BF30B4074D074C0849C3
:1019300000232B70236003654365836580F85C306A
:101940000B6030BC704700BF7492FF1F7092FF1F86
:101950006C92FF1F2DE9F8434649474F474D484ECB
:10196000484CDFF854810020FFF7CEFF464B474A32
:1019700047485A60DF601222002746491A701861F2
:10198000454A46485D615E62454D9C614FF07C561C
:10199000444C1F63444F9962DA62444958630C22F5
:1019A00043489D635E6440F61C450A269C641F62A2
:1019B00041F204043F4FD9641A6502210122C3F8A1
:1019C000BC009D6600206425DE661C674FF4967699
:1019D0003224DF61DF635A27597059721A725A65CF
:1019E00083F840009D655E66DE651C665F67C3F830
:1019F0009840C3F8A4408C244FF47A799867D9674B
:101A0000C3F88000DFF8B4C0C3F8A00044F6206E2D
:101A1000C3F8AC20C3F8B010FF2741F28831C3F8F7
:101A2000B450052683F8C02083F8C12083F8C22073
:101A30004FF4FA7540F2D6624FF4964083F8CC40EA
:101A4000C3F89C90C3F88880C3F88CC0C3F890E0BA
:101A5000C3F8A870A3F8BA60A3F8C450C3F8C800CC
:101A6000C3F89410A3F8B810A3F88420A3F8862034
:101A7000BDE8F883FC10010066668640333383407E
:101A8000CDCCCC3DCDCC4C40FC92FF1F48E80100B2
:101A90000000404000008242000020C100002042BF
:101AA0000000A0409A997940333373400AD7233D10
:101AB0009A99993ECDCC4C3E0000684200C020442B
:101AC00070B5464C464D4748E66800232B70FEF73C
:101AD000C9FF014630460AF0F5FF08B104232B7018
:101AE0004048FEF797FF21690AF0ECFF18B12B7808
:101AF00043F010032B703B48FFF766F8A16A0AF029
:101B0000FFFF18B12B7843F040032B7000233548BA
:101B10006B70FFF75BF8E16A314E0AF0D3FF08B152
:101B20000123737000232F48EB70FEF79BFF0546DF
:101B30002C482B4EFEF76EFF014628460AF01AFD90
:101B4000E16B0AF0DDFF08B10123F370264D254853
:101B500000232B70FEF786FF616A0646E0680AF0F4
:101B600009FD014630460AF0CBFF08B104232B7073
:101B70001C48FEF74FFF616A064620690AF0FCFC2C
:101B8000014630460AF09EFF18B12B7843F010034F
:101B90002B701448FFF718F8A16B0646A06A0AF0EC
:101BA000E9FC014630460AF0ABFF18B12B7843F050
:101BB00040032B7000230B486B70FFF707F8A16BF5
:101BC0000546E06A084C0AF0D7FC014628460AF0B0
:101BD00079FF08B10123637070BD00BFFC92FF1F45
:101BE000F892FF1FA495FF1FD093FF1F2DE9F0412E
:101BF0007C4C2368012B82B031D0022B00F0A880EE
:101C0000032B00F0C8803BBB774B784AD3F8A41075
:101C1000D3F8A83012685B1A632B0EDD744803FBFF
:101C200002F380FB0302DB17C3EB621319440620A7
:101C300002B0BDE8F04106F0ADBF6E4803FB0223E1
:101C400080FB0302DB17C3EB22121144062002B013
:101C5000BDE8F04106F09EBF02B0BDE8F081664EDF
:101C600033680A33B3F57A7F00F3B78018463360E0
:101C70000AF036FD61490AF087FD80465A4DD5F8D5
:101C8000A4000AF02DFD0746D5F8A8000AF028FDAB
:101C900039460AF06FFC41460AF076FD58490AF0D1
:101CA00027FE39460AF068FC0AF034FF0146062098
:101CB00006F070FF0221534808F082FF524809F0F5
:101CC0000FFA0621514808F07BFF30680AF008FD42
:101CD0004A490AF059FD0AF0ADF8022702460B46C0
:101CE0000097494809F054FA0D21494808F068FF67
:101CF000D5F8A4000AF0F4FC804630680AF0F0FC45
:101D00003E490AF041FD0646D5F8A8000AF0E8FC75
:101D100041460AF02FFC014630460AF035FD3849AD
:101D20000AF0E6FD41460AF027FC0AF083F8009726
:101D30000B460246344809F02BFA3946314808F080
:101D40003FFF314809F0CCF92368022B7FF458AFEC
:101D5000294B254E00221A60D6F8A4000AF0C0FCD8
:101D60000546D6F8A8000AF0BBFC29460AF002FC9A
:101D700000210AF009FD22490AF0BAFD29460AF0BD
:101D8000FBFB0AF0C7FE0146062006F003FF2368AE
:101D9000032B7FF438AF184B134E4FF47A721A604E
:101DA000D6F8A4000AF09CFC0546D6F8A8000AF074
:101DB00097FC29460AF0DEFB11490AF0E5FC1049C0
:101DC0000AF096FD29460AF0D7FB0AF0A3FE014669
:101DD000062006F0DFFE236815E700234FF0000819
:101DE00033604BE7D092FF1FFC92FF1F3887FF1F25
:101DF0001F85EB51CBF08D288C92FF1FCDCCCC3DB5
:101E00000000C84244140100EC87FF1F1C110100B0
:101E10002411010070B5B648B64C09F061F9B44818
:101E200009F05EF9B24809F05BF90D21B24808F0FB
:101E3000C7FED4F8A030012B11D0B04CAC482178AB
:101E400000230A2209F05CF92378052B67D8DFE824
:101E500013F0100115011A011F01240106010921C7
:101E6000A74808F0ADFEA748FEF7D4FD21690AF0A7
:101E700029FE18B10F21A44808F0A2FEA148FEF7E0
:101E8000F1FDE1680AF03CFE18B10E219F4808F010
:101E900097FE9C48FEF7E6FD05469A48FEF7BAFD18
:101EA000014628460AF066FBE16B0AF029FE18B1EC
:101EB0001121974808F084FE9248FEF729FEA16A96
:101EC0000AF01EFE18B10C21924808F079FE8D48E8
:101ED000FEF71EFEE16A0AF0F5FD18B10D218E48ED
:101EE00008F06EFE8D4B87481B68012B00F0E980DF
:101EF000FEF790FD21697F4D0AF002FE78B181481E
:101F0000FEF7B0FDE9680AF0DDFD40B17B4B1B78C0
:101F1000052B00F0E7800821814808F051FE0221DE
:101F2000804808F04DFE122006F0BAFF012800F0AC
:101F3000B980112006F0B4FF012800F0BD807A4B73
:101F40001B78002B40F0868002217648774C08F001
:101F500037FE774B6648196809F012F9644809F0B2
:101F6000BFF80421734808F02BFE0B2006F098FF01
:101F7000002301460A225E4809F0C2F80C2006F050
:101F80008FFF002301460A22594809F0B9F81420AE
:101F900006F086FF002301460A22554809F0B0F8F2
:101FA000152006F07DFF0A2200230146504809F063
:101FB000A7F80621604808F003FE2368DD074FF00C
:101FC00001014CBF5D485E4808F0FAFD23689807A0
:101FD0004FF001014CBF5948594808F0F1FD236802
:101FE0005A074FF001014CBF5448554808F0E8FD2E
:101FF00023681B074CBF51485148012108F0E0FD00
:102000000421504808F0DCFD112006F049FF0023B0
:1020100001460A22364809F073F8102006F040FF06
:10202000002301460A22324809F06AF8122006F01D
:1020300037FF002301460A222D4809F061F81320DA
:1020400006F02EFF002301460A222948BDE8704011
:1020500009F056B812213C4808F0B2FD74E7072198
:102060003A4808F0ADFD3A4B2148196809F088F864
:1020700055E70621374808F0A3FD50E70721364809
:1020800008F09EFD4BE70721344808F099FD46E72C
:102090000821334808F094FD41E70B21314808F04E
:1020A0008FFD3CE70E21304808F08AFD112006F034
:1020B000F7FE01287FF443AF0A212C4808F080FD89
:1020C0003DE7FEF7A7FC216A0AF01AFD00283FF45D
:1020D00022AF1621264808F073FD0A21254808F092
:1020E0006FFD1CE70A21234808F06AFD17E700BFCF
:1020F000EC87FF1FFC92FF1F341101007494FF1F37
:1021000044110100A495FF1F50110100601101004E
:102110007011010084110100941101009892FF1FB9
:10212000C8110100441401001495FF1FCC93FF1F38
:102130005C94FF1F3C120100441201004C1201008C
:10214000EC210100501201002812010004120100CC
:102150001895FF1FD4110100DC110100F0110100DE
:10216000F8110100E41101000C1201001C12010021
:10217000A4110100BC1101002DE9F04FAA4CE36F3E
:10218000012B8DB000F07681032B00F0CB80DFF8BF
:10219000D882A64FA64EA36FA648012B09BF31686F
:1021A000316801F10041316006F056F93B68002BBF
:1021B00040F09E809F48DFF8B09206F023F93B681C
:1021C000C8F800000546002B44D1E36F012B53D023
:1021D000002128460AF094FC002800F0F1812846EE
:1021E00095490AF08DFC98B9944A954B12680B9268
:1021F0000B9A1A60D4F8AC000AF072FA29460AF079
:10220000C3FA0023C8F8000033600DB0BDE8F08FBA
:102210008A4FDFF82C923B680A930A98D9F800306D
:10222000DFF848A2C01A0AF057FA29460AF0ACFAB9
:1022300084490AF05DFB83490AF05AFBDAF8001082
:102240000AF09AF93B680993099BCAF80000C9F89B
:102250000030CFE709F0EEFD02250B46024600955F
:10226000794808F095FF0421784808F0A9FCE36F4D
:10227000D9F80050012BABD1754B1B68012B00F036
:10228000E681022BB6D1002128460AF039FC00284D
:1022900000F054822F46D4F890000AF021FA01464B
:1022A00038460AF02DFC002800F0FE81DFF88CA1F2
:1022B000634FDAF80030079307983B68DFF8AC917A
:1022C000C01A0AF009FA29460AF05EFA5D490AF0D6
:1022D0000FFB5C490AF00CFBD9F800100AF04CF92E
:1022E000DAF800300693069BC9F800003B6081E7EE
:1022F000504806F087F809F09DFD022502460B467E
:102300000095514808F044FF0321524808F058FC5A
:10231000D4F890104C4808F033FF03214D4808F0E2
:102320004FFC47E74C4D4A4E2B68DFF83C81D3F811
:1023300084000F210123336006F01EF833683B4F01
:10234000012B3B6800F0BC80002B40F048812B68DB
:10235000DFF81C91D3F88400436B19698EB2C9F879
:10236000006005F08BFDB4F8862040F6E44303FBE3
:1023700006F1B1FBF0F0801A00B20AF0B1F937496A
:102380002B4E8246D4F888000AF0FEF901465046EA
:102390000AF0AEFAD9F800303060632BDFF8D0A035
:1023A00000F31181002333603B68002B3FF4F3AE50
:1023B00002212B4808F004FC2B68D9F80050D3F810
:1023C000840040F6E44303FB05F505F057FDB5FB3B
:1023D000F0F00AF081F90546B4F886000AF080F9B9
:1023E000014628460AF0C6F809F024FD02250246F7
:1023F0000B460095144808F0CBFE2946184808F013
:10240000DFFB306809F016FD009502460B460E48CA
:1024100008F0BEFE2946134808F0D2FB29461048B2
:1024200008F0CEFBB7E600BFFC92FF1F3495FF1FFC
:102430009492FF1FD492FF1F0000FA4374B7FF1F4E
:102440000895FF1F00007A44EC87FF1F9C120100D3
:102450005487FF1F981201000C95FF1F9175DD3600
:102460004414010094120100B092FF1FBC92FF1FA0
:10247000F492FF1FDFF81483D8F80050002128469B
:102480000AF03EFB002800F09880D4F89000AE4E91
:102490000AF026F9014628460AF014FBAB4D2A68DB
:1024A000002800F082800123D2F8840033600F21DD
:1024B00005F062FF3368A64F012B3B687FF444AF01
:1024C000002B40F0FF802B68DFF8C492D3F8840023
:1024D000436B19691FFA81FBC9F800B005F0CEFC07
:1024E000B4F884309B4E40F6E44A0AFB0BFBBBFB7E
:1024F000F0F0C01A00B20AF0F3F897498346D4F816
:102500008C000AF041F9014658460AF0F1F92A68B0
:10251000D9F800303060D2F884000AFB03FA05F0E5
:10252000ADFCB4F88430BAFBF0F00FFA80FAC3EBDC
:102530000A03002BB4F8BA20B8BF5B429342BCBF79
:10254000002333603B68002B3FF425AE0221834813
:1025500008F036FB2B68D9F80050D3F8840040F619
:10256000E44303FB05F505F089FCB4F88410B5FBE2
:10257000F0F000B2411A7A4808F002FE02217748D2
:1025800008F01EFB306809F055FC022502460B4698
:102590000095734808F0FCFD0321724808F010FB19
:1025A00029466E4808F00CFBF5E50223D2F88400BA
:1025B00033600E2105F0E0FEC0E605F1004564E75A
:1025C00005F100400CE62B68D3F8840005F056FCBA
:1025D000DAF8003064389842FFF4E4AEE4E660488C
:1025E000DFF8AC91DFF864A108F07AFD0C215E48B9
:1025F00008F0E6FA0C215D4808F0E2FA2A683B6828
:10260000D2F88400426B11698EB2C9F80060002BC9
:102610003FF4A7AE05F032FC40F6E44100230A2265
:1026200001FB06F1B1FBF0F14D4808F069FD022114
:102630004A4808F0C5FAB4F88610494808F0A0FDE9
:10264000DAF80030D9F80060D3F8840089E6002178
:1026500028460AF055FA002873D0284644490AF063
:102660004FFA40B3DFF814A1424FDAF80030049378
:1026700004983B68DFF81C91C01A0AF02DF829462F
:102680000AF082F83C490AF033F93B490AF030F984
:10269000D9F8001009F070FFDAF800300393039BBB
:1026A000C9F800003B60A5E5344A324B1268089235
:1026B000089A1A609EE5314A2E4B12680592059AD7
:1026C0001A6097E52648DFF8C890204E08F008FD0C
:1026D000E36F012B4FF00B010CBF2948294808F08C
:1026E0006FFA0C21214808F06BFA2A683B68D2F88F
:1026F0008400426B11691FFA81FBC9F800B0002BFE
:102700003FF4ECAE05F0BAFB40F6E44100230A22A8
:1027100001FB0BF1B1FBF0F1114808F0F1FC0121D4
:10272000194808F04DFAB4F884100D4808F028FD57
:102730003368D9F800B0D3F88400CFE605F100473C
:10274000A9E505F1004089E75487FF1F0C95FF1F9D
:102750003495FF1F9492FF1F9175DD3644140100DC
:10276000EC87FF1F8012010084120100701201002B
:102770000000FA430895FF1F00007A4474B7FF1F5A
:10278000581201006412010030110100B092FF1FC5
:10279000F492FF1FBC92FF1F2DE9F04F994C236864
:1027A00085B0002B7BD0984DDFF86482974FDFF81F
:1027B000A892D5F88030944E012B00F08B80D7F88A
:1027C00000A0D6F858B0746D914E04FB0BF44FF492
:1027D0007A7000FB04F009F083FF8E4904465046EE
:1027E00009F0D2FF21460AF083F88B4909F0CCFFAB
:1027F0000AF090F96328C8F800004BDD20468549AF
:102800000AF076F8642338603360D9F80030002B82
:102810003DD0EB6F7C4C012B00F08A80032B00F045
:10282000DF80022B00F0E28002217C4808F0C8F92A
:102830007B4B186809F0FEFA022402460B4600940E
:10284000784808F0A5FC2146774808F0B9F92146F8
:10285000724808F0B5F9D8F80010724808F090FCFA
:102860000621724808F0ACF938686A4909F08CFF13
:1028700009F0E0FA009402460B466A4808F088FC2A
:1028800003216B4808F09CF9664808F029FC05B064
:10289000BDE8F08F0028BCBF00233360B5E7654E6C
:1028A000594D33680293029A42F228339A424BD828
:1028B00033680393039A42F210739A424BD8D5F8C7
:1028C0008030DFF84C81514FDFF88C914E4E012B58
:1028D0007FF475AF5848FEF77BF95849D6F868A0E1
:1028E000F46E09F051FF0AF03BF9326F736FD5F8BF
:1028F00058B0CAEB02021B1B80B29A42CAEB00001E
:10290000C6BF03FB00000132584390FBF2F02044A5
:102910006C6D00FB0BF004FB00F000EB800040004E
:1029200009F0DEFE3B4909F0E3FF824638604BE7E1
:10293000434B1B68012B4FF00A010CBF4148424832
:1029400008F03EF9E36F69E73B486A6C95F8401080
:10295000FEF7B2F8ACE73848FEF73AF93749AF6E00
:10296000EE6E09F011FF0AF0FBF82A6F6B6FD21BB5
:102970009B1B80B29A42A0EB07003CDD03FB0000EA
:10298000531C90FBF3F31E44A86D6B6DDFF8808041
:10299000DFF8C490C8F8006000FB06F003FB00F00D
:1029A00000EB8000400009F09BFE1A49174F09F028
:1029B0009FFFD9F80030386001222260002B3FF4DD
:1029C000F8AE0221154808F0FBF8164808F088FB1D
:1029D00059211E4808F0F4F8124808F081FBE8E697
:1029E00010211B4808F0ECF8EB6F1AE70721194893
:1029F00008F0E6F818E703FB00F393FBF2F31E443C
:102A0000C2E700BF9092FF1FFC92FF1FBC92FF1F06
:102A10003887FF1FE4388E3E0000C842441401008E
:102A2000B092FF1FEC87FF1F9412010034130100C6
:102A30003C13010074B7FF1FA495FF1F00007A44E8
:102A40005487FF1F001301000C130100A4120100A2
:102A5000181301002C1301004C87FF1F70B51120C3
:102A600082B006F01DFA012818D0122006F018FADC
:102A7000012813D000210B2006F00CFA00210C20B5
:102A800006F008FA0021152006F004FA2C492D4B17
:102A90000120002208701A6002B070BD01211520CB
:102AA00006F0F8F9284A294D294B1268D5F89410F8
:102AB00001921B68019A234C0B4493424FF0020190
:102AC000216005D901210C2006F0E4F902B070BDA7
:102AD000204B1E68002130460AF012F8D8B1D5F814
:102AE0009C001A4D09F0FCFD314609F0EBFF00286F
:102AF000E8D101210B2006F0CDF995F8C030032272
:102B000022605BB10E4B02221A7000210C2006F0ED
:102B1000C1F902B070BD06F10046E0E7112006F0F1
:102B2000BFF9012808D0122006F0BAF90128ECD12B
:102B3000034B03221A70E8E7014B02221A70F2E7F6
:102B40007494FF1F3095FF1F74B7FF1FFC92FF1F87
:102B50003895FF1FB092FF1FF0B56D4E6D4D346874
:102B60002B689C4287B03AD014F0010156D014F083
:102B700002014AD014F004013ED0E3070FD52B68C0
:102B8000DF070CD4644F3A68002A00F09E80634B44
:102B90001B680193019B934200F289803468A0076F
:102BA0000DD52B6899070AD45D4F3A68002A3ED0AC
:102BB0005A4B1B680393039B93425AD834686207AD
:102BC0000DD52B685B070BD4564F3A68002A3FD0CF
:102BD000524B1B680593059B934258D834680CB13F
:102BE00007B0F0BD2146162005F0D4FF214617207E
:102BF00005F0D0FF07B0F0BD052005F0CBFF2B6836
:102C0000346803F0FB032B60B7E7172005F0C2FF21
:102C10002B68346803F0FD032B60ABE7162005F04A
:102C2000B9FF2B68346803F0FE032B609FE73E4B2F
:102C30001B68002B56D1FF21172005F0ABFF374B47
:102C40003A4A19680291029912680A443A60B0E758
:102C5000354B1B68002B50D1FF21052005F09AFF52
:102C60002E4B324A19680491049912680A443A605A
:102C7000AFE72F4B1720D3F8981005F08BFF2B6888
:102C8000346843F0020300222B603A6097E7284B38
:102C90000520D3F8981005F07DFF2B68346843F0C9
:102CA000040300222B603A60002C99D19AE7204B54
:102CB0001620D3F8981005F06DFF2B68346843F0A8
:102CC000010300222B603A6069E7FF21162005F01E
:102CD00061FF124B154A19680091009912680A4465
:102CE0003A6055E7134808F0FBF90C21124807F049
:102CF00067FF104808F0F4F99DE70E4808F0F0F976
:102D00000C210E4807F05CFF0A4808F0E9F9A3E738
:102D10003095FF1FCC93FF1F4C94FF1F74B7FF1F0C
:102D20005094FF1F5494FF1F4C87FF1F6C87FF1F99
:102D3000FC92FF1FEC87FF1F40130100501301009E
:102D40002DE9F047534EDFF870813368DFF86C915E
:102D5000D3F88400504D0F2105F00EFB0023012213
:102D600022214E48C8F80030C9F8002007F028FF9B
:102D7000D8F80030132B20DC40F6E4473368B5F870
:102D800084A0D3F88400436B1C6905F077F8A4B2E3
:102D9000012107FB04F4B4FBF0F441485444A5F8C6
:102DA000844007F00DFF642006F0B0F8D8F800303A
:102DB0000133132BC8F80030E0DDB5F88430394A10
:102DC0003948A2FB03129B1A02EB5303C3F30F1300
:102DD0001946A5F8843008F0D3F91D21334807F0CF
:102DE000EFFE0221324807F0EBFE2F4808F078F999
:102DF00000231A460E213068C8F8003004F0B8FFEE
:102E0000022322212548C9F8003007F0D9FED8F85E
:102E10000030132B20DC40F6E4473368B5F8869089
:102E2000D3F88400436B1C6905F028F8A4B2012193
:102E300007FB04F4B4FBF0F419484C44A5F88640B1
:102E400007F0BEFE642006F061F8D8F800300133C8
:102E5000132BC8F80030E0DDB5F88630114A12486F
:102E6000A2FB03129B1A02EB5303C3F30F13194681
:102E7000A5F8863008F084F91D210E4807F0A0FE61
:102E800002210B4807F09CFE0748BDE8F04708F018
:102E900027B900BF0C95FF1FFC92FF1F60130100B4
:102EA000A413010087611886EC87FF1F84130100BB
:102EB00044140100A8130100AC92FF1F5487FF1FA8
:102EC000F8B5804B804C814D1B68286D40F2513124
:102ED00008222160E271002B00F0E28009F000FC82
:102EE000296A064609F050FC794909F04DFC09F0C1
:102EF00037FE80B203126372764A774B12681B6802
:102F0000A96920721512A37230461B12E372227354
:102F1000657309F039FC6E4909F036FC09F020FEB2
:102F200083B21A1268496D48A373E27304F078FD06
:102F30006B4B6C4A1B6812886349A272DFB207EBC5
:102F4000870503EB83066D0046F3D71612121B129A
:102F50002772257366730825002640F255375F48AF
:102F6000E27263722760E571A673E67304F058FDA0
:102F700040F256335C482360E571FDF799FD5B49EB
:102F800009F002FC09F0ECFD20725748FDF790FDB6
:102F9000564909F0F9FB09F0E3FD554A5349C0F3DE
:102FA00007231068637209F0A3FC09F0B3FD40FA2F
:102FB00005F203464C48E272A372FDF7A9FD4449AD
:102FC00009F0E2FB09F0A6FD20734748FDF7A0FDDC
:102FD0003F4909F0D9FB09F09DFD3B49A67340F339
:102FE00007233E486373E67304F01AFD022005F0E0
:102FF0008DFF404A404B17785678D178187892F870
:1030000002E02772DA785F786672E1729E78207348
:1030100040F25A332C493148E57184F80AE067736D
:10302000A673E273236004F0FBFC344B2649187846
:103030005E789A782072187993F803E05F79667267
:10304000A2729E79DA79207340F25E33234884F8C5
:103050000BE0E2732360E5716773A67304F0E0FC94
:10306000022005F053FF264BE5711E785A7893F83D
:1030700002E0D8781F799D79267262725E79DA79DA
:10308000E0724FF45C7384F80AE027736673A573EB
:10309000E27323600C491148BDE8F84004F0C0BC5D
:1030A00009F01EFB174B06461B68174880FB0320E0
:1030B000DB17C3EB601009F013FB696909F064FBCF
:1030C00031460FE79892FF1F2095FF1FFC92FF1FCC
:1030D000000020410495FF1F7C92FF1FCCB5FF1F0D
:1030E0003887FF1F3C87FF1FA495FF1F0000C842C1
:1030F000B092FF1FF892FF1FD093FF1F2C87FF1F76
:103100005887FF1F6887FF1F1F85EB5170B50A485E
:10311000FDF786FD094B0A480325022400224FF4DF
:103120000076DD711C725A729A721E601946BDE8F3
:10313000704004F075BC00BFA495FF1F2095FF1FD1
:10314000CCB5FF1FF8B5194C002204F10805234641
:1031500003F8012FAB42FBD1154E164808234FF45C
:1031600040723146F371326004F05AFC002304F8D7
:10317000013FAC424FF00007F9D14FF444720523F0
:103180000B490C483260F3714FF4007404F048FCB2
:10319000022303227772B7723460F27133720449EA
:1031A0000448BDE8F84004F03BBC00BF2795FF1F72
:1031B0002095FF1FCCB5FF1F38B5164C164A236863
:1031C000101D12F8011F904241EA0323F9D1236038
:1031D000124C03F100432360114BDB6F022B11D023
:1031E000104B1B68012B00D038BD0F4807F078FF4B
:1031F00021680D4807F0C4FF03210C48BDE83840A2
:1032000007F0DEBC20680A4D09F06AFA2860FEF774
:10321000B3FFE5E75894FF1FC792FF1FFC94FF1F01
:10322000FC92FF1F4894FF1FEC87FF1FD41301007F
:103230009492FF1F30B53C4C3C4883B0214604F0CB
:10324000E7FA236840F2C232934252D0A3F58C626F
:103250001F2A48D9A3F5FC630F2B3FD9344B1B68B9
:10326000012B01D003B030BD324B1B68012BF9D1CB
:10327000314B32481B6801930A220023019907F061
:103280003FFF2268284B002ADB7945DB2C492D487B
:103290000AF042FA2B480AF073FA0146294807F06F
:1032A0008FFC2568204B15F0804526D1DB798BB14A
:1032B000631925491A7A23480AF02EFA21480AF0A0
:1032C0005FFA01461F4807F07BFC0135E379EDB258
:1032D000AB42EDD8194807F003FFC3E712491B487A
:1032E000FDF730FBBAE710491848FDF72BFB2368C0
:1032F000B0E7FFF761FF2368A8E7154D114C0FCD2C
:103300000FC495E8030044F8040B204620F8141974
:10331000152107F055FCDDE70E490A4822F060420E
:103320000AF0FAF9B6E700BFC092FF1FCCB5FF1F45
:103330004C87FF1F4894FF1F74B7FF1FEC87FF1FC8
:10334000001401007894FF1F2C140100A495FF1FA6
:1033500014140100D8130100A24B1B78052B00F0B8
:10336000A1802DE9F04FA04CA04EA14D626EE36DFF
:10337000A048326083B02B60FDF728FCE16A09F0B9
:10338000A1FB08B100232B609A48FDF71DFCA16A40
:1033900009F0B6FB10B1002333602B609548FDF7B0
:1033A00061FBE16809F0ACFB08B100232B60914898
:1033B000FDF758FBE16809F0A3FB08B100232B607F
:1033C0008C48894FFDF726FB216909F07BFB00281B
:1033D0006ED0002333602B68854F002B53DD85486A
:1033E000DFF80482FDF7F0FB216B09F06BFB00288E
:1033F00040F0C480804B7F481B687B4F012B00F05E
:10340000FD80FDF72FFBE1698046606909F0B2F8A5
:103410000146404609F074FB002834D0286809F0C2
:103420005FF982467348FDF71DFBD7F81480834689
:10343000F969404609F09EF88146386E09F050F966
:103440000446F86D09F04CF9214609F093F8494615
:103450000746584609F08EF80146384609F094F9B7
:1034600049460746404609F085F80146384609F0C6
:103470003FFA214609F080F80146504609F07AF8F3
:1034800009F048FB28603368584A002BAFBF2B680F
:103490002B6800211160002B01DA00232B6003B0A0
:1034A000BDE8F08F5149524A00230B60136070470A
:1034B0005048FDF7AFFAB96909F004FB002888D13C
:1034C0003368DFF82891002B85DD4A48FDF77EFB45
:1034D000796B09F015FB002840F0B3804548424F56
:1034E000FDF798FA216909F00BFB002800F09F8096
:1034F0004048DFF8F480FDF78DFAD4F8BC10074699
:10350000A06909F039F80146384609F0DBFA0028CD
:103510003FF461AF306809F0E3F882463548FDF7C3
:1035200079FA8346D8F86400D8F8187009F0D8F80A
:1035300039468146584609F01DF849468346002021
:1035400009F018F80146584609F01EF9D8F8BC10E1
:103550008346384609F010F8394609F00BF8014661
:10356000584609F0C5F9494609F006F801465046A3
:1035700009F000F809F0CEFA30602CE7386809F05D
:10358000AFF883461B48FDF71FFB0190D8F85C009D
:10359000D8F82CA009F0A4F8019B814651461846A2
:1035A00008F0E8FF49460190002008F0E3FF019B86
:1035B0000146184609F0E8F851460190D8F8300065
:1035C00008F0D8FF019B0146184609F091F94946D9
:1035D00008F0D2FF0146584608F0CCFF09F09AFAED
:1035E000386007E77494FF1FFC92FF1F0495FF1FCC
:1035F0007C92FF1FA495FF1F9892FF1FFDF732FAE0
:10360000E1698046206A08F0B5FF0146404609F0AE
:1036100077FA00283FF437AF286809F061F882464E
:103620001E48FDF71FFAD7F82080834600E71B48A5
:10363000FDF7F0F9B96909F063FA00287FF458AF93
:10364000C9E6D9F8000009F04BF882461348FDF7A7
:10365000BDFA0190786ED7F8348009F041F8019BEB
:1036600083464146184608F085FF0146584609F052
:103670008BF841468346B86A08F07CFF01465846FD
:1036800009F036F9002108F077FF0146504608F0AE
:1036900071FF09F03FFAC9F800001FE7A495FF1F6A
:1036A00008B5274807F01CFD0721264807F088FACF
:1036B000112005F0F5FB0621F8B1234807F080FA48
:1036C000122005F0EDFB062100B3204807F078FA40
:1036D000122005F0E5FB062108B31D4807F070FA3B
:1036E000132005F0DDFB062110BB1A4807F068FA2D
:1036F0001348BDE8084007F0F3BC174807F060FA2C
:10370000122005F0CDFB06210028DED1134807F07A
:1037100057FA122005F0C4FB06210028DDD110481D
:1037200007F04EFA132005F0BBFB06210028DCD081
:103730000C4807F045FA0248BDE8084007F0D0BC45
:10374000EC87FF1F381401004014010050140100E1
:10375000601401007814010048140100581401009D
:10376000681401007014010010B5254C2368042B67
:1037700027DC01210B2005F08DFB01210C2005F039
:1037800089FB0121142005F085FB0121152005F09E
:1037900081FBFF21162005F0FDF9FF21172005F020
:1037A000F9F9FF21052005F0F5F9FF21062005F0C4
:1037B000F1F9236801330A2B2360C4BF002323607F
:1037C00010BD00210B2005F065FB00210C2005F049
:1037D00061FB0021142005F05DFB0021152005F0A0
:1037E00059FB0021162005F0D5F90021172005F01E
:1037F000D1F90021052005F0CDF90021D6E700BF61
:103800001C95FF1F08B5FF2005F008FEFF2005F0FE
:1038100005FEFF20BDE8084005F000BE70B582B08F
:1038200005F0D6FE022801DC02B070BD05F0E0FE16
:10383000C0B22328F8D1254C05F0DAFE23680093A6
:10384000009EC5B207E023680193019B9B1B642B7C
:10385000EAD805F05BFB05F0BBFEA8424FF0010083
:10386000F1DB05F0C5FEC0B2012813D00228DBD180
:1038700005F0BEFE164C2368F0B9013B23600A2117
:10388000144805F023FE2168134807F079FCFFF780
:10389000B9FFC9E705F0ACFE104CE36D90B90A3BE7
:1038A000E3650A210E4805F011FEE16D0A4807F0B4
:1038B00067FCFFF7A7FFB7E70133642BC8BF64239A
:1038C0002360DCE70A33E365EBE700BF74B7FF1F53
:1038D0006887FF1F8C140100C087FF1FFC92FF1F29
:1038E000801401002DE9F041122182B07648774C16
:1038F000774E05F0EBFD774B0A221978204600231E
:1039000007F0FEFBFFF77EFF0821734805F0DEFDA0
:10391000724B2046196807F033FCFFF773FF0C2148
:103920006F4805F0D3FD6F4B6F49186808F0E0FF52
:1039300008F080FA002502460B460095204607F065
:1039400027FCFFF75FFF0921684805F0BFFD3046FF
:10395000FDF7DEF808F06EFA009502460B462046A9
:1039600007F016FCFFF74EFF0C21614805F0AEFD95
:103970003046FDF72BF908F05DFA009502460B463C
:10398000204607F005FCFFF73DFF0D21594805F0E3
:103990009DFD3046FDF718F908F04CFA00950246F7
:1039A0000B46204607F0F4FBFFF72CFF0921524895
:1039B00005F08CFD3046FDF77BF8504908F0E4FE39
:1039C00008F038FA009502460B46204607F0E0FB67
:1039D000FFF718FF0C214A4805F078FD3046FDF747
:1039E00019F8484908F0D0FE08F024FA009502467C
:1039F0000B46204607F0CCFBFFF704FF0D214248A1
:103A000005F064FD3046FDF72DF83E4908F0BCFE98
:103A100008F010FA009502460B46204607F0B8FB66
:103A2000FFF7F0FE0E21394805F050FD3046FDF756
:103A300019F880463046FCF7EDFF3249074640460C
:103A400008F0A2FE2F490646384608F09DFE0146C2
:103A5000304608F08FFD08F0EDF9009502460B4660
:103A6000204607F095FBFFF7CDFE0C21284805F016
:103A70002DFD284B2046197807F082FBFFF7C2FE88
:103A80000921254805F022FD244B2046196807F03E
:103A900077FBFFF7B7FE0A21214805F017FD214B00
:103AA0002046D96D07F06CFBFFF7ACFE0A211E48DB
:103AB00005F00CFD1D4B2046196807F061FB02B0B4
:103AC000BDE8F041FFF79EBE98140100C087FF1FBC
:103AD000A495FF1F7494FF1FAC1401003887FF1FCB
:103AE000B8140100B092FF1F0000C842C8140100C2
:103AF000D4140100E4140100F4140100000020417A
:103B00000015010000007A44101501002015010085
:103B1000301501001495FF1F401501002487FF1F79
:103B200080140100FC92FF1F8C1401006887FF1FA6
:103B30002DE9F047B64DD5F8B030042B4ED0032B0D
:103B400000F08E80012B00F0C680022B01D0BDE872
:103B5000F087B04CB048237240F20E320123214668
:103B60002260E37103F05CFFAC4B1B685B00FF2B32
:103B7000C8BFFF236372AA4B4FF4417020601B68DB
:103B8000A84840222272042180FB0320DB17C3EBEC
:103B90006010E17108F0A4FD696908F0F5FD0646C2
:103BA000286D08F09DFD0146304608F0EDFD9E4968
:103BB000054608F0A5FF002800F021812946284687
:103BC00008F0DAFC08F0CCFF80B20312E072A372B6
:103BD00090499148BDE8F04703F022BF904B8D4CCF
:103BE0001B689048A2799149216080FB0310DB1784
:103BF0000821C3EB601042F00103A371E17108F0EA
:103C00006FFD696908F0C0FD0646286D08F068FD83
:103C10000146304608F0B8FD854908F0B5FD08F0CA
:103C20009FFF7E4B834A1B68126893FBF2F380B2BE
:103C300000261A120712607221467748E372A272B8
:103C4000277226736673A673E67303F0E9FEA27902
:103C5000D5F8B03066F30002032BA2717FF472AF87
:103C60006F4A704812686B4C80FB0210D21701211A
:103C7000C2EB601040F2FF27E8220726A3726272AF
:103C80002760E671217208F02BFD696908F07CFD60
:103C90000646286D08F024FD0146304608F074FD04
:103CA000634908F071FD08F05BFF5C4B614A1B68DB
:103CB000126893FBF2F382B21E1217122146564885
:103CC0006373E2722773A67303F0AAFED5F8B030CF
:103CD000012B7FF43AAF584B4E4C1B6823600722F0
:103CE00080231020E271237205F0DAF8002840F0FA
:103CF0008D80524B1B68DFF828814A48474F4D4E54
:103D0000DFF81091316803EB83035B001A126272D3
:103D1000D8F80020A3723B6893FBF1F380FB0210FC
:103D2000D217C2EB60101A126273A37308F0D8FCAA
:103D3000696908F029FD8246286D08F0D1FC01462A
:103D4000504608F021FD3E4B196808F013FC384935
:103D500008F01AFD08F004FF80B2031249462073F0
:103D60002D48E37203F05CFE022005F0CFF8354BDE
:103D70001B682360072280231020E271237205F064
:103D80008FF8002840D12D4B1B6803EB83035B00A9
:103D90001A1289F80A3089F80920D8F80030214A27
:103DA000D81782FB0323C0EB631008F099FC696904
:103DB00008F0EAFC8046286D08F092FC0146404677
:103DC00008F0E2FC204B196808F0D4FB184908F011
:103DD000DBFC08F0C5FE82B24FEA222E30683B6859
:103DE000227393FBF0F30B490B48A3731A1284F868
:103DF0000BE0627303F014FED5F8B030A5E60122A3
:103E00009023A272E372E3E6104BBDE70F4B71E71C
:103E1000FC92FF1F2095FF1FCCB5FF1F7C92FF1F58
:103E20006887FF1F1F85EB5100004843F4E5061823
:103E3000000020415087FF1F6487FF1F4487FF1F3A
:103E4000D493FF1F3487FF1FB892FF1F4887FF1FBF
:103E500038B5164D164A1748294604F069FB18B1C3
:103E6000154B1B68012B00D038BD12211348144C90
:103E700006F0A6FE296813480023102207F040F937
:103E8000104807F02DF904F1080514F8011F0D483A
:103E900000230A2207F034F9092006F015FFA54295
:103EA000F3D10848BDE8384007F01AB9A092FF1FC7
:103EB000A492FF1F4095FF1F3C95FF1F4C1501006A
:103EC000A392FF1FEC87FF1FFA2810B504461BD0F2
:103ED000B0F5FA7F0FD11021134804F0DFFBC8B111
:103EE0000F21124806F06CFE114807F0F9F8114B4B
:103EF000A3F8C44010BD0F210F4806F061FE0C4826
:103F0000BDE8104007F0ECB80F21074804F0C6FBED
:103F10000028E5D11121094806F052FE0448BDE809
:103F2000104007F0DDB800BF4095FF1F601501008D
:103F3000EC87FF1FFC92FF1F841501007015010024
:103F40002DE9F04FBF4B1B78032B83B00DD0BE4D36
:103F50002C68022C00F0AE800134022C2C6001DDB4
:103F600000232B6003B0BDE8F08FB84FB64DD7F8F3
:103F7000B060042E00F0C080032E00F0B780012E48
:103F800000F00481022E48D12C68DFF8BC92002C8E
:103F900000F0D781012CDCD1DFF8B882AC4BAD4A00
:103FA0001B68AD485B00FF2BC8BFFF235370AB4BB2
:103FB0001B6880FB0320DB17C3EB6010402188F8EF
:103FC000001008F08DFB796908F0DEFB0446386DBF
:103FD00008F086FB0146204608F0D6FBA0490446BF
:103FE00008F08EFD002800F024822146204608F0CB
:103FF000C3FA08F0B5FD80B2031288F8030088F810
:104000000230042200238DE804014FF441711A4666
:10401000944804F059FAD7F8B060062E6AD18F4B55
:104020008D481B68904C80FB0320DB170022082181
:10403000C3EB60105026DC23227263722660E171AC
:1040400008F04EFB796908F09FFB0646386D08F0D2
:1040500047FB0146304608F097FB8149074608F0C8
:104060004FFD002840F016810722D023A272E37290
:10407000774B7D4E18680023237308F031FB3946D7
:1040800008F082FB7949074608F01CFD002800F083
:104090000C817749384608F02BFC08F061FD80B2AE
:1040A0000312B073737301236F497248E37303F013
:1040B000B7FC1FE0654B93F8CC0000283FF450AFED
:1040C000644EA023337008F00BFB6B4908F05CFBD7
:1040D00008F046FD002370701A468DE850004FF43A
:1040E000EA71604804F0F0F92C6835E72C68002C80
:1040F00000F0DF802C682CE72C68002CFAD1DFF868
:104100005CA15548DAF80030DFF84881DFF84091CB
:104110005A4E80FB0320DB17C3EB601008F0E0FA77
:10412000796908F031FB8246386D08F0D9FA01460A
:10413000504608F029FB524908F026FB08F010FD14
:10414000CDF8048080B2D9F80030366893FBF6F6DB
:10415000021208234FEA262E009388F8002088F8E0
:1041600001002346012247493E4888F8036088F849
:10417000044088F8054088F8064088F8074088F829
:1041800002E004F0A1F9D7F8B060F5E62B68002B47
:1041900000F0F280012BADD1DFF8C0A0DFF8B480D1
:1041A000DFF8AC90354E2B4C8023102088F800307F
:1041B00004F076FE002840F04381334B1B6826480C
:1041C00003EB83035B001A12A370DAF8003062700D
:1041D00080FB0320DB17C3EB601008F081FA7969DC
:1041E00008F0D2FA0446386D08F07AFA0146204603
:1041F00008F0CAFA254B196808F0BCF9204908F004
:10420000C3FA08F0ADFC224AD9F8003011683468CE
:1042100093FBF4F480B2072200230092021288F884
:104220000400261288F80320CDF804801A460D48B1
:1042300088F8056088F8064004F046F9D7F8B060C1
:10424000A0E600BF7494FF1FD893FF1FFC92FF1FCE
:104250007C92FF1FA492FF1F1F85EB516887FF1FF1
:10426000000048434095FF1F2095FF1F00404E452A
:1042700000007043CCB5FF1F5C8FA23F5087FF1F2B
:1042800000002041F4E506184487FF1FB892FF1F85
:104290003487FF1F6B49384608F076FA08F060FC57
:1042A00080B20312E072A372E2E696237073B373D6
:1042B000F9E6DFF8B4A16448DAF80030DFF8AC8141
:1042C000DFF8AC9188F8026080FB0320DB17012245
:1042D000C3EB6010E82388F8002088F8013008F06C
:1042E000FFF97969594E08F04FFA8246386D08F0A7
:1042F000F7F90146504608F047FA524908F044FAE7
:1043000008F02EFC80B2CDF8048001120722D9F803
:104310000030366888F8030093FBF6F600924FEA07
:10432000262E88F804102346224640F2FF214848F2
:1043300088F8056088F806E004F0C6F8D7F8B060A1
:104340001DE6DFF82881CDF804800423009322467F
:10435000234640F20E313E4888F8006088F801405C
:1043600088F8024088F8034004F0AEF8D9F800302D
:10437000012B7FF450AE11E6DFF8F080802310208F
:1043800088F8003004F08CFD002850D1314B1B68B8
:10439000DFF8D4A02C48DFF8D8902C4E2E4C316892
:1043A00003EB83035B001A1288F80120DAF800207F
:1043B00088F80230D9F8003093FBF1F380FB02104B
:1043C000D217C2EB6010191288F8063088F8051071
:1043D00008F086F9796908F0D7F98346386D08F056
:1043E0007FF90146584608F0CFF91C4B196808F0D0
:1043F000C1F8144908F0C8F908F0B2FB184BCDF821
:104400000480196880B2002307224FEA202E009210
:1044100088F804001A460E4888F803E004F054F8BF
:104420002B68012B3FF4BFAED4F8B060AAE50D4B6A
:10443000ADE70122902388F8022088F80330E0E5F8
:10444000084BBBE6000020411F85EB515087FF1F42
:104450004095FF1F4487FF1FFC92FF1FD493FF1F4F
:104460006487FF1F4887FF1F6887FF1FA492FF1FF5
:104470007C92FF1F10B504F0DFF90B48FCF706FA39
:104480000A48FDF751FA0A4A0A4812680023012136
:1044900003F09AFF942006F0C1FF044603F03AFCB3
:1044A000054B1C6010BD00BFA495FF1FE893FF1FC4
:1044B0004087FF1FD492FF1F0C95FF1FF0B54FF4EC
:1044C0007A6085B004F022FD0021112004F0F6FC92
:1044D0000021102004F0F2FC0021122004F0EEFC78
:1044E0000021132004F0EAFC01210B2004F0E6FC7B
:1044F00001210C2004F0E2FC0121142004F0DEFC78
:104500000121152004F0DAFC0121162004F0D6FC6C
:104510000121172004F0D2FC0121052004F0CEFC7B
:104520008E4C8F4D0121062004F0C8FC01210D2086
:1045300004F0C4FC208808F0CFF80146162004F0EF
:1045400027FC208808F0C8F80146172004F020FC5A
:10455000208808F0C1F80146052004F019FC2088E5
:1045600008F0BAF800240146062004F011FC00947B
:1045700023467C4A7C497D4803F05AF8E6B232462D
:1045800077497A4803F002F82B79754977486FF339
:104590000003013432462B7102F0EEFF082CEDD1FE
:1045A0000924E6B232466E49704802F0EFFF2B79DB
:1045B0006B496E4843F00103013432462B7102F01F
:1045C000DBFF0D2CEDD16A4C23681021D3F8840059
:1045D00003F000FD23681021D3F8840003F08EFD62
:1045E00023680221D3F8840003F04AFC23680221E7
:1045F000D3F8840003F0D2FD23680F21D3F88400A0
:1046000003F0BAFE0C215B4806F0DAFA5A4806F0CD
:1046100067FD1621594806F0D3FA574806F060FDA9
:104620004FF4E131564806F0FBFB534806F058FDC5
:104630001721544806F0C4FA4F4806F051FD524B7A
:104640001B789A0600F1BC804F4B1B781B0700F1CA
:10465000C3804D4B1B785F0700F1CA804A4B1B7823
:104660009E0700F1D180494B1B781D0600F1D880D0
:10467000464B1B785C0600F1DF80444B1B789806A4
:1046800000F1E680414B1B78590700F1ED803F4B6C
:104690001B781A0700F1F4803C4B1B789B0700F154
:1046A000FB80354806F01CFD72B6394A4CF22050AA
:1046B0004DF62811108020231180013BFDD1354C8F
:1046C0003548364900234FF48055258003800B8000
:1046D00032F80E3C9BB243F0D30322F80E3C62B694
:1046E00018212F482F4D06F06BFA234806F0F8FCEE
:1046F00005F1D0062F462C46601B04F0E5F804F8BF
:10470000010BB442F8D13B78122B01D0FDF722F90E
:10471000D7F8C810244806F033FC0420FCF7E0FF6B
:10472000224B002201210D201A6004F0B3FB796DA9
:104730001F48FCF7BFF97A6C97F840101C48FCF74B
:10474000BBF91C4B1C491A68039203981B6802931F
:10475000029A1A4B08601A6005B0F0BD2887FF1F47
:10476000DC93FF1F68B7FF1F48E80100CCB5FF1FAF
:104770000C95FF1F94150100EC87FF1FA415010085
:10478000C087FF1FBC15010001F0074000F0074083
:104790000E20054004200540062005401620054057
:1047A000C0160100FC92FF1FD487FF1F8892FF1FD5
:1047B000A495FF1F74B7FF1F3895FF1FE493FF1FD9
:1047C0002121394806F0FCF9384806F089FC384BBD
:1047D0001B781B077FF53DAF0C21364806F0F0F93A
:1047E000324806F07DFC324B1B785F077FF536AF11
:1047F0000E21314806F0E4F92C4806F071FC2C4BF0
:104800001B789E077FF52FAF17212C4806F0D8F9AB
:10481000264806F065FC2A4B1B781D067FF528AF5D
:104820000E21284806F0CCF9204806F059FC244B0C
:104830001B785C067FF521AF1221234806F0C0F9F2
:104840001A4806F04DFC1E4B1B7898067FF51AAFF0
:1048500013211E4806F0B4F9144806F041FC184B29
:104860001B7859077FF513AF1C21194806F0A8F9EA
:104870000E4806F035FC124B1B781A077FF50CAF7B
:104880001921144806F09CF9084806F029FC0C4B45
:104890001B789B077FF505AF18210F4806F090F9AC
:1048A000024806F01DFCFCE6D4150100EC87FF1F52
:1048B00001F00740F8150100081601001816010064
:1048C00000F00740301601004016010054160100A8
:1048D0006816010088160100A416010010B50146F3
:1048E000044600230A22184806F00AFC164806F07F
:1048F000F7FBB4F5964F25D016D9B4F5164F11D065
:10490000B4F5E13F15D10421104803F0E9FE104B46
:10491000C3F8C84005F014F921460E48BDE8104020
:1049200006F02EBB0221EFE7B4F5165F01D100219E
:10493000EAE70F21084806F043F90348BDE81040B4
:1049400006F0CEBB0121DFE7EC87FF1F4095FF1F7C
:10495000FC92FF1FD487FF1FDC160100F0B5954CB9
:10496000954D83B006F0C6F823682860042B00F04C
:104970009E82022B29D0092B70D0082B40F0968004
:10498000322800F0EC83712800F09D80312840F03F
:104990009E8006F0EBF8002840F311878748884E88
:1049A00006F030FDC0B286F84000022894BF0146F0
:1049B0000021726C834888BF86F84010FCF77CF8B1
:1049C000012369202360286018E3A0F13102422A04
:1049D0007DD8DFE812F07F078B079907AB07F50753
:1049E00004087C0011087C007C007C007C007C00BA
:1049F0007C007C007C007C007C007C007C007C00D7
:104A00007C007C007C007C007C007C007C007C00C6
:104A10007C007C007C007C007C007C007C007C00B6
:104A20007C007C007C007C007C007C007C007C00A6
:104A30007C007C007C007C007C0079077C007C0092
:104A40007C007C007C007C007C007C007C007C0086
:104A50007C007C007C0078007C001E08332801F07C
:104A60004C8410DC312801F07A8432282FD10123C4
:104A7000236006F07BF8002815DD504806F0C2FCE4
:104A8000FFF722FA0FE034281BD10123236006F040
:104A90006DF8002807DD494806F0B4FC642303FBE9
:104AA00000F0FFF71BFF782023682860072B40F0F9
:104AB000AB80332801F02A8440F38682342801F049
:104AC0005C84712803D1002373202360286073283D
:104AD00008BF002B0CBF01200020002867D03748FA
:104AE00006F0FEFA0421384806F06AF8334806F06A
:104AF000F7FA1021354806F063F8304806F0F0FA6E
:104B00001321334806F05CF8324B2C48196806F044
:104B100037FB2A4806F0E4FA14212F4806F050F833
:104B2000264806F0DDFA1E212C4806F049F82348F5
:104B300006F0D6FA15212A4806F042F81F4806F07A
:104B4000CFFA1E21274806F03BF81C4806F0C8FAA9
:104B50002021254806F034F8184806F0C1FA19213A
:104B6000224806F02DF8154806F0BAFA162120481A
:104B700006F026F8114806F0B3FA12211D4806F097
:104B80001FF80E4806F0ACFA0F211B4806F018F883
:104B90000A4806F0A5FA0D21184806F011F8074852
:104BA00006F09EFA164A002101231160236003B02B
:104BB000F0BD00BF6094FF1F7892FF1FEC87FF1FBE
:104BC000FC92FF1FA495FF1F0C2001001420010080
:104BD000282001002487FF1F3C20010054200100F1
:104BE000742001008C200100AC200100D0200100C5
:104BF000EC200100042101001821010028210100FE
:104C00004C87FF1F23682868062B40F08D80A0F199
:104C10003102402A3FF65BAF01A151F822F000BFFC
:104C200065580000D1570000FB57000021580000D4
:104C30004758000091580000B5580000CF4A0000C6
:104C4000CF4A0000CF4A0000CF4A0000CF4A000000
:104C5000CF4A0000CF4A0000CF4A0000CF4A0000F0
:104C6000CF4A0000CF4A0000CF4A0000CF4A0000E0
:104C7000CF4A0000CF4A0000CF4A0000CF4A0000D0
:104C8000CF4A0000CF4A0000CF4A0000CF4A0000C0
:104C9000CF4A0000CF4A0000CF4A0000CF4A0000B0
:104CA000CF4A0000CF4A0000CF4A0000CF4A0000A0
:104CB000CF4A0000CF4A0000CF4A0000CF4A000090
:104CC000CF4A0000CF4A0000CF4A0000CF4A000080
:104CD000CF4A0000CF4A0000CF4A0000CF4A000070
:104CE000CF4A0000CF4A0000CF4A0000CF4A000060
:104CF000CF4A0000CF4A0000CF4A0000CF4A000050
:104D0000CF4A0000CF4A0000CF4A0000CF4A00003F
:104D1000CF4A0000CF4A0000CF4A0000CF4A00002F
:104D2000C74A000023682868052B15D1332801F0F5
:104D30004C8340F39181352801F03183C1F25683D1
:104D400071287FF4C4AECF4A002373201360236020
:104D50002860BCE623682868032B40F0A480A0F1FB
:104D60003002422A3FF6B3AE01A151F822F000BF53
:104D70007D4E0000776100009F610000E36000004D
:104D800005610000276100004F6100000160000024
:104D90001F60000043600000CF4A0000CF4A0000BF
:104DA000CF4A0000CF4A0000CF4A0000CF4A00009F
:104DB000CF4A0000CF4A0000CF4A0000CF4A00008F
:104DC000CF4A0000CF4A0000CF4A0000CF4A00007F
:104DD000CF4A0000CF4A0000CF4A0000CF4A00006F
:104DE000CF4A0000CF4A0000CF4A0000CF4A00005F
:104DF000CF4A0000CF4A0000CF4A0000CF4A00004F
:104E0000CF4A0000CF4A0000CF4A0000CF4A00003E
:104E1000CF4A0000CF4A0000CF4A0000CF4A00002E
:104E2000CF4A0000CF4A0000CF4A0000CF4A00001E
:104E3000CF4A00006B600000275B0000C5600000E7
:104E400089600000A76000007F5F0000DD5A00005D
:104E5000015B0000CF4A0000CF4A0000CF4A0000AB
:104E6000CF4A0000CF4A0000CF4A0000CF4A0000DE
:104E7000CF4A0000F55F0000D55F000005F076FE28
:104E8000002841F333828048804E06F0BBFA0127A8
:104E90000346014662227E48736527602A60FBF75D
:104EA00009FE23682868012B7FF411AEA6E0A0F16B
:104EB0003002412A3FF60BAE01A151F822F000BFAB
:104EC000C15A0000D95A0000235A00003B5A000082
:104ED000615A0000A55A0000695A00007B5A000080
:104EE0007F5A0000835A0000CF4A0000CF4A0000DA
:104EF000CF4A0000CF4A0000CF4A0000CF4A00004E
:104F0000CF4A0000CF4A0000CF4A0000CF4A00003D
:104F1000CF4A0000CF4A0000CF4A0000CF4A00002D
:104F2000CF4A0000CF4A0000CF4A0000CF4A00001D
:104F3000CF4A0000CF4A0000CF4A0000CF4A00000D
:104F4000CF4A0000CF4A0000CF4A0000CF4A0000FD
:104F5000CF4A0000CF4A0000CF4A0000CF4A0000ED
:104F6000CF4A0000CF4A0000CF4A0000CF4A0000DD
:104F7000CF4A0000CF4A0000CF4A0000CF4A0000CD
:104F8000CF4A0000655A0000CF4A0000CF4A000017
:104F9000CF4A0000CF4A0000CF4A0000CF4A0000AD
:104FA000CF4A0000CF4A0000CF4A0000CF4A00009D
:104FB000CF4A0000CF4A0000CF4A0000CF4A00008D
:104FC000CF4A0000C74A0000312801F0B2813228E0
:104FD0007FF47DAD05F0CAFD00287FF713AE2A48A7
:104FE0002A4E06F00FFA07F07BFB2A4907F0CCFBAC
:104FF00061230122F06322602B601846A0F1520366
:10500000262B01F26A81DFE813F0DE0868096809DF
:105010006809680968096809680968096809680908
:105020006809680968096809C1004C0B88022503F2
:10503000A5016809680968093A026809490B680905
:105040006809680968096809E3086809680968095E
:105050006809680968093501312801F0D5813228CD
:105060007FF435AD05F082FD00287FF773AE06486A
:10507000064E06F0C7F901226B23C6F89C00226099
:105080002B600BE0D092FF1FEC87FF1FFC92FF1FED
:10509000A495FF1F6F12833A05F02CFD05F066FD05
:1050A0000028F9D1914806F01BF8904806F018F84E
:1050B0008E4806F015F88D4806F012F88B4806F079
:1050C0000FF821218A4805F07BFD884806F008F892
:1050D0001521884805F074FDD6F89410834806F031
:1050E0004FF80221844805F06BFD804805F0F8FF79
:1050F0001E21824805F064FDD6F89C107B4806F01E
:105100003FF803217E4805F05BFD784805F0E8FF95
:105110001E217C4805F054FDD6F89810734806F01F
:105120002FF8724805F0DCFF1D21774805F048FD97
:10513000D6F8A4106D4806F023F86C4805F0D0FFAF
:105140001E21724805F03CFDD6F8A810674806F00D
:1051500017F8664805F0C4FF0523236027E505F02E
:1051600005FD002840F330836048694E06F04AF997
:1051700007F0B6FA674907F007FB0346024696F8C0
:1051800040106548736419E405F0B4FC05F0EEFCCA
:1051900005460028F8D155485D4E05F0A1FF53485B
:1051A00005F09EFF514805F09BFF504805F098FF21
:1051B0004E4805F095FF1F21584805F001FD4B486A
:1051C00005F08EFF1C21564805F0FAFC706A55491F
:1051D00007F0DAFA06F02EFE009502460B46434829
:1051E00005F0D6FF0221504805F0EAFC3F4805F0E3
:1051F00077FF23214D4805F0E3FCF06B494907F0A8
:10520000C3FA06F017FE009502460B46374805F034
:10521000BFFF0221444805F0D3FC344805F060FF8D
:105220001921434805F0CCFCB06B06F003FE0225C3
:105230000B46024600952D4805F0AAFF29463D4839
:1052400005F0BEFC294805F04BFF19213A4805F04E
:10525000B7FCB6F8B810254805F092FF032137488F
:1052600005F0AEFC214805F03BFF072323609EE4D8
:1052700005F040FC05F07AFC05460028F8D11B48F3
:10528000234E05F02DFF194805F02AFF174805F0B9
:1052900027FF164805F024FF144805F021FF1221CE
:1052A000274805F08DFC114805F01AFF0F4805F05E
:1052B00017FF0E4805F014FF1921224805F080FC65
:1052C00096F8C230002B41F0C28004211E4805F040
:1052D00077FC064805F004FF13211C4805F070FC1C
:1052E000024805F0FDFE0923236060E4EC87FF1F00
:1052F000041A0100281A010014190100401A0100C3
:1053000080120100601A0100801A0100A01A010039
:10531000FC92FF1F6F12833AA495FF1F60190100D2
:105320008019010000007A44F8170100A01901005B
:10533000C4190100E0190100E4190100001A01007C
:10534000F0200100101701002C1701009C1701002C
:1053500005F0D0FB05F00AFC05460028F8D1A54869
:10536000A54E05F0BDFEA34805F0BAFEA14805F024
:10537000B7FEA04805F0B4FE9E4805F0B1FE11212D
:105380009E4805F01DFC9B4805F0AAFE28219C487C
:1053900005F016FC70699B4907F0F6F906F04AFD26
:1053A000009502460B46934805F0F2FE022196480E
:1053B00005F006FC8F4805F093FE1621934805F092
:1053C000FFFBF0698F4907F0DFF906F033FD009528
:1053D0000B460246874805F0DBFE02218A4805F0AD
:1053E000EFFB844805F07CFED6F8B030002B32DDB0
:1053F0001D21874805F0E4FBF06D07F071F9854940
:1054000007F0C2F906F016FD022502460B4600958C
:10541000784805F0BDFE01217F4805F0D1FB7548B5
:1054200005F05EFE1F217D4805F0CAFB306E07F0D7
:1054300057F9784907F0A8F906F0FCFC00950246F8
:105440000B466C4805F0A4FE0121734805F0B8FB3B
:10545000684805F045FE1121714805F0B1FBD6F80A
:10546000B030062B00F2E486DFE813F02D07320798
:10547000280723071E071907DE0605F03BFB05F08A
:1054800075FB05460028F8D15A485B4E05F028FE0A
:10549000584805F025FE574805F022FE554805F00E
:1054A0001FFE544805F01CFE15215E4805F088FBE0
:1054B000504805F015FE18215B4805F081FB2B468E
:1054C0000A2296F840104B4805F01AFE494805F0AC
:1054D00007FE2821554805F073FB706C494907F019
:1054E00053F906F0A7FC00950B460246414805F02B
:1054F0004FFE0221444805F063FB3E4805F0F0FDF5
:1055000013214B4805F05CFB3A4805F0E9FD082300
:105510002360FFF74CBB05F0EDFA05F027FB0028F0
:10552000F9D13448344E05F0DBFD324805F0D8FDA2
:10553000304805F0D5FD2F4805F0D2FD2D4805F087
:10554000CFFD1F213B4805F03BFB2A4805F0C8FD75
:105550001E21394805F034FB264805F0C1FD1A210B
:10556000364805F02DFBF36F022B01F07880032BFA
:1055700001F06C80012B01F060800921304805F0BA
:105580001FFB1C4805F0ACFD14212E481A4F05F0F6
:1055900017FBB16F174805F0F3FD164805F0A0FDA5
:1055A0001C21294805F00CFBD6F88010114805F0A5
:1055B000E7FD104805F094FD1C21244805F000FB90
:1055C000D6F8AC100B4805F0DBFD0A4805F088FD65
:1055D000F56F25F00205012D00F0C4871321144852
:1055E00005F0EEFA034805F07BFD02232360FFF788
:1055F000DEBA00BFEC87FF1FFC92FF1F782001007E
:10560000FC17010000007A44F81701002818010077
:1056100040180100CDCCCC3D3C1D010060180100BC
:1056200080180100D4200100B0170100CC17010040
:105630009C170100FC1B01001C1C01003C1C01000C
:10564000B41C0100C01C0100D81C0100F81C0100A2
:1056500005F050FA05F08AFA0028F9D1BD48BE4D90
:1056600005F03EFDBB4805F03BFDBA4805F038FDAE
:10567000B84805F035FDB74805F032FD1321B748AD
:1056800005F09EFAB34805F02BFD0D21B44805F056
:1056900097FAB04805F024FD0F21B24805F090FAC2
:1056A000B14BAC48196805F06BFDAA4805F018FD30
:1056B0001321AE4805F084FAAD4BA648196805F0F1
:1056C0005FFDA44805F00CFD1221AA4805F078FA08
:1056D000A94BA048196805F053FD9E4805F000FD50
:1056E0001121A64805F06CFAA54B9A48196805F0F7
:1056F00047FD984805F0F4FC0E21A24805F060FA39
:10570000D5F8A010934805F03BFD924805F0E8FC61
:1057100019219D4805F054FA9C4B8E48196805F0F4
:105720002FFD8C4805F0DCFC1121994805F048FA62
:10573000984B8848196805F023FD864805F0D0FC91
:105740001021954805F03CFA944B8248196805F001
:1057500017FD804805F0C4FC1C21914805F030FA83
:10576000904B7C48196805F00BFD7A4805F0B8FCB1
:105770001E218D4805F024FA95F8C130002B00F069
:10578000AC860D21894805F01BFA724805F0A8FC8B
:105790001521874805F014FA864B6E48196805F004
:1057A000EFFC6C4805F09CFC1321834805F008FAD7
:1057B000684805F095FC04232360FFF7F8B9664EAE
:1057C00096F84000FFF7F1B823682868FFF76EB934
:1057D00005F0CCF900287FF7A5AA5E485E4E05F0DB
:1057E00011FE06F07DFF754907F082F8652301225E
:1057F000F06122602B60184600E405F0B7F900283C
:105800007FF790AA5348544E05F0FCFD00EB800052
:10581000430001226520F36522602860FFF7EEBB9C
:1058200005F0A4F900287FF77DAA4A484A4E05F002
:10583000E9FD00EB80004300012265203366226011
:105840002860FFF7DBBB444AD2F8B0300133062BA7
:10585000C8BF0023C2F8B030012365202360286050
:10586000FFF7CCBB05F082F900287FF75BAA394827
:10587000394E05F0C7FD06F033FF504907F038F800
:1058800065230122706122602B601846FFF7B6BBCA
:1058900005F06CF900287FF745AA2E482E4E05F03A
:1058A000B1FD65230122C6F8B40022602B601846C2
:1058B000FFF7A4BB284B93F8C020002A00F0C28554
:1058C000002283F8C020C7E7FDF73AFA236828686A
:1058D000FFF751B8204EB36FB3FA83F35B0901228F
:1058E0006320B36722602860FFF788BB1A4ED6F8A2
:1058F0008030B3FA83F35B0901226320C6F880305D
:1059000022602860FFF77ABB0123236005F02EF99F
:10591000002805DD0F48104E05F074FDC6F8AC00F8
:105920000123632023602860FFF768BB0123236005
:1059300005F01CF9002807DD0648074E05F062FD5A
:1059400006F0CEFEC6F88C00632028602368FFF7BF
:1059500014B800BFEC87FF1FFC92FF1FC01A0100A4
:10596000D41A0100E41A01004894FF1FF41A010040
:105970003495FF1F081B01007094FF1F1C1B0100C2
:105980001095FF1F301B0100401B01005C94FF1F9E
:105990005C1B0100D092FF1F701B01009C92FF1F37
:1059A000841B01006087FF1FA41B0100C41B0100B2
:1059B000E41B01003C95FF1F9C17010000007A4486
:1059C0000123236005F0D2F80028BDDD5D485E4E5E
:1059D00005F018FD06F084FEC6F88800B4E7012340
:1059E000236005F0C3F80028AEDD5648564E05F09A
:1059F00009FDA6F8BA00A7E70123236005F0B6F871
:105A000000288DDD4F48504E05F0FCFCC6F8900094
:105A100086E74D4AD36F0133032BC8BF0023D367FA
:105A20007EE74A4A1368B3FA83F35B0901216420D5
:105A3000136021602860FFF7E1BA454A454F1368BB
:105A4000002B0CBF012300234FF0010013602060E6
:105A500040F00E86034664222A606420FEF78BBF66
:105A60003D4ADFE73D4ADDE701233D482360FAF781
:105A70003FFF3C4A23681060EDE73B4AD2E73B4AD0
:105A8000D0E70123236005F071F8002800F32E858C
:105A9000374B1A68042AC4BF02221A6064232B60A1
:105AA0002368DAE7284ED6F8A030B3FA83F35B090F
:105AB00001226420C6F8A03022602860FFF79EBA59
:105AC000214E96F8C13001225340642086F8C1303F
:105AD00022602860FFF792BA264AA3E705F046F84D
