:1000000000800020BD010000A58A00005D8A00007C
:100010005D8A00005D8A00005D8A00005D8A000044
:100020005D8A00005D8A00005D8A0000A58A0000EC
:10003000A58A00005D8A00007DAE000081AE000050
:10004000A58A0000A58A0000A58A0000A58A0000F4
:10005000A58A0000A58A0000A58A0000A58A0000E4
:10006000A58A0000A58A0000A58A0000A58A0000D4
:10007000A58A0000A58A0000A58A0000A58A0000C4
:10008000A58A0000A58A0000A58A0000A58A0000B4
:10009000A58A0000A58A0000A58A0000A58A0000A4
:1000A000A58A0000A58A0000A58A0000A58A000094
:1000B000A58A0000517D00005D7D0000617D00008B
:1000C0006D7D0000717D0000757D0000A58A000037
:1000D000A58A0000A58A0000A58A0000A58A000064
:1000E000A58A0000A58A0000A58A0000A58A000054
:1000F000A58A0000A58A0000A58A00004597000097
:10010000A58A0000C99C0000A58A0000A58A0000FD
:10011000A58A0000A58A0000A58A0000A58A000023
:10012000A58A0000A58A0000A58A0000A58A000013
:10013000A58A0000A58A0000A58A0000A58A000003
:10014000A58A0000A58A0000A58A0000A58A0000F3
:10015000A58A0000A58A0000A58A0000A58A0000E3
:10016000A58A0000559F0000A58A0000A58A00000E
:10017000A58A0000A58A0000A58A0000A58A0000C3
:10018000A58A0000A58A0000A58A0000A58A0000B3
:10019000A58A0000A58A0000A58A0000A58A0000A3
:1001A000A58A0000A58A0000A58A0000A58A000093
:1001B000A58A0000A58A0000A58A0000564B4CF2D3
:1001C000205210B51A804DF628121A8000BF00BFC9
:1001D00008F06CFC514B4FF010621A60504A9A6064
:1001E000504ADA60504A136813F4807304D14F49BF
:1001F0000B604FF4A85313604D4B1A78110703D5C9
:100200001A7842F008021A704A4B4B492A221A7097
:100210004A4A4B4B8B4204D252F8040F43F8040B6A
:10022000F8E7484B484900228B4202D243F8042B9E
:10023000FAE74649464A002352F8230041F82300D2
:1002400001336F2BF8D1434B434A802103F8011B44
:100250009342FBD1414B3D4A1A60414B8A221A70AE
:10026000A3F5805324225A70A0221A709A7992071B
:10027000FCD59A79D406FCD43A4A937903F00C035E
:10028000082B384BF9D103221A7140225A719A79FE
:100290009006FCD5334A9179324B4906FBD5324A58
:1002A000324911600221516020221A709A7902F0BD
:1002B0000C020C2AFAD12E4B2E4A1A602E4B2F4AD2
:1002C0001A6000225A60072243F8042C2C4AC3F813
:1002D0000C2D62B608F0A0FE144B1B68DA0705D59A
:1002E000284808F07DFC284B284A1A60284B1B78C8
:1002F0005B0609D5244C254B22689A4204D121483B
:1003000008F06EFC002323600CF088FC08F0D4FB9E
:100310000BF0B4F8FEE700BF0E200540308004402B
:10032000823F04000100002B10D0034014D0034092
:1003300002D0074000E007405092FF1FCC29010087
:100340002087FF1F5092FF1FE0B9FF1F0082FF1F91
:100350000000000000E400E05FE400E008ED00E0E1
:100360000050064000400640448004400000030165
:1003700004800440C010050014E000E0FF76010096
:10038000000020209994E45F1CE00340A5C3945A28
:1003900000F00740FFFFFFFFFFFFFFFFFFFFFFFF32
:1003A000FFFFFFFFFFFFFFFFFFFFFFFFFFFFFFFF5D
:1003B000FFFFFFFFFFFFFFFFFFFFFFFFFFFFFFFF4D
:1003C000FFFFFFFFFFFFFFFFFFFFFFFFFFFFFFFF3D
:1003D000FFFFFFFFFFFFFFFFFFFFFFFFFFFFFFFF2D
:1003E000FFFFFFFFFFFFFFFFFFFFFFFFFFFFFFFF1D
:1003F000FFFFFFFFFFFFFFFFFFFFFFFFFFFFFFFF0D
:10040000FFFFFFFFFFFFFFFFFFFFFFFFDEF9FFFF23
:1004100010B5054C237833B9044B13B10448AFF33E
:1004200000800123237010BD5092FF1F00000000C8
:10043000C8290100084B10B51BB108490848AFF3A3
:1004400000800848036803B910BD074B002BFBD0A0
:10045000BDE81040184700BF000000005492FF1F85
:10046000C82901005092FF1F00000000F0B4154F92
:100470000024031F00F1800100F5827200F17C0668
:1004800043F8044FB34241F8047F4FF0000542F8AF
:10049000044FF5D100230C4A0C49C0F88C51C0F828
:1004A0009051C0F8B051C0F8A421C0F8AC21C0F8F8
:1004B000A81180F8B83180F8B93180F8D031F0BC9B
:1004C000704700BF0000A040000048430000C8C2C1
:1004D00038B590F8D031023B092B0546144607D8B1
:1004E00070296AD0E02931D0602900F09C8038BDA5
:1004F00070293AD0E02929D06029F8D1137A507AAE
:100500001B0203F47063181805D00CF021F961493F
:100510000CF072F96860A37AE07A1B0203F470634E
:10052000181805D00CF014F95A490CF065F9A860B8
:10053000237B607B1B0203F470631818D7D00CF088
:1005400007F954490CF058F9E86038BDE37BA07B0B
:1005500003EB00200CF0FCF84F490CF04DF94F492B
:100560000CF042F8C5F8900138BD137A507A1B029E
:1005700003F47063181805D00CF0EAF845490CF044
:100580003BF92861A37AE07A1B0203F47063181820
:1005900005D00CF0DDF83F490CF02EF96861237BA3
:1005A000607B1B0203F470631818A0D00CF0D0F825
:1005B00038490CF021F9A86138BD137A507A1B0232
:1005C00003F47063181805D00CF0C2F831490CF030
:1005D00013F96861A37AE07A1B0203F470631818B8
:1005E00005D00CF0B5F82B490CF006F9A861237B77
:1005F000607B1B0203F47063181805D00CF0A8F898
:1006000024490CF0F9F8E861A37BE07B1B0203F4BA
:10061000706318183FF46BAF0CF09AF81D490CF09A
:10062000EBF8286238BD137A507A1B0203F470632A
:10063000181805D00CF08CF816490CF0DDF868603D
:10064000A37AE07A1B0203F47063181805D00CF04B
:100650007FF810490CF0D0F8A860237B607B1B0268
:1006600003F47063181805D00CF072F809490CF007
:10067000C3F8E860A37BE07B1B0203F470631818E7
:100680003FF435AF0CF064F802490CF0B5F828617E
:1006900038BD00BF0AD7A33ADDB504BD000016433C
:1006A000D0F8DC01704700BF90F8C001704700BF70
:1006B00090F8BC01704700BF90F8C401704700BFBC
:1006C00090F8C801704700BF202994BF50F821005E
:1006D000002070472DE9F0410B4E8046041F00F1C9
:1006E0007C0754F8045F314628460CF023FA30B1F9
:1006F000D8F8B41128460CF03BFA00B12E46BC42A3
:10070000EFD13046BDE8F081000020412DE9F041F5
:10071000D0F8B4714FF00008041F00F17C0654F8C3
:10072000045F394628460CF023FA084948B12846A8
:100730000CF000FA414620B128460CF019FA00B13D
:10074000A846B442EBD14046BDE8F08100007042BB
:100750002DE9F0470023D0F8B471C0F8DC318246AF
:100760001C464FF000099846061F56F8045F3846AD
:1007700029460CF0DFF90E4960B128460CF0DAF991
:1007800040B1484629460BF02FFF08F10108814689
:10079000CAF8DC410134202CE7D1CAF8D4814046A4
:1007A0000BF0D6FF014648460CF0DAF8BDE8F087BA
:1007B00000007042D0F8D401704700BFD0F890011B
:1007C000704700BFD0F89001704700BFD0F890018B
:1007D000704700BF2DE9F8434FF00008D0F8B4711E
:1007E000C0F88C818146041F00F17C0654F8045F38
:1007F000394628460CF0BCF9084950B128460CF09F
:1008000099F930B1404629460BF0EEFE8046C9F812
:100810008C01B442EAD14046BDE8F8830000704242
:1008200002299ABF643150F821000020704700BFB0
:10083000102998BF80F8D011704700BF90F8B80118
:10084000704700BFC0F8CC11704700BF80F8B811E6
:10085000704700BF80F8B911704700BF30B5C0F8CD
:10086000B41183B008460BF01DFB074C022502466D
:100870000B46009520460AF0C3FC204603B0BDE8B5
:1008800030400AF065BC00BFEC87FF1F70B500F573
:1008900000550646183500F13804204604F5F0747A
:1008A000FFF7E4FDAC42F8D106F5067501242846B1
:1008B0000021FFF7CBFF214628460134FFF7B8FFA0
:1008C000112C05F5F075F2D142F2200400250548FF
:1008D000054A064B3555002130627162B262F362FF
:1008E000304670BD00007A44000048430000C8C292
:1008F00042F224032DE9F041002200F5F15500F504
:1009000000578046C2501835243700F5067403E0BE
:1009100004F5F074AC420ED02046FFF78FFF00289C
:10092000F6D020463E68FFF745FF04F5F0743044EA
:10093000AC423860F0D142F2240358F80300BDE81D
:10094000F08100BF70B50E460121356805F00F0437
:100950000C44C4EB041400EB441000F138042046AE
:10096000FFF774FF20460121FFF774FF324620464F
:1009700005F0F001BDE87040FFF7AABD70B5002397
:1009800000F5005605460361183600F5067403E0CD
:1009900004F5F074A64223D02046FFF74FFF00284D
:1009A000F6D02046FFF716FF014628690BF01CFE23
:1009B00028612046FFF702FFA96A0CF0BBF820BBB4
:1009C0002046FFF7FFFEE96A0CF0D2F80028DFD0DE
:1009D0002046FFF7F7FE04F5F074A642E862DBD18B
:1009E00068690BF0B5FE014628690BF0B9FF696A2A
:1009F000286104460CF0BCF800B16C62296A2046FC
:100A00000CF098F800B12C6270BD2046FFF7D6FEBE
:100A1000A862D5E770B5124B836100F50055064614
:100A2000183500F5067403E004F5F074AC4214D0F8
:100A30002046FFF703FF0028F6D02046FFF74AFEC6
:100A4000B1690CF077F80028EED02046FFF742FE9F
:100A500004F5F074AC42B061EAD1B06970BD00BF7A
:100A60000000A04070B5002300F500550646C361A4
:100A7000183500F5067403E004F5F074AC4214D0A8
:100A80002046FFF7DBFE0028F6D02046FFF73EFEAB
:100A9000F1690CF06DF80028EED02046FFF736FE25
:100AA00004F5F074AC42F061EAD1F06970BD00BFAA
:100AB0000069704741617047F8B50F46164600F56A
:100AC0000674012504E00135112D04F5F0741BD0E6
:100AD0002046FFF7B3FE0028F5D029460B480AF060
:100AE00087FB0A480AF034FB78200AF025F92046F3
:100AF0003946FFF7A7FE013520463146FFF7AEFE27
:100B0000112D04F5F074E3D1F8BD00BFEC87FF1F91
:100B100042F21C032DE9F041002200F50055C250BD
:100B20002F46274A274B426306464FF000080363CF
:100B300018351C3700F5067403E004F5F074AC4278
:100B40002ED02046FFF77AFE0028F6D02046FFF789
:100B50003DFE00210CF00CF80028EED03B6801337C
:100B60003B602046FFF732FE014640460BF03CFD5D
:100B700080462046FFF726FE316B0BF0F9FFD0B917
:100B80002046FFF71BFE716B0BF0D4FF0028D4D07A
:100B90002046FFF713FE04F5F074AC427063D0D129
:100BA00042F21C03F0580BF0D3FD014640460BF017
:100BB000D7FEBDE8F0812046FFF704FE3063DFE793
:100BC00000C0794400C079C4006B7047406B704727
:100BD000F8B500F5005507460026183500F50674EF
:100BE00003E004F5F074AC4210D02046FFF726FE77
:100BF0000028F6D02046FFF7ABFD014630460BF04B
:100C0000F3FC04F5F074AC420646EED142F21C034C
:100C1000F8580BF09DFD014630460BF0A1FEF8BDE3
:100C20002DE9F04F83B000F10F02C31D0D46019274
:100C3000114604460093002203F8012F8B42FBD19A
:100C4000012704F5067604F108093046FFF7F6FDA2
:100C500020B34FF0010A4FF000080AF00103AB4245
:100C6000204612D0FFF7B4FF514683463046FFF7C7
:100C70002BFD014658460BF05DFF30B10AF1FF3302
:100C8000012202FA03F348EA03080AF1010ABAF161
:100C9000090FE2D1092F5DD089F8008001370A2FB2
:100CA00006F5F07609F10109CFD14FF4407208231F
:100CB0002260E3712146294806F0EAFE009B019973
:100CC000002203F8012F9942FBD104F597571837FA
:100CD0004FF00A084FF0010A3846FFF7AFFD18B38E
:100CE00001264FF0000906F00103AB42204610D068
:100CF000FFF76EFF314683463846FFF7E5FC0146B5
:100D000058460BF017FF20B1731E0AFA03F349EAA5
:100D100003090136092EE6D1009BB8F10B0FCCBFB9
:100D200083F8009083F80190009B08F101080133DB
:100D3000B8F1100F07F5F0770093CDD107484FF4C5
:100D40004472052321462260E37103B0BDE8F04FF1
:100D500006F09EBE84F80F80A7E700BFD0B5FF1F46
:100D60002DE9F04F93B004460F91002A40F0D08156
:100D700015461046C54900F0D7FDC449284600F085
:100D8000D3FDC249284600F0CFFD42F21C032046A5
:100D900054F803B0FFF7ACFD8146206966690BF09B
:100DA00081F8CDE910012046FFF712FF8246204668
:100DB000A769D4F81C80FFF7ABFE0BF073F8CDE900
:100DC0000C01394640460BF00DFCB1490BF014FD07
:100DD0000BF068F8CDE90A0140460BF063F8CDE965
:100DE000080138460BF05EF8CDE9060150460BF0DD
:100DF00059F8DDE91023CDE90401CDE90223A54925
:100E000000964B465A46284600F08EFD9F492846DC
:100E100000F08AFD04F506744FF0010ADDF83C90FD
:100E200007E00AF1010ABAF1100F04F5F07400F0BE
:100E3000F2802046FFF702FD0028F2D02046FFF79F
:100E400033FC2046FFF734FC2046FFF735FC2046F4
:100E5000FFF736FC0821904809F0EAFE51468F481A
:100E60000AF0C6F9BAF1090F03DC01218C4809F038
:100E7000DFFE02218B4809F0DBFE2046FFF7AAFCCB
:100E80000BF010F85FFA89F802460B46CDF80080A7
:100E900082480AF0B5F90121834809F0C9FE2046CD
:100EA000FFF7FEFB0C2800F3B98001261DE00721A7
:100EB0007E4809F0BDFE294678480AF099F90221DA
:100EC0007B4809F0B5FE31462046FFF7FDFB0AF0EE
:100ED000E9FFCDF8008002460B4670480AF090F911
:100EE000012171480E4409F0A3FE2046FFF7D8FB0C
:100EF000864269DC092D05F10105D8DC012168482D
:100F000009F096FED3E72046FFF7CAFB172800F347
:100F1000B98035460D261CE0013509F089FE2946C9
:100F20005E480AF065F90221614809F081FE314608
:100F30002046FFF7C9FB0AF0B5FFCDF80080024656
:100F40000B4656480AF05CF9012157480E4409F057
:100F50006FFE2046FFF7A4FB86424FF0070153487F
:100F6000DADD0F21534809F063FE4C480AF0F0F82F
:100F70002046FFF795FB192826DD19261CE00135D0
:100F800009F056FE294645480AF032F90221484840
:100F900009F04EFE31462046FFF796FB0AF082FF2D
:100FA000CDF8008002460B463C480AF029F90121A1
:100FB0003D480E4409F03CFE2046FFF771FB864297
:100FC0004FF007013948DADD0F213A4809F030FEC9
:100FD00032480AF0BDF80921374809F029FE0021FE
:100FE0002046FFF71DFC0AF05DFF022602460B4675
:100FF00000962A480AF004F90F212E4809F018FE3D
:101000000AF1010A25480AF0A3F8BAF1100F04F515
:10101000F0747FF40EAF13B0BDE8F08F2F460126B9
:101020001FE00721214809F003FE39461B480AF05A
:10103000DFF802211E4809F0FBFD31462046FFF78C
:1010400043FB0AF02FFFCDF8008002460B46134801
:101050000AF0D6F801360121134809F0E9FD0C2EFB
:1010600008D0092F07F10107DBDC01210C4809F04A
:10107000DFFDD6E72046FFF713FB0C2805F10B0632
:101080003FF741AF16350D2739E000BF902301002F
:1010900000007A446010010000110100EC87FF1F7E
:1010A000B0110100C41401000C1101001011010065
:1010B000A011010018110100281101000721BA48F0
:1010C00009F0B6FD3146B9480AF092F80221B84855
:1010D00009F0AEFD39462046FFF7F6FA0AF0E2FEC7
:1010E000CDF8008002460B46B0480AF089F801218D
:1010F000B0480F4409F09CFDB5423FF432AF092ED1
:1011000006F10106DADC0121AB4809F091FDD5E7D3
:10111000AA49012000F008FCA849012000F004FCC5
:10112000A649012000F000FC42F21C032046E258D0
:101130001092FFF7DDFB8246206966690AF0B2FE75
:10114000804620468946FFF743FD83462046A56931
:10115000E769FFF7DDFC0AF0A5FECDE90C012946A1
:1011600038460BF03FFA96490BF046FB0AF09AFE20
:10117000CDE90A0138460AF095FECDE90801284676
:101180000AF090FECDE9060158460AF08BFE534660
:10119000CDE90401CDE90289109A8A49009601201F
:1011A00000F0C2FB8549012000F0BEFB04F5067487
:1011B0004FF0010A0025DDF83C9007E00AF1010A32
:1011C000BAF1100F04F5F0743FF425AF2046FFF795
:1011D00035FB0028F2D02046FFF766FA2046FFF7DD
:1011E00067FA2046FFF768FA2046FFF769FA0821F8
:1011F000754808F0A3F95146744809F0F9FFBAF1AF
:10120000090F03DC01216C4808F098F902217048AD
:1012100008F094F92046FFF7DDFA0AF043FE5FFA82
:1012200089F802460B46CDF80080684809F0E8FFCF
:101230000121604808F082F92046FFF731FA0C28B6
:1012400000F3AF8001261DE00721574808F076F92A
:1012500029465E4809F0CCFF0221554808F06EF996
:1012600031462046FFF730FA0AF01CFECDF8008028
:1012700002460B46554809F0C3FF01214D480E4474
:1012800008F05CF92046FFF70BFA864269DC092D6D
:1012900005F10105D8DC0121474808F04FF9D3E7F3
:1012A0002046FFF7FDF9172800F3C98035460D26C3
:1012B0001CE0013508F042F92946444809F098FF3E
:1012C00002213B4808F03AF931462046FFF7FCF985
:1012D0000AF0E8FDCDF8008002460B463B4809F0D5
:1012E0008FFF012133480E4408F028F92046FFF70C
:1012F000D7F986424FF007012B48DADD0F21354838
:1013000008F01CF9314809F023FF2046FFF7C8F91F
:10131000192826DD19261CE0013508F00FF92946A9
:101320002A4809F065FF0221214808F007F93146F3
:101330002046FFF7C9F90AF0B5FDCDF80080024656
:101340000B46224809F05CFF01211A480E4408F0C0
:10135000F5F82046FFF7A4F986424FF0070112483E
:10136000DADD0F211B4808F0E9F8184809F0F0FE13
:101370000921194808F0E2F800212046FFF750FA49
:101380000AF090FD022602460B4600960F4809F02F
:1013900037FF0F210F4808F0D1F80C4809F0D8FEAC
:1013A0000CE72F46012639E010110100EC87FF1FE2
:1013B000A01101000C110100B011010090230100E7
:1013C00000007A446010010000110100C087FF1F77
:1013D000C4140100181101002811010007212E4832
:1013E00008F0ACF839462D4809F002FF02212C48DC
:1013F00008F0A4F831462046FFF766F90AF052FDDE
:10140000CDF8008002460B46244809F0F9FE01366B
:101410000121244808F092F80C2E08D0092F07F17A
:101420000107DBDC0121204808F088F8D6E72046D8
:10143000FFF736F90C2805F10B063FF731AF1635EB
:101440000D2720E00721144808F078F831461348AA
:1014500009F0CEFE0221124808F070F83946204605
:10146000FFF732F90AF01EFDCDF8008002460B4668
:101470000A4809F0C5FE01210A480F4408F05EF849
:10148000B5423FF43BAF092E06F10106DADC01213B
:10149000054808F053F8D5E710110100C087FF1F79
:1014A000A01101000C110100B01101002DE9F04F55
:1014B00085B000F506758A4603929B462E464FF08E
:1014C000010806E008F10108B8F13F0F06F5F076D3
:1014D0007BD03046FFF7B2F90028F3D000230A2270
:1014E00051467D4809F044FE01217C4809F0A0FBEB
:1014F00003980AF0D7FC00230246009376480B4677
:1015000009F07EFE0121754809F092FB59467248A8
:1015100009F06EFE0121714809F08AFB41466E48D0
:1015200009F066FE01216D4809F082FB00244FF0AE
:10153000020921463046FFF7C7F80AF0B3FCCDF8A0
:10154000009002460B46644809F05AFE013401211E
:10155000624809F06DFB082C4FF00207E9D1002129
:101560003046FFF75DF90AF09DFC009702460B46F6
:10157000594809F045FE0121584809F059FB01215D
:101580003046FFF74DF90AF08DFC009702460B46F6
:10159000514809F035FE0121504809F049FB394610
:1015A0003046FFF73DF90AF07DFC009702460B46F6
:1015B000494809F025FE08F10108474809F0C8FD2F
:1015C000B8F13F0F06F5F07683D101274FF00009FF
:1015D00004E001373F2F05F5F07579D02846FFF775
:1015E0002DF90028F5D000230A2251463C4809F085
:1015F000BFFD0121394807F0A1FF03980AF052FC12
:10160000CDF8009002460B46354809F0F9FD01215E
:10161000324807F093FF5946314809F0E9FD0121AE
:101620002E4807F08BFF39462D4809F0E1FD0121D6
:101630002A4807F083FF00244FF00208214628467D
:10164000FFF742F80AF02EFCCDF8008002460B4668
:10165000234809F0D5FD01340121204807F06EFF31
:10166000082C4FF00206E9D100212846FFF7D8F8F0
:101670000AF018FC009602460B46194809F0C0FD16
:101680000121164807F05AFF01212846FFF7C8F844
:101690000AF008FC009602460B46114809F0B0FD1E
:1016A00001210E4807F04AFF31462846FFF7B8F8F7
:1016B0000AF0F8FB009602460B46094809F0A0FD27
:1016C0000137074809F044FD3F2F05F5F07585D136
:1016D00005B0BDE8F08F00BFEC87FF1F341101009B
:1016E000C087FF1F70B5044608460D460CF088F809
:1016F00023680246294620465B68BDE870401847CB
:10170000014B1870704700BF2087FF1FF0B51546CA
:10171000027883B062B103460E46252A16D01878A7
:101720001C4685B909F008FB6278631C002AF4D1D5
:10173000002D5CD0744803B0BDE8F04009F008BD4E
:101740001046002DEED007F0A1FEEDE758785C1CA6
:101750000028EDD02528F3D073282FD0642825D079
:10176000692823D0662848D07A2853D078285ED0BC
:10177000582800F08580622800F09180422866D0C9
:101780006C2813D0632811D0742800F09880542856
:10179000C7D133680436002D40F0A480012B00F03F
:1017A000A8800521594809F043FABDE7331D316887
:1017B00085B957481E4609F01BFDB5E7371D366849
:1017C000304665B90CF01CF8014630463E4609F03B
:1017D0002FFAA9E74C481E4609F00AFDA4E70CF0D1
:1017E0000FF8014630463E4607F0A8FE9CE7484801
:1017F00003B0BDE8F04009F0ABBC073626F00706A1
:101800000321D6E90023009165B94148083609F063
:10181000F7FC89E7073626F00706D6E9002385B1ED
:10182000002100913848083609F0EAFC7CE7371DB2
:101830003168F5B90023102235483E4609F098FC7E
:1018400072E700953248083609F0DAFC6CE70221AD
:1018500030487DBB09F0ECF93168371D2B46022278
:101860002B483E4609F084FC5EE707F067FE3168CE
:10187000371D0023102224483E4609F079FC53E727
:1018800002212548002DF0D109F0D2F9371D316829
:101890001F482B4610223E4609F06AFC44E7371DDC
:1018A0003168002DDAD00023022217483E4609F0A5
:1018B0005FFC39E707F042FE371D3168F3E7316816
:1018C00004363DB901290EBF14481548012109F01D
:1018D000AFF929E701290EBF10481148012107F08F
:1018E0002DFE21E7012B09D00521084807F026FE2F
:1018F0001AE70C490648FFF7F5FE15E709490248C3
:10190000FFF7F0FE10E700BFC087FF1F7411010052
:10191000EC87FF1F601101005C11010064110100E0
:10192000681101006C1101000EB400B582B003A96A
:10193000024651F8040B0191FFF7E8FE02B05DF892
:1019400004EB03B0704700BF30B4074D074C0849A3
:1019500000232B70236003654365836580F85C304A
:101960000B6030BC704700BF7492FF1F7092FF1F66
:101970006C92FF1F2DE9F8434649474F474D484EAB
:10198000484CDFF854810020FFF7CEFF464B474A12
:1019900047485A60DF601222002746491A701861D2
:1019A000454A46485D615E62454D9C614FF07C56FC
:1019B000444C1F63444F9962DA62444958630C22D5
:1019C00043489D635E6440F61C450A269C641F6282
:1019D00041F204043F4FD9641A6502210122C3F881
:1019E000BC009D6600206425DE661C674FF4967679
:1019F0003224DF61DF635A27597059721A725A65AF
:101A000083F840009D655E66DE651C665F67C3F80F
:101A10009840C3F8A4408C244FF47A799867D9672A
:101A2000C3F88000DFF8B4C0C3F8A00044F6206E0D
:101A3000C3F8AC20C3F8B010FF2741F28831C3F8D7
:101A4000B450052683F8C02083F8C12083F8C22053
:101A50004FF4FA7540F2D6624FF4964083F8CC40CA
:101A6000C3F89C90C3F88880C3F88CC0C3F890E09A
:101A7000C3F8A870A3F8BA60A3F8C450C3F8C800AC
:101A8000C3F89410A3F8B810A3F88420A3F8862014
:101A9000BDE8F8837C1101006666864033338340DD
:101AA000CDCCCC3DCDCC4C40FC92FF1F48E8010092
:101AB0000000404000008242000020C1000020429F
:101AC0000000A0409A997940333373400AD7233DF0
:101AD0009A99993ECDCC4C3E0000684200C020440B
:101AE00070B5464C464D4748E66800232B70FEF71C
:101AF000B9FF014630460BF01DF808B104232B70E6
:101B00004048FEF787FF21690BF014F818B12B78D5
:101B100043F010032B703B48FFF756F8A16A0BF017
:101B200027F818B12B7843F040032B700023354879
:101B30006B70FFF74BF8E16A314E0AF0FBFF08B11A
:101B40000123737000232F48EB70FEF78BFF0546CF
:101B50002C482B4EFEF75EFF014628460AF042FD58
:101B6000E16B0BF005F808B10123F370264D254811
:101B700000232B70FEF776FF616A0646E0680AF0E4
:101B800031FD014630460AF0F3FF08B104232B7003
:101B90001C48FEF73FFF616A064620690AF024FDF3
:101BA000014630460AF0C6FF18B12B7843F0100307
:101BB0002B701448FFF708F8A16B0646A06A0AF0DC
:101BC00011FD014630460AF0D3FF18B12B7843F0DF
:101BD00040032B7000230B486B70FEF7F7FFA16BDF
:101BE0000546E06A084C0AF0FFFC014628460AF068
:101BF000A1FF08B10123637070BD00BFFC92FF1FFD
:101C0000F892FF1FA895FF1FD493FF1F2DE9F04105
:101C10007C4C2368012B82B031D0022B00F0A880CD
:101C2000032B00F0C8803BBB774B784AD3F8A41055
:101C3000D3F8A83012685B1A632B0EDD744803FBDF
:101C400002F380FB0302DB17C3EB62131944062087
:101C500002B0BDE8F04106F0D5BF6E4803FB022399
:101C600080FB0302DB17C3EB22121144062002B0F3
:101C7000BDE8F04106F0C6BF02B0BDE8F081664E97
:101C800033680A33B3F57A7F00F3B78018463360C0
:101C90000AF05EFD61490AF0AFFD80465A4DD5F865
:101CA000A4000AF055FD0746D5F8A8000AF050FD3B
:101CB00039460AF097FC41460AF09EFD58490AF061
:101CC0004FFE39460AF090FC0AF05CFF0146062000
:101CD00006F098FF0221534808F0AAFF524809F085
:101CE00037FA0621514808F0A3FF30680AF030FDAA
:101CF0004A490AF081FD0AF0D5F8022702460B4650
:101D00000097494809F07CFA0D21494808F090FFF6
:101D1000D5F8A4000AF01CFD804630680AF018FDD2
:101D20003E490AF069FD0646D5F8A8000AF010FD04
:101D300041460AF057FC014630460AF05DFD38493D
:101D40000AF00EFE41460AF04FFC0AF0ABF800978D
:101D50000B460246344809F053FA3946314808F038
:101D600067FF314809F0F4F92368022B7FF458AF7C
:101D7000294B254E00221A60D6F8A4000AF0E8FC90
:101D80000546D6F8A8000AF0E3FC29460AF02AFC2A
:101D900000210AF031FD22490AF0E2FD29460AF04D
:101DA00023FC0AF0EFFE0146062006F02BFF236815
:101DB000032B7FF438AF184B134E4FF47A721A602E
:101DC000D6F8A4000AF0C4FC0546D6F8A8000AF02C
:101DD000BFFC29460AF006FC11490AF00DFD104926
:101DE0000AF0BEFD29460AF0FFFB0AF0CBFE0146D1
:101DF000062006F007FF236815E700234FF00008D0
:101E000033604BE7D092FF1FFC92FF1F3887FF1F04
:101E10001F85EB51CBF08D288C92FF1FCDCCCC3D94
:101E20000000C842C4140100EC87FF1F9C11010090
:101E3000A411010070B5B648B64C09F089F9B44850
:101E400009F086F9B24809F083F90D21B24808F08B
:101E5000EFFED4F8A030012B11D0B04CAC48217863
:101E600000230A2209F084F92378052B67D8DFE8DC
:101E700013F0100115011A011F01240106010921A7
:101E8000A74808F0D5FEA748FEF7C4FD21690AF06F
:101E900051FE18B10F21A44808F0CAFEA148FEF770
:101EA000E1FDE1680AF064FE18B10E219F4808F0D8
:101EB000BFFE9C48FEF7D6FD05469A48FEF7AAFDF0
:101EC000014628460AF08EFBE16B0AF051FE18B17C
:101ED0001121974808F0ACFE9248FEF719FEA16A5E
:101EE0000AF046FE18B10C21924808F0A1FE8D4878
:101EF000FEF70EFEE16A0AF01DFE18B10D218E48B4
:101F000008F096FE8D4B87481B68012B00F0E98096
:101F1000FEF780FD21697F4D0AF02AFE78B18148E5
:101F2000FEF7A0FDE9680AF005FE40B17B4B1B7887
:101F3000052B00F0E7800821814808F079FE022196
:101F4000804808F075FE122006F0E2FF012800F03C
:101F5000B980112006F0DCFF012800F0BD807A4B2B
:101F60001B78002B40F0868002217648774C08F0E1
:101F70005FFE774B6648196809F03AF9644809F042
:101F8000E7F80421734808F053FE0B2006F0C0FF69
:101F9000002301460A225E4809F0EAF80C2006F008
:101FA000B7FF002301460A22594809F0E1F814203E
:101FB00006F0AEFF002301460A22554809F0D8F882
:101FC000152006F0A5FF0A2200230146504809F01B
:101FD000CFF80621604808F02BFE2368DD074FF09C
:101FE00001014CBF5D485E4808F022FE2368980757
:101FF0004FF001014CBF5948594808F019FE2368B9
:102000005A074FF001014CBF5448554808F010FEE4
:1020100023681B074CBF51485148012108F008FEB6
:102020000421504808F004FE112006F071FF00233F
:1020300001460A22364809F09BF8102006F068FF96
:10204000002301460A22324809F092F8122006F0D5
:102050005FFF002301460A222D4809F089F813206A
:1020600006F056FF002301460A222948BDE87040C9
:1020700009F07EB812213C4808F0DAFD74E7072128
:102080003A4808F0D5FD3A4B2148196809F0B0F8F4
:1020900055E70621374808F0CBFD50E707213648C1
:1020A00008F0C6FD4BE70721344808F0C1FD46E7BC
:1020B0000821334808F0BCFD41E70B21314808F006
:1020C000B7FD3CE70E21304808F0B2FD112006F0C4
:1020D0001FFF01287FF443AF0A212C4808F0A8FD18
:1020E0003DE7FEF797FC216A0AF042FD00283FF425
:1020F00022AF1621264808F09BFD0A21254808F04A
:1021000097FD1CE70A21234808F092FD17E700BF5E
:10211000EC87FF1FFC92FF1FB41101007894FF1F92
:10212000C4110100A895FF1FD0110100E0110100AA
:10213000F011010004120100141201009892FF1F17
:1021400048120100C41401001895FF1FCC93FF1F13
:102150006094FF1FBC120100C4120100CC120100E8
:102160006C220100D0120100A812010084120100AB
:102170001C95FF1F541201005C1201007012010037
:1021800078120100641201008C1201009C120100FF
:10219000241201003C1201002DE9F04FAA4CE36F1C
:1021A000012B8DB000F07681032B00F0CB80DFF89F
:1021B000D882A64FA64EA36FA648012B09BF31684F
:1021C000316801F10041316006F07EF93B68002B77
:1021D00040F09E809F48DFF8B09206F04BF93B68D4
:1021E000C8F800000546002B44D1E36F012B53D003
:1021F000002128460AF0BCFC002800F0F1812846A6
:1022000095490AF0B5FC98B9944A954B12680B921F
:102210000B9A1A60D4F8AC000AF09AFA29460AF030
:10222000EBFA0023C8F8000033600DB0BDE8F08F72
:102230008A4FDFF82C923B680A930A98D9F800304D
:10224000DFF848A2C01A0AF07FFA29460AF0D4FA49
:1022500084490AF085FB83490AF082FBDAF8001012
:102260000AF0C2F93B680993099BCAF80000C9F853
:102270000030CFE709F016FE02250B460246009516
:10228000794808F0BDFF0421784808F0D1FCE36FDD
:10229000D9F80050012BABD1754B1B68012B00F016
:1022A000E681022BB6D1002128460AF061FC002805
:1022B00000F054822F46D4F890000AF049FA014603
:1022C00038460AF055FC002800F0FE81DFF88CA1AA
:1022D000634FDAF80030079307983B68DFF8AC915A
:1022E000C01A0AF031FA29460AF086FA5D490AF066
:1022F00037FB5C490AF034FBD9F800100AF074F996
:10230000DAF800300693069BC9F800003B6081E7CD
:10231000504806F0AFF809F0C5FD022502460B460D
:102320000095514808F06CFF0321524808F080FCEA
:10233000D4F890104C4808F05BFF03214D4808F09A
:1023400077FC47E74C4D4A4E2B68DFF83C81D3F8C9
:1023500084000F210123336006F046F833683B4FB9
:10236000012B3B6800F0BC80002B40F048812B68BB
:10237000DFF81C91D3F88400436B19698EB2C9F859
:10238000006005F0B3FDB4F8862040F6E44303FB9B
:1023900006F1B1FBF0F0801A00B20AF0D9F9374922
:1023A0002B4E8246D4F888000AF026FA01465046A1
:1023B0000AF0D6FAD9F800303060632BDFF8D0A0ED
:1023C00000F31181002333603B68002B3FF4F3AE30
:1023D00002212B4808F02CFC2B68D9F80050D3F8C8
:1023E000840040F6E44303FB05F505F07FFDB5FBF3
:1023F000F0F00AF0A9F90546B4F886000AF0A8F949
:10240000014628460AF0EEF809F04CFD0225024686
:102410000B460095144808F0F3FE2946184808F0CA
:1024200007FC306809F03EFD009502460B460E4859
:1024300008F0E6FE2946134808F0FAFB2946104842
:1024400008F0F6FBB7E600BFFC92FF1F3895FF1FB0
:102450009492FF1FD492FF1F0000FA4378B7FF1F2A
:102460000C95FF1F00007A44EC87FF1F1C1301002E
:102470005487FF1F181301001095FF1F9175DD365B
:10248000C414010014130100B092FF1FBC92FF1F7F
:10249000F492FF1FDFF81483D8F80050002128467B
:1024A0000AF066FB002800F09880D4F89000AE4E49
:1024B0000AF04EF9014628460AF03CFBAB4D2A686B
:1024C000002800F082800123D2F8840033600F21BD
:1024D00005F08AFF3368A64F012B3B687FF444AFB9
:1024E000002B40F0FF802B68DFF8C492D3F8840003
:1024F000436B19691FFA81FBC9F800B005F0F6FCBF
:10250000B4F884309B4E40F6E44A0AFB0BFBBBFB5D
:10251000F0F0C01A00B20AF01BF997498346D4F8CC
:102520008C000AF069F9014658460AF019FA2A683F
:10253000D9F800303060D2F884000AFB03FA05F0C5
:10254000D5FCB4F88430BAFBF0F00FFA80FAC3EB94
:102550000A03002BB4F8BA20B8BF5B429342BCBF59
:10256000002333603B68002B3FF425AE02218348F3
:1025700008F05EFB2B68D9F80050D3F8840040F6D1
:10258000E44303FB05F505F0B1FCB4F88410B5FB9A
:10259000F0F000B2411A7A4808F02AFE022177488A
:1025A00008F046FB306809F07DFC022502460B4628
:1025B0000095734808F024FE0321724808F038FBA8
:1025C00029466E4808F034FBF5E50223D2F8840072
:1025D00033600E2105F008FFC0E605F1004564E711
:1025E00005F100400CE62B68D3F8840005F07EFC72
:1025F000DAF8003064389842FFF4E4AEE4E660486C
:10260000DFF8AC91DFF864A108F0A2FD0C215E4870
:1026100008F00EFB0C215D4808F00AFB2A683B68B5
:10262000D2F88400426B11698EB2C9F80060002BA9
:102630003FF4A7AE05F05AFC40F6E44100230A221D
:1026400001FB06F1B1FBF0F14D4808F091FD0221CC
:102650004A4808F0EDFAB4F88610494808F0C8FD79
:10266000DAF80030D9F80060D3F8840089E6002158
:1026700028460AF07DFA002873D0284644490AF01B
:1026800077FA40B3DFF814A1424FDAF80030049330
:1026900004983B68DFF81C91C01A0AF055F82946E7
:1026A0000AF0AAF83C490AF05BF93B490AF058F9EC
:1026B000D9F8001009F098FFDAF800300393039B73
:1026C000C9F800003B60A5E5344A324B1268089215
:1026D000089A1A609EE5314A2E4B12680592059AB7
:1026E0001A6097E52648DFF8C890204E08F030FDC4
:1026F000E36F012B4FF00B010CBF2948294808F06C
:1027000097FA0C21214808F093FA2A683B68D2F81E
:102710008400426B11691FFA81FBC9F800B0002BDD
:102720003FF4ECAE05F0E2FB40F6E44100230A2260
:1027300001FB0BF1B1FBF0F1114808F019FD01218B
:10274000194808F075FAB4F884100D4808F050FDE7
:102750003368D9F800B0D3F88400CFE605F100471C
:10276000A9E505F1004089E75487FF1F1095FF1F79
:102770003895FF1F9492FF1F9175DD36C414010038
:10278000EC87FF1F0013010004130100F012010089
:102790000000FA430C95FF1F00007A4478B7FF1F32
:1027A000D8120100E4120100B0110100B092FF1F25
:1027B000F492FF1FBC92FF1F2DE9F04F994C236844
:1027C00085B0002B7BD0984DDFF86482974FDFF8FF
:1027D000A892D5F88030944E012B00F08B80D7F86A
:1027E00000A0D6F858B0746D914E04FB0BF44FF472
:1027F0007A7000FB04F009F0ABFF8E4904465046A6
:1028000009F0FAFF21460AF0ABF88B4909F0F4FF12
:102810000AF0B8F96328C8F800004BDD2046854966
:102820000AF09EF8642338603360D9F80030002B3A
:102830003DD0EB6F7C4C012B00F08A80032B00F025
:10284000DF80022B00F0E28002217C4808F0F0F9E2
:102850007B4B186809F026FB022402460B460094C5
:10286000784808F0CDFC2146774808F0E1F9214688
:10287000724808F0DDF9D8F80010724808F0B8FC8A
:102880000621724808F0D4F938686A4909F0B4FFA3
:1028900009F008FB009402460B466A4808F0B0FCB9
:1028A00003216B4808F0C4F9664808F051FC05B0F4
:1028B000BDE8F08F0028BCBF00233360B5E7654E4C
:1028C000594D33680293029A42F228339A424BD808
:1028D00033680393039A42F210739A424BD8D5F8A7
:1028E0008030DFF84C81514FDFF88C914E4E012B38
:1028F0007FF475AF5848FEF76BF95849D6F868A0D1
:10290000F46E09F079FF0AF063F9326F736FD5F84E
:1029100058B0CAEB02021B1B80B29A42CAEB0000FD
:10292000C6BF03FB00000132584390FBF2F0204485
:102930006C6D00FB0BF004FB00F000EB800040002E
:1029400009F006FF3B490AF00BF8824638604BE776
:10295000434B1B68012B4FF00A010CBF4148424812
:1029600008F066F9E36F69E73B486A6C95F8401038
:10297000FEF7A2F8ACE73848FEF72AF93749AF6E00
:10298000EE6E09F039FF0AF023F92A6F6B6FD21B44
:102990009B1B80B29A42A0EB07003CDD03FB0000CA
:1029A000531C90FBF3F31E44A86D6B6DDFF8808021
:1029B000DFF8C490C8F8006000FB06F003FB00F0ED
:1029C00000EB8000400009F0C3FE1A49174F09F0E0
:1029D000C7FFD9F80030386001222260002B3FF495
:1029E000F8AE0221154808F023F9164808F0B0FBAC
:1029F00059211E4808F01CF9124808F0A9FBE8E626
:102A000010211B4808F014F9EB6F1AE70721194849
:102A100008F00EF918E703FB00F393FBF2F31E44F2
:102A2000C2E700BF9092FF1FFC92FF1FBC92FF1FE6
:102A30003887FF1FE4388E3E0000C842C4140100EE
:102A4000B092FF1FEC87FF1F14130100B4130100A5
:102A5000BC13010078B7FF1FA895FF1F00007A4440
:102A60005487FF1F801301008C1301002413010001
:102A700098130100AC1301004C87FF1F70B51120A3
:102A800082B006F045FA012818D0122006F040FA6C
:102A9000012813D000210B2006F034FA00210C206D
:102AA00006F030FA0021152006F02CFA2C492D4BA7
:102AB0000120002208701A6002B070BD01211520AB
:102AC00006F020FA284A294D294B1268D5F89410AF
:102AD00001921B68019A234C0B4493424FF0020170
:102AE000216005D901210C2006F00CFA02B070BD5E
:102AF000204B1E68002130460AF03AF8D8B1D5F8CC
:102B00009C001A4D09F024FE31460AF013F8002803
:102B1000E8D101210B2006F0F5F995F8C030032229
:102B200022605BB10E4B02221A7000210C2006F0CD
:102B3000E9F902B070BD06F10046E0E7112006F0A9
:102B4000E7F9012808D0122006F0E2F90128ECD1BB
:102B5000034B03221A70E8E7014B02221A70F2E7D6
:102B60007894FF1F3495FF1F78B7FF1FFC92FF1F5B
:102B70003C95FF1FB092FF1FF0B56D4E6D4D346850
:102B80002B689C4287B03AD014F0010156D014F063
:102B900002014AD014F004013ED0E3070FD52B68A0
:102BA000DF070CD4644F3A68002A00F09E80634B24
:102BB0001B680193019B934200F289803468A0074F
:102BC0000DD52B6899070AD45D4F3A68002A3ED08C
:102BD0005A4B1B680393039B93425AD8346862078D
:102BE0000DD52B685B070BD4564F3A68002A3FD0AF
:102BF000524B1B680593059B934258D834680CB11F
:102C000007B0F0BD2146162005F0FCFF2146172035
:102C100005F0F8FF07B0F0BD052005F0F3FF2B68C5
:102C2000346803F0FB032B60B7E7172005F0EAFFD9
:102C30002B68346803F0FD032B60ABE7162005F02A
:102C4000E1FF2B68346803F0FE032B609FE73E4BE7
:102C50001B68002B56D1FF21172005F0D3FF374BFF
:102C60003A4A19680291029912680A443A60B0E738
:102C7000354B1B68002B50D1FF21052005F0C2FF0A
:102C80002E4B324A19680491049912680A443A603A
:102C9000AFE72F4B1720D3F8981005F0B3FF2B6840
:102CA000346843F0020300222B603A6097E7284B18
:102CB0000520D3F8981005F0A5FF2B68346843F081
:102CC000040300222B603A60002C99D19AE7204B34
:102CD0001620D3F8981005F095FF2B68346843F060
:102CE000010300222B603A6069E7FF21162005F0FE
:102CF00089FF124B154A19680091009912680A441D
:102D00003A6055E7134808F023FA0C21124807F0FF
:102D10008FFF104808F01CFA9DE70E4808F018FADB
:102D20000C210E4807F084FF0A4808F011FAA3E7C7
:102D30003495FF1FCC93FF1F5094FF1F78B7FF1FE0
:102D40005494FF1F5894FF1F4C87FF1F6C87FF1F71
:102D5000FC92FF1FEC87FF1FC0130100D01301007E
:102D60002DE9F047534EDFF870813368DFF86C913E
:102D7000D3F88400504D0F2105F036FB00230122CB
:102D800022214E48C8F80030C9F8002007F050FF53
:102D9000D8F80030132B20DC40F6E4473368B5F850
:102DA00084A0D3F88400436B1C6905F09FF8A4B29B
:102DB000012107FB04F4B4FBF0F441485444A5F8A6
:102DC000844007F035FF642006F0D8F8D8F80030CA
:102DD0000133132BC8F80030E0DDB5F88430394AF0
:102DE0003948A2FB03129B1A02EB5303C3F30F13E0
:102DF0001946A5F8843008F0FBF91D21334807F087
:102E000017FF0221324807F013FF2F4808F0A0F9FE
:102E100000231A460E213068C8F8003004F0E0FFA5
:102E2000022322212548C9F8003007F001FFD8F815
:102E30000030132B20DC40F6E4473368B5F8869069
:102E4000D3F88400436B1C6905F050F8A4B201214B
:102E500007FB04F4B4FBF0F419484C44A5F8864091
:102E600007F0E6FE642006F089F8D8F80030013358
:102E7000132BC8F80030E0DDB5F88630114A12484F
:102E8000A2FB03129B1A02EB5303C3F30F13194661
:102E9000A5F8863008F0ACF91D210E4807F0C8FEF1
:102EA00002210B4807F0C4FE0748BDE8F04708F0D0
:102EB0004FB900BF1095FF1FFC92FF1FE0130100E8
:102EC0002414010087611886EC87FF1F0414010099
:102ED000C414010028140100AC92FF1F5487FF1F87
:102EE000F8B5804B804C814D1B68286D40F2513104
:102EF00008222160E271002B00F0E28009F028FC3A
:102F0000296A064609F078FC794909F075FC09F050
:102F10005FFE80B203126372764A774B12681B68B9
:102F2000A96920721512A37230461B12E372227334
:102F3000657309F061FC6E4909F05EFC09F048FE1A
:102F400083B21A1268496D48A373E27304F0A0FDBE
:102F50006B4B6C4A1B6812886349A272DFB207EBA5
:102F6000870503EB83066D0046F3D71612121B127A
:102F70002772257366730825002640F255375F488F
:102F8000E27263722760E571A673E67304F080FD58
:102F900040F256335C482360E571FDF789FD5B49DB
:102FA00009F02AFC09F014FE20725748FDF780FD55
:102FB000564909F021FC09F00BFE554A5349C0F36C
:102FC00007231068637209F0CBFC09F0DBFD40FABF
:102FD00005F203464C48E272A372FDF799FD44499D
:102FE00009F00AFC09F0CEFD20734748FDF790FD7B
:102FF0003F4909F001FC09F0C5FD3B49A67340F3C8
:1030000007233E486373E67304F042FD022005F097
:10301000B5FF404A404B17785678D178187892F827
:1030200002E02772DA785F786672E1729E78207328
:1030300040F25A332C493148E57184F80AE067734D
:10304000A673E273236004F023FD344B26491878FD
:103050005E789A782072187993F803E05F79667247
:10306000A2729E79DA79207340F25E33234884F8A5
:103070000BE0E2732360E5716773A67304F008FD4B
:10308000022005F07BFF264BE5711E785A7893F8F5
:1030900002E0D8781F799D79267262725E79DA79BA
:1030A000E0724FF45C7384F80AE027736673A573CB
:1030B000E27323600C491148BDE8F84004F0E8BC15
:1030C00009F046FB174B06461B68174880FB032098
:1030D000DB17C3EB601009F03BFB696909F08CFB5F
:1030E00031460FE79892FF1F2495FF1FFC92FF1FA8
:1030F000000020410895FF1F7C92FF1FD0B5FF1FE5
:103100003887FF1F3C87FF1FA895FF1F0000C8429C
:10311000B092FF1FF892FF1FD493FF1F2C87FF1F51
:103120005887FF1F6887FF1F1F85EB5170B50B4B3A
:103130000B481978FDF774FD0A4B0B480325022450
:1031400000224FF40076DD711C725A729A721E6072
:103150001946BDE8704004F09BBC00BFD093FF1F30
:10316000A895FF1F2495FF1FD0B5FF1FF8B5194C78
:10317000002204F10805234603F8012FAB42FBD1DE
:10318000154E164808234FF440723146F3713260F1
:1031900004F07EFC002304F8013FAC424FF000072E
:1031A000F9D14FF4447205230B490C483260F37196
:1031B0004FF4007404F06CFC022303227772B772A0
:1031C0003460F271337204490448BDE8F84004F0F9
:1031D0005FBC00BF2B95FF1F2495FF1FD0B5FF1FBD
:1031E00038B5164C164A2368101D12F8011F90427C
:1031F00041EA0323F9D12360124C03F10043236019
:10320000114BDB6F022B11D0104B1B68012B00D030
:1032100038BD0F4807F09CFF21680D4807F0E8FF14
:1032200003210C48BDE8384007F002BD20680A4D74
:1032300009F08EFA2860FEF7AFFFE5E75C94FF1F08
:10324000C792FF1F0095FF1FFC92FF1F4C94FF1FAA
:10325000EC87FF1F541401009492FF1F30B53C4CC3
:103260003C4883B0214604F00BFB236840F2C23295
:10327000934252D0A3F58C621F2A48D9A3F5FC6370
:103280000F2B3FD9344B1B68012B01D003B030BD4D
:10329000324B1B68012BF9D1314B32481B6801932B
:1032A0000A220023019907F063FF2268284B002AB5
:1032B000DB7945DB2C492D480AF066FA2B480AF0E9
:1032C0009FFA0146294807F0B3FC2568204B15F00A
:1032D000804526D1DB798BB1631925491A7A2348B9
:1032E0000AF052FA21480AF08BFA01461F4807F00B
:1032F0009FFC0135E379EDB2AB42EDD8194807F0F8
:1033000027FFC3E712491B48FDF71CFBBAE710492A
:103310001848FDF717FB2368B0E7FFF761FF236844
:10332000A8E7154D114C0FCD0FC495E8030044F8E4
:10333000040B204620F81419152107F079FCDDE76D
:103340000E490A4822F060420AF01EFAB6E700BFB2
:10335000C092FF1FD0B5FF1F4C87FF1F4C94FF1F6B
:1033600078B7FF1FEC87FF1F801401007C94FF1FBC
:10337000AC140100A895FF1F94140100581401001B
:10338000A24B1B78052B00F0A1802DE9F04FA04C3B
:10339000A04EA14D626EE36DA048326083B02B60F9
:1033A000FDF714FCE16A09F0C5FB08B100232B60AE
:1033B0009A48FDF709FCA16A09F0DAFB10B1002375
:1033C00033602B609548FDF74DFBE16809F0D0FBB9
:1033D00008B100232B609148FDF744FBE16809F038
:1033E000C7FB08B100232B608C48894FFDF712FB07
:1033F000216909F09FFB00286ED0002333602B6801
:10340000854F002B53DD8548DFF80482FDF7DCFB98
:10341000216B09F08FFB002840F0C480804B7F486F
:103420001B687B4F012B00F0FD80FDF71BFBE16962
:103430008046606909F0D6F80146404609F098FBDD
:10344000002834D0286809F083F982467348FDF7D4
:1034500009FBD7F814808346F969404609F0C2F8A1
:103460008146386E09F074F90446F86D09F070F978
:10347000214609F0B7F849460746584609F0B2F820
:103480000146384609F0B8F949460746404609F072
:10349000A9F80146384609F063FA214609F0A4F874
:1034A0000146504609F09EF809F06CFB286033682D
:1034B000584A002BAFBF2B682B6800211160002BEE
:1034C00001DA00232B6003B0BDE8F08F5149524A66
:1034D00000230B60136070475048FDF79BFAB969F1
:1034E00009F028FB002888D13368DFF82891002BE9
:1034F00085DD4A48FDF76AFB796B09F039FB002846
:1035000040F0B3804548424FFDF784FA216909F045
:103510002FFB002800F09F804048DFF8F480FDF783
:1035200079FAD4F8BC100746A06909F05DF80146A5
:10353000384609F0FFFA00283FF461AF306809F01F
:1035400007F982463548FDF765FA8346D8F86400E6
:10355000D8F8187009F0FCF839468146584609F049
:1035600041F849468346002009F03CF80146584698
:1035700009F042F9D8F8BC108346384609F034F80F
:10358000394609F02FF80146584609F0E9F949464D
:1035900009F02AF80146504609F024F809F0F2FA39
:1035A00030602CE7386809F0D3F883461B48FDF7F4
:1035B0000BFB0190D8F85C00D8F82CA009F0C8F8F3
:1035C000019B81465146184609F00CF84946019086
:1035D000002009F007F8019B0146184609F00CF994
:1035E00051460190D8F8300008F0FCFF019B0146DD
:1035F000184609F0B5F9494608F0F6FF0146584665
:1036000008F0F0FF09F0BEFA386007E77894FF1F72
:10361000FC92FF1F0895FF1F7C92FF1FA895FF1FBC
:103620009892FF1FFDF71EFAE1698046206A08F0B4
:10363000D9FF0146404609F09BFA00283FF437AF16
:10364000286809F085F882461E48FDF70BFAD7F87E
:103650002080834600E71B48FDF7DCF9B96909F0D3
:1036600087FA00287FF458AFC9E6D9F8000009F0BE
:103670006FF882461348FDF7A9FA0190786ED7F8E3
:10368000348009F065F8019B83464146184608F0EE
:10369000A9FF0146584609F0AFF841468346B86A8B
:1036A00008F0A0FF0146584609F05AF9002108F039
:1036B0009BFF0146504608F095FF09F063FAC9F8F0
:1036C00000001FE7A895FF1F08B5274807F040FD39
:1036D0000721264807F0ACFA112005F019FC062155
:1036E000F8B1234807F0A4FA122005F011FC0621D6
:1036F00000B3204807F09CFA122005F009FC0621CF
:1037000008B31D4807F094FA132005F001FC0621C8
:1037100010BB1A4807F08CFA1348BDE8084007F0C0
:1037200017BD174807F084FA122005F0F1FB0621B7
:103730000028DED1134807F07BFA122005F0E8FBE1
:1037400006210028DDD1104807F072FA132005F099
:10375000DFFB06210028DCD00C4807F069FA02489C
:10376000BDE8084007F0F4BCEC87FF1FB814010067
:10377000C0140100D0140100E0140100F81401008D
:10378000C8140100D8140100E8140100F01401006D
:1037900010B5254C2368042B27DC01210B2005F0F4
:1037A000B1FB01210C2005F0ADFB0121142005F037
:1037B000A9FB0121152005F0A5FBFF21162005F02E
:1037C00021FAFF21172005F01DFAFF21052005F041
:1037D00019FAFF21062005F015FA236801330A2B98
:1037E0002360C4BF0023236010BD00210B2005F01F
:1037F00089FB00210C2005F085FB0021142005F039
:1038000081FB0021152005F07DFB0021162005F02D
:10381000F9F90021172005F0F5F90021052005F040
:10382000F1F90021D6E700BF2095FF1F08B5FF2062
:1038300005F02CFEFF2005F029FEFF20BDE8084022
:1038400005F024BE70B582B005F0FAFE022801DC56
:1038500002B070BD05F004FFC0B22328F8D12E4C91
:1038600005F0FEFE23680093009EC5B207E02368C2
:103870000193019B9B1B642BEAD805F07FFB05F0AD
:10388000DFFEA8424FF00100F1DB05F0E9FEC0B217
:1038900001380328DCD8DFE800F02311090205F025
:1038A000DFFE0028D4D11D4B1860D1E705F0D8FE0B
:1038B0000028CDD11A4B1B4A1A60C9E705F0D0FE8B
:1038C000194C2368F0B9013B23600A21174805F021
:1038D00035FE2168164807F08BFCFFF7A7FFB7E716
:1038E00005F0BEFE134CE36D90B90A3BE3650A2177
:1038F000114805F023FEE16D0D4807F079FCFFF754
:1039000095FFA5E70133642BC8BF64232360DCE780
:103910000A33E365EBE700BF78B7FF1F9092FF1F04
:103920000CED00E00400FA056887FF1F0C1501008C
:10393000C087FF1FFC92FF1F001501002DE9F04119
:10394000122182B07648774C774E05F0F7FD774B21
:103950000A2219782046002307F00AFCFFF766FFC9
:103960000821734805F0EAFD724B2046196807F0FC
:103970003FFCFFF75BFF0C216F4805F0DFFD6F4B4D
:103980006F49186808F0ECFF08F08CFA0025024631
:103990000B460095204607F033FCFFF747FF09214F
:1039A000684805F0CBFD3046FDF7B2F808F07AFA2A
:1039B000009502460B46204607F022FCFFF736FF33
:1039C0000C21614805F0BAFD3046FDF7FFF808F01C
:1039D00069FA009502460B46204607F011FCFFF7F6
:1039E00025FF0D21594805F0A9FD3046FDF7ECF8FB
:1039F00008F058FA009502460B46204607F000FCF6
:103A0000FFF714FF0921524805F098FD3046FDF7F5
:103A10004FF8504908F0F0FE08F044FA00950246CD
:103A20000B46204607F0ECFBFFF700FF0C214A484D
:103A300005F084FD3046FCF7EDFF484908F0DCFE58
:103A400008F030FA009502460B46204607F0D8FBF6
:103A5000FFF7ECFE0D21424805F070FD3046FDF702
:103A600001F83E4908F0C8FE08F01CFA009502462D
:103A70000B46204607F0C4FBFFF7D8FE0E2139485D
:103A800005F05CFD3046FCF7EDFF80463046FCF764
:103A9000C1FF32490746404608F0AEFE2F490646B0
:103AA000384608F0A9FE0146304608F09BFD08F0B4
:103AB000F9F9009502460B46204607F0A1FBFFF7F7
:103AC000B5FE0C21284805F039FD284B2046197811
:103AD00007F08EFBFFF7AAFE0921254805F02EFD11
:103AE000244B2046196807F083FBFFF79FFE0A214D
:103AF000214805F023FD214B2046D96D07F078FBC6
:103B0000FFF794FE0A211E4805F018FD1D4B2046C4
:103B1000196807F06DFB02B0BDE8F041FFF786BE03
:103B200018150100C087FF1FA895FF1F7894FF1F7D
:103B30002C1501003887FF1F38150100B092FF1FB8
:103B40000000C84248150100541501006415010029
:103B500074150100000020418015010000007A4426
:103B600090150100A0150100B01501001895FF1F68
:103B7000C01501002487FF1F00150100FC92FF1FE4
:103B80000C1501006887FF1F2DE9F047B64DD5F8E9
:103B9000B030042B4ED0032B00F08E80012B00F0B0
:103BA000C680022B01D0BDE8F087B04CB04823722C
:103BB00040F20E32012321462260E37103F068FFD8
:103BC000AC4B1B685B00FF2BC8BFFF236372AA4B83
:103BD0004FF4417020601B68A848402222720421E3
:103BE00080FB0320DB17C3EB6010E17108F0B0FD30
:103BF000696908F001FE0646286D08F0A9FD014636
:103C0000304608F0F9FD9E49054608F0B1FF00284E
:103C100000F021812946284608F0E6FC08F0D8FF8C
:103C200080B20312E072A37290499148BDE8F04758
:103C300003F02EBF904B8D4C1B689048A2799149A0
:103C4000216080FB0310DB170821C3EB601042F0FA
:103C50000103A371E17108F07BFD696908F0CCFDF7
:103C60000646286D08F074FD0146304608F0C4FD94
:103C7000854908F0C1FD08F0ABFF7E4B834A1B6805
:103C8000126893FBF2F380B200261A1207126072D8
:103C900021467748E372A272277226736673A67371
:103CA000E67303F0F5FEA279D5F8B03066F30002B2
:103CB000032BA2717FF472AF6F4A704812686B4C8D
:103CC00080FB0210D2170121C2EB601040F2FF27E7
:103CD000E8220726A37262722760E671217208F05B
:103CE00037FD696908F088FD0646286D08F030FD4B
:103CF0000146304608F080FD634908F07DFD08F07C
:103D000067FF5C4B614A1B68126893FBF2F382B257
:103D10001E121712214656486373E2722773A67368
:103D200003F0B6FED5F8B030012B7FF43AAF584B14
:103D30004E4C1B682360072280231020E2712372FF
:103D400005F0E6F8002840F08D80524B1B68DFF844
:103D500028814A48474F4D4EDFF81091316803EBF8
:103D600083035B001A126272D8F80020A3723B68CA
:103D700093FBF1F380FB0210D217C2EB60101A1212
:103D80006273A37308F0E4FC696908F035FD8246AC
:103D9000286D08F0DDFC0146504608F02DFD3E4B35
:103DA000196808F01FFC384908F026FD08F010FFDC
:103DB00080B20312494620732D48E37203F068FE77
:103DC000022005F0DBF8354B1B68236007228023B7
:103DD0001020E271237205F09BF8002840D12D4B92
:103DE0001B6803EB83035B001A1289F80A3089F819
:103DF0000920D8F80030214AD81782FB0323C0EBF2
:103E0000631008F0A5FC696908F0F6FC8046286D8F
:103E100008F09EFC0146404608F0EEFC204B196875
:103E200008F0E0FB184908F0E7FC08F0D1FE82B288
:103E30004FEA222E30683B68227393FBF0F30B4964
:103E40000B48A3731A1284F80BE0627303F020FE90
:103E5000D5F8B030A5E601229023A272E372E3E622
:103E6000104BBDE70F4B71E7FC92FF1F2495FF1F1E
:103E7000D0B5FF1F7C92FF1F6887FF1F1F85EB5186
:103E800000004843F4E50618000020415087FF1F5A
:103E90006487FF1F4487FF1FD893FF1F3487FF1FCE
:103EA000B892FF1F4887FF1F38B5164D164A1748AE
:103EB000294604F075FB18B1154B1B68012B00D087
:103EC00038BD12211348144C06F0B2FE296813487D
:103ED0000023102207F04CF9104807F039F904F1DB
:103EE000080514F8011F0D4800230A2207F040F9C5
:103EF000092006F021FFA542F3D10848BDE838406B
:103F000007F026B9A092FF1FA492FF1F4495FF1F40
:103F10004095FF1FCC150100A392FF1FEC87FF1FE8
:103F2000FA2810B504461BD0B0F5FA7F0FD1102146
:103F3000134804F0EBFBC8B10F21124806F078FEDD
:103F4000114807F005F9114BA3F8C44010BD0F212B
:103F50000F4806F06DFE0C48BDE8104007F0F8B8B9
:103F60000F21074804F0D2FB0028E5D111210948B0
:103F700006F05EFE0448BDE8104007F0E9B800BF57
:103F80004495FF1FE0150100EC87FF1FFC92FF1F07
:103F900004160100F01501002DE9F04FBF4B1B780E
:103FA000032B83B00DD0BE4D2C68022C00F0AE80E8
:103FB0000134022C2C6001DD00232B6003B0BDE82E
:103FC000F08FB84FB64DD7F8B060042E00F0C08027
:103FD000032E00F0B780012E00F00481022E48D19C
:103FE0002C68DFF8BC92002C00F0D781012CDCD1CA
:103FF000DFF8B882AC4BAD4A1B68AD485B00FF2BC5
:10400000C8BFFF235370AB4B1B6880FB0320DB173B
:10401000C3EB6010402188F8001008F099FB796923
:1040200008F0EAFB0446386D08F092FB0146204692
:1040300008F0E2FBA049044608F09AFD002800F0D1
:1040400024822146204608F0CFFA08F0C1FD80B254
:10405000031288F8030088F80230042200238DE858
:1040600004014FF441711A46944804F065FAD7F8F8
:10407000B060062E6AD18F4B8D481B68904C80FB38
:104080000320DB1700220821C3EB60105026DC233D
:10409000227263722660E17108F05AFB796908F0B8
:1040A000ABFB0646386D08F053FB0146304608F07E
:1040B000A3FB8149074608F05BFD002840F016810C
:1040C0000722D023A272E372774B7D4E186800233B
:1040D000237308F03DFB394608F08EFB794907460B
:1040E00008F028FD002800F00C817749384608F0D8
:1040F00037FC08F06DFD80B20312B07373730123B7
:104100006F497248E37303F0C3FC1FE0654B93F8FB
:10411000CC0000283FF450AF644EA023337008F069
:1041200017FB6B4908F068FB08F052FD0023707024
:104130001A468DE850004FF4EA71604804F0FCF92B
:104140002C6835E72C68002C00F0DF802C682CE709
:104150002C68002CFAD1DFF85CA15548DAF8003061
:10416000DFF84881DFF840915A4E80FB0320DB17CF
:10417000C3EB601008F0ECFA796908F03DFB824669
:10418000386D08F0E5FA0146504608F035FB524913
:1041900008F032FB08F01CFDCDF8048080B2D9F89D
:1041A0000030366893FBF6F6021208234FEA262EFB
:1041B000009388F8002088F801002346012247492F
:1041C0003E4888F8036088F8044088F8054088F87D
:1041D000064088F8074088F802E004F0ADF9D7F807
:1041E000B060F5E62B68002B00F0F280012BADD11A
:1041F000DFF8C0A0DFF8B480DFF8AC90354E2B4C70
:104200008023102088F8003004F082FE002840F05F
:104210004381334B1B68264803EB83035B001A1270
:10422000A370DAF80030627080FB0320DB17C3EB69
:10423000601008F08DFA796908F0DEFA0446386DEE
:1042400008F086FA0146204608F0D6FA254B196890
:1042500008F0C8F9204908F0CFFA08F0B9FC224A62
:10426000D9F800301168346893FBF4F480B2072267
:1042700000230092021288F80400261288F8032016
:10428000CDF804801A460D4888F8056088F8064085
:1042900004F052F9D7F8B060A0E600BF7894FF1F91
:1042A000DC93FF1FFC92FF1F7C92FF1FA492FF1F55
:1042B0001F85EB516887FF1F000048434495FF1F8F
:1042C0002495FF1F00404E4500007043D0B5FF1FEE
:1042D0005C8FA23F5087FF1F00002041F4E50618C5
:1042E0004487FF1FB892FF1F3487FF1F6B49384672
:1042F00008F082FA08F06CFC80B20312E072A3723C
:10430000E2E696237073B373F9E6DFF8B4A164486C
:10431000DAF80030DFF8AC81DFF8AC9188F80260A1
:1043200080FB0320DB170122C3EB6010E82388F831
:10433000002088F8013008F00BFA7969594E08F02E
:104340005BFA8246386D08F003FA0146504608F0E1
:1043500053FA524908F050FA08F03AFC80B2CDF80E
:10436000048001120722D9F80030366888F803006B
:1043700093FBF6F600924FEA262E88F804102346A7
:10438000224640F2FF21484888F8056088F806E098
:1043900004F0D2F8D7F8B0601DE6DFF82881CDF838
:1043A0000480042300932246234640F20E313E4807
:1043B00088F8006088F8014088F8024088F80340D7
:1043C00004F0BAF8D9F80030012B7FF450AE11E6B2
:1043D000DFF8F0808023102088F8003004F098FD8A
:1043E000002850D1314B1B68DFF8D4A02C48DFF8EF
:1043F000D8902C4E2E4C316803EB83035B001A12CD
:1044000088F80120DAF8002088F80230D9F8003066
:1044100093FBF1F380FB0210D217C2EB601019126C
:1044200088F8063088F8051008F092F9796908F0E4
:10443000E3F98346386D08F08BF90146584608F0D9
:10444000DBF91C4B196808F0CDF8144908F0D4F9D1
:1044500008F0BEFB184BCDF80480196880B2002329
:1044600007224FEA202E009288F804001A460E48D0
:1044700088F803E004F060F82B68012B3FF4BFAE2E
:10448000D4F8B060AAE50D4BADE70122902388F87F
:10449000022088F80330E0E5084BBBE6000020412D
:1044A0001F85EB515087FF1F4495FF1F4487FF1F57
:1044B000FC92FF1FD893FF1F6487FF1F4887FF1FD1
:1044C0006887FF1FA492FF1F7C92FF1F10B504F0A6
:1044D000EBF90B48FCF7DAF90A48FDF735FA0A4A16
:1044E0000A4812680023012103F0A6FF942006F079
:1044F000CDFF044603F046FC054B1C6010BD00BF19
:10450000A895FF1FEC93FF1F4087FF1FD492FF1F4A
:104510001095FF1FF0B54FF47A6085B004F02EFDC2
:104520000021112004F002FD0021102004F0FEFC07
:104530000021122004F0FAFC0021132004F0F6FC04
:1045400001210B2004F0F2FC01210C2004F0EEFC10
:104550000121142004F0EAFC0121152004F0E6FCFE
:104560000121162004F0E2FC0121172004F0DEFCFA
:104570000121052004F0DAFC8E4C8F4D012106202C
:1045800004F0D4FC01210D2004F0D0FC208808F0B8
:10459000DBF80146162004F033FC208808F0D4F83C
:1045A0000146172004F02CFC208808F0CDF80146C5
:1045B000052004F025FC208808F0C6F800240146F8
:1045C000062004F01DFC009423467C4A7C497D486B
:1045D00003F066F8E6B2324677497A4803F00EF8FF
:1045E0002B79754977486FF30003013432462B71FC
:1045F00002F0FAFF082CEDD10924E6B232466E49EA
:10460000704802F0FBFF2B796B496E4843F00103C1
:10461000013432462B7102F0E7FF0D2CEDD16A4CCC
:1046200023681021D3F8840003F00CFD23681021C7
:10463000D3F8840003F09AFD23680221D3F88400A4
:1046400003F056FC23680221D3F8840003F0DEFD5A
:1046500023680F21D3F8840003F0C6FE0C215B48C9
:1046600006F0E6FA5A4806F073FD1621594806F09E
:10467000DFFA574806F06CFD4FF4E131564806F07A
:1046800007FC534806F064FD1721544806F0D0FAA1
:104690004F4806F05DFD524B1B789A0600F1BC8036
:1046A0004F4B1B781B0700F1C3804D4B1B785F07F6
:1046B00000F1CA804A4B1B789E0700F1D180494B1C
:1046C0001B781D0600F1D880464B1B785C0600F174
:1046D000DF80444B1B78980600F1E680414B1B7845
:1046E000590700F1ED803F4B1B781A0700F1F48069
:1046F0003C4B1B789B0700F1FB80354806F028FDFA
:1047000072B6394A4CF220504DF628111080202301
:104710001180013BFDD1354C3548364900234FF41B
:104720008055258003800B8032F80E3C9BB243F00D
:10473000D30322F80E3C62B618212F482F4D06F005
:1047400077FA234806F004FD05F1D0062F462C46E3
:10475000601B04F0F1F804F8010BB442F8D13B7887
:10476000122B01D0FDF706F9D7F8C810244806F03F
:104770003FFC0420FCF7C4FF224B002201210D2046
:104780001A6004F0BFFB796D1F48FCF793F97A6C4F
:1047900097F840101C48FCF78FF91C4B1C491A680D
:1047A000039203981B680293029A1A4B08601A60DE
:1047B00005B0F0BD2887FF1FE093FF1F6CB7FF1FF8
:1047C00048E80100D0B5FF1F1095FF1F1416010027
:1047D000EC87FF1F24160100C087FF1F3C16010055
:1047E00001F0074000F007400E200540042005407E
:1047F000062005401620054040170100FC92FF1FCF
:10480000D487FF1F8892FF1FA895FF1F78B7FF1F4F
:104810003C95FF1FE893FF1F2121394806F008FA55
:10482000384806F095FC384B1B781B077FF53DAFE9
:104830000C21364806F0FCF9324806F089FC324B70
:104840001B785F077FF536AF0E21314806F0F0F98F
:104850002C4806F07DFC2C4B1B789E077FF52FAF74
:1048600017212C4806F0E4F9264806F071FC2A4B83
:104870001B781D067FF528AF0E21284806F0D8F9D1
:10488000204806F065FC244B1B785C067FF521AFC1
:104890001221234806F0CCF91A4806F059FC1E4BA9
:1048A0001B7898067FF51AAF13211E4806F0C0F951
:1048B000144806F04DFC184B1B7859077FF513AFD1
:1048C0001C21194806F0B4F90E4806F041FC124BC1
:1048D0001B781A077FF50CAF1921144806F0A8F9C8
:1048E000084806F035FC0C4B1B789B077FF505AF9D
:1048F00018210F4806F09CF9024806F029FCFCE656
:1049000054160100EC87FF1F01F0074078160100E4
:10491000881601009816010000F00740B01601004B
:10492000C0160100D4160100E816010008170100A6
:104930002417010010B50146044600230A221A4834
:1049400006F016FC184806F003FCB4F5964F28D084
:1049500019D9B4F5164F14D0B4F5E13F18D104219C
:10496000124803F0F5FE124BC3F8C84005F020F9D9
:104970002146104806F03CFB0C48BDE8104003F00F
:10498000B5BE0221ECE7B4F5165F01D10021E7E7DF
:104990000F21094806F04CF90348BDE8104006F025
:1049A000D7BB0121DCE700BFEC87FF1F4495FF1F49
:1049B000FC92FF1FD487FF1F5C170100F0B5954CD8
:1049C000954D83B006F0CEF823682860042B00F0E4
:1049D0009E82022B29D0092B70D0082B40F09680A4
:1049E000322800F0EC83712800F09D80312840F0DF
:1049F0009E8006F0F3F8002840F311878748884E20
:104A000006F038FDC0B286F84000022894BF014687
:104A10000021726C834888BF86F84010FCF74CF880
:104A2000012369202360286018E3A0F13102422AA3
:104A30007DD8DFE812F07F078B079907AB07F507F2
:104A400004087C0011087C007C007C007C007C0059
:104A50007C007C007C007C007C007C007C007C0076
:104A60007C007C007C007C007C007C007C007C0066
:104A70007C007C007C007C007C007C007C007C0056
:104A80007C007C007C007C007C007C007C007C0046
:104A90007C007C007C007C007C0079077C007C0032
:104AA0007C007C007C007C007C007C007C007C0026
:104AB0007C007C007C0078007C001E08332801F01C
:104AC0004C8410DC312801F07A8432282FD1012364
:104AD000236006F083F8002815DD504806F0CAFC74
:104AE000FFF71EFA0FE034281BD10123236006F0E4
:104AF00075F8002807DD494806F0BCFC642303FB79
:104B000000F0FFF717FF782023682860072B40F09C
:104B1000AB80332801F02A8440F38682342801F0E8
:104B20005C84712803D100237320236028607328DC
:104B300008BF002B0CBF01200020002867D0374899
:104B400006F006FB0421384806F072F8334806F0F8
:104B5000FFFA1021354806F06BF8304806F0F8FAF5
:104B60001321334806F064F8324B2C48196806F0DC
:104B70003FFB2A4806F0ECFA14212F4806F058F8BB
:104B8000264806F0E5FA1E212C4806F051F8234885
:104B900006F0DEFA15212A4806F04AF81F4806F00A
:104BA000D7FA1E21274806F043F81C4806F0D0FA31
:104BB0002021254806F03CF8184806F0C9FA1921CA
:104BC000224806F035F8154806F0C2FA16212048AA
:104BD00006F02EF8114806F0BBFA12211D4806F027
:104BE00027F80E4806F0B4FA0F211B4806F020F80B
:104BF0000A4806F0ADFA0D21184806F019F80748E2
:104C000006F0A6FA164A002101231160236003B0C2
:104C1000F0BD00BF6494FF1F7892FF1FEC87FF1F59
:104C2000FC92FF1FA895FF1F8C200100942001001B
:104C3000A82001002487FF1FBC200100D420010010
:104C4000F42001000C2101002C2101005021010061
:104C50006C2101008421010098210100A82101009C
:104C60004C87FF1F23682868062B40F08D80A0F139
:104C70003102402A3FF65BAF01A151F822F000BF9C
:104C8000C5580000315800005B58000081580000F2
:104C9000A7580000F1580000155900002F4B0000E4
:104CA0002F4B00002F4B00002F4B00002F4B00001C
:104CB0002F4B00002F4B00002F4B00002F4B00000C
:104CC0002F4B00002F4B00002F4B00002F4B0000FC
:104CD0002F4B00002F4B00002F4B00002F4B0000EC
:104CE0002F4B00002F4B00002F4B00002F4B0000DC
:104CF0002F4B00002F4B00002F4B00002F4B0000CC
:104D00002F4B00002F4B00002F4B00002F4B0000BB
:104D10002F4B00002F4B00002F4B00002F4B0000AB
:104D20002F4B00002F4B00002F4B00002F4B00009B
:104D30002F4B00002F4B00002F4B00002F4B00008B
:104D40002F4B00002F4B00002F4B00002F4B00007B
:104D50002F4B00002F4B00002F4B00002F4B00006B
:104D60002F4B00002F4B00002F4B00002F4B00005B
:104D70002F4B00002F4B00002F4B00002F4B00004B
:104D8000274B000023682868052B15D1332801F034
:104D90004C8340F39181352801F03183C1F2568371
:104DA00071287FF4C4AECF4A0023732013602360C0
:104DB0002860BCE623682868032B40F0A480A0F19B
:104DC0003002422A3FF6B3AE01A151F822F000BFF3
:104DD000DD4E0000D7610000FF610000436100006C
:104DE0006561000087610000AF6100006160000044
:104DF0007F600000A36000002F4B00002F4B0000DD
:104E00002F4B00002F4B00002F4B00002F4B0000BA
:104E10002F4B00002F4B00002F4B00002F4B0000AA
:104E20002F4B00002F4B00002F4B00002F4B00009A
:104E30002F4B00002F4B00002F4B00002F4B00008A
:104E40002F4B00002F4B00002F4B00002F4B00007A
:104E50002F4B00002F4B00002F4B00002F4B00006A
:104E60002F4B00002F4B00002F4B00002F4B00005A
:104E70002F4B00002F4B00002F4B00002F4B00004A
:104E80002F4B00002F4B00002F4B00002F4B00003A
:104E90002F4B0000CB600000875B00002561000005
:104EA000E960000007610000DF5F00003D5B00007B
:104EB000615B00002F4B00002F4B00002F4B0000C8
:104EC0002F4B00002F4B00002F4B00002F4B0000FA
:104ED0002F4B0000556000003560000005F07EFE9D
:104EE000002841F333828048804E06F0C3FA012740
:104EF0000346014662227E48736527602A60FBF7FD
:104F0000D9FD23682868012B7FF411AEA6E0A0F13B
:104F10003002412A3FF60BAE01A151F822F000BF4A
:104F2000215B0000395B0000835A00009B5A00009F
:104F3000C15A0000055B0000C95A0000DB5A00009E
:104F4000DF5A0000E35A00002F4B00002F4B0000F7
:104F50002F4B00002F4B00002F4B00002F4B000069
:104F60002F4B00002F4B00002F4B00002F4B000059
:104F70002F4B00002F4B00002F4B00002F4B000049
:104F80002F4B00002F4B00002F4B00002F4B000039
:104F90002F4B00002F4B00002F4B00002F4B000029
:104FA0002F4B00002F4B00002F4B00002F4B000019
:104FB0002F4B00002F4B00002F4B00002F4B000009
:104FC0002F4B00002F4B00002F4B00002F4B0000F9
:104FD0002F4B00002F4B00002F4B00002F4B0000E9
:104FE0002F4B0000C55A00002F4B00002F4B000034
:104FF0002F4B00002F4B00002F4B00002F4B0000C9
:105000002F4B00002F4B00002F4B00002F4B0000B8
:105010002F4B00002F4B00002F4B00002F4B0000A8
:105020002F4B0000274B0000312801F0B2813228BD
:105030007FF47DAD05F0D2FD00287FF713AE2A483E
:105040002A4E06F017FA07F083FB2A4907F0D4FB33
:1050500061230122F06322602B601846A0F1520305
:10506000262B01F26A81DFE813F0DE08680968097F
:1050700068096809680968096809680968096809A8
:105080006809680968096809C1004C0B8802250392
:10509000A5016809680968093A026809490B6809A5
:1050A0006809680968096809E308680968096809FE
:1050B0006809680968093501312801F0D58132286D
:1050C0007FF435AD05F08AFD00287FF773AE064802
:1050D000064E06F0CFF901226B23C6F89C00226031
:1050E0002B600BE0D092FF1FEC87FF1FFC92FF1F8D
:1050F000A895FF1F6F12833A05F034FD05F06EFD91
:105100000028F9D1914806F023F8904806F020F8DD
:105110008E4806F01DF88D4806F01AF88B4806F008
:1051200017F821218A4805F083FD884806F010F819
:105130001521884805F07CFDD6F89410834806F0C8
:1051400057F80221844805F073FD804806F000F806
:105150001E21824805F06CFDD6F89C107B4806F0B5
:1051600047F803217E4805F063FD784805F0F0FF1D
:105170001E217C4805F05CFDD6F89810734806F0B7
:1051800037F8724805F0E4FF1D21774805F050FD1F
:10519000D6F8A4106D4806F02BF86C4805F0D8FF3F
:1051A0001E21724805F044FDD6F8A810674806F0A5
:1051B0001FF8664805F0CCFF0523236027E505F0BE
:1051C0000DFD002840F330836048694E06F052F927
:1051D00007F0BEFA674907F00FFB0346024696F850
:1051E00040106548736419E405F0BCFC05F0F6FC5A
:1051F00005460028F8D155485D4E05F0A9FF5348F3
:1052000005F0A6FF514805F0A3FF504805F0A0FFA8
:105210004E4805F09DFF1F21584805F009FD4B48F9
:1052200005F096FF1C21564805F002FD706A5549AD
:1052300007F0E2FA06F036FE009502460B464348B8
:1052400005F0DEFF0221504805F0F2FC3F4805F072
:105250007FFF23214D4805F0EBFCF06B494907F037
:10526000CBFA06F01FFE009502460B46374805F0C4
:10527000C7FF0221444805F0DBFC344805F068FF15
:105280001921434805F0D4FCB06B06F00BFE022553
:105290000B46024600952D4805F0B2FF29463D48D1
:1052A00005F0C6FC294805F053FF19213A4805F0DE
:1052B000BFFCB6F8B810254805F09AFF032137481F
:1052C00005F0B6FC214805F043FF072323609EE468
:1052D00005F048FC05F082FC05460028F8D11B4883
:1052E000234E05F035FF194805F032FF174805F049
:1052F0002FFF164805F02CFF144805F029FF122156
:10530000274805F095FC114805F022FF0F4805F0ED
:105310001FFF0E4805F01CFF1921224805F088FCEC
:1053200096F8C230002B41F0C28004211E4805F0DF
:105330007FFC064805F00CFF13211C4805F078FCA3
:10534000024805F005FF0923236060E4EC87FF1F96
:10535000841A0100A81A010094190100C01A010062
:1053600000130100E01A0100001B0100201B0100D6
:10537000FC92FF1F6F12833AA895FF1FE0190100EE
:10538000001A010000007A4478180100201A010078
:10539000441A0100601A0100641A0100801A010019
:1053A0007021010090170100AC1701001C180100CA
:1053B00005F0D8FB05F012FC05460028F8D1A548F9
:1053C000A54E05F0C5FEA34805F0C2FEA14805F0B4
:1053D000BFFEA04805F0BCFE9E4805F0B9FE1121B5
:1053E0009E4805F025FC9B4805F0B2FE28219C480C
:1053F00005F01EFC70699B4907F0FEF906F052FDAE
:10540000009502460B46934805F0FAFE02219648A5
:1054100005F00EFC8F4805F09BFE1621934805F021
:1054200007FCF0698F4907F0E7F906F03BFD0095AE
:105430000B460246874805F0E3FE02218A4805F044
:10544000F7FB844805F084FED6F8B030002B32DD3F
:105450001D21874805F0ECFBF06D07F079F98549CF
:1054600007F0CAF906F01EFD022502460B4600951C
:10547000784805F0C5FE01217F4805F0D9FB754845
:1054800005F066FE1F217D4805F0D2FB306E07F067
:105490005FF9784907F0B0F906F004FD009502467F
:1054A0000B466C4805F0ACFE0121734805F0C0FBCB
:1054B000684805F04DFE1121714805F0B9FBD6F89A
:1054C000B030062B00F2E486DFE813F02D07320738
:1054D000280723071E071907DE0605F043FB05F022
:1054E0007DFB05460028F8D15A485B4E05F030FE9A
:1054F000584805F02DFE574805F02AFE554805F09E
:1055000027FE544805F024FE15215E4805F090FB67
:10551000504805F01DFE18215B4805F089FB2B461D
:105520000A2296F840104B4805F022FE494805F043
:105530000FFE2821554805F07BFB706C494907F0A8
:105540005BF906F0AFFC00950B460246414805F0BA
:1055500057FE0221444805F06BFB3E4805F0F8FD7C
:1055600013214B4805F064FB3A4805F0F1FD082390
:105570002360FFF74CBB05F0F5FA05F02FFB002880
:10558000F9D13448344E05F0E3FD324805F0E0FD32
:10559000304805F0DDFD2F4805F0DAFD2D4805F017
:1055A000D7FD1F213B4805F043FB2A4805F0D0FDFD
:1055B0001E21394805F03CFB264805F0C9FD1A219B
:1055C000364805F035FBF36F022B01F07880032B92
:1055D00001F06C80012B01F060800921304805F05A
:1055E00027FB1C4805F0B4FD14212E481A4F05F086
:1055F0001FFBB16F174805F0FBFD164805F0A8FD2D
:105600001C21294805F014FBD6F88010114805F03C
:10561000EFFD104805F09CFD1C21244805F008FB17
:10562000D6F8AC100B4805F0E3FD0A4805F090FDF4
:10563000F56F25F00205012D00F0C48713211448F1
:1056400005F0F6FA034805F083FD02232360FFF717
:10565000DEBA00BFEC87FF1FFC92FF1FF82001009D
:105660007C18010000007A4478180100A818010095
:10567000C0180100CDCCCC3DBC1D0100E0180100DC
:105680000019010054210100301801004C180100DC
:105690001C1801007C1C01009C1C0100BC1C0100AA
:1056A000341D0100401D0100581D0100781D01003E
:1056B00005F058FA05F092FA0028F9D1BD48BE4D20
:1056C00005F046FDBB4805F043FDBA4805F040FD36
:1056D000B84805F03DFDB74805F03AFD1321B7483D
:1056E00005F0A6FAB34805F033FD0D21B44805F0E6
:1056F0009FFAB04805F02CFD0F21B24805F098FA4A
:10570000B14BAC48196805F073FDAA4805F020FDBF
:105710001321AE4805F08CFAAD4BA648196805F088
:1057200067FDA44805F014FD1221AA4805F080FA8F
:10573000A94BA048196805F05BFD9E4805F008FDDF
:105740001121A64805F074FAA54B9A48196805F08E
:105750004FFD984805F0FCFC0E21A24805F068FAC0
:10576000D5F8A010934805F043FD924805F0F0FCF1
:1057700019219D4805F05CFA9C4B8E48196805F08C
:1057800037FD8C4805F0E4FC1121994805F050FAEA
:10579000984B8848196805F02BFD864805F0D8FC21
:1057A0001021954805F044FA944B8248196805F099
:1057B0001FFD804805F0CCFC1C21914805F038FA0B
:1057C000904B7C48196805F013FD7A4805F0C0FC41
:1057D0001E218D4805F02CFA95F8C130002B00F001
:1057E000AC860D21894805F023FA724805F0B0FC1B
:1057F0001521874805F01CFA864B6E48196805F09C
:10580000F7FC6C4805F0A4FC1321834805F010FA5E
:10581000684805F09DFC04232360FFF7F8B9664E45
:1058200096F84000FFF7F1B823682868FFF76EB9D3
:1058300005F0D4F900287FF7A5AA5E485E4E05F072
:1058400019FE06F085FF754907F08AF865230122E5
:10585000F06122602B60184600E405F0BFF90028D3
:105860007FF790AA5348544E05F004FE00EB8000E9
:10587000430001226520F36522602860FFF7EEBB3C
:1058800005F0ACF900287FF77DAA4A484A4E05F09A
:10589000F1FD00EB800043000122652033662260A9
:1058A0002860FFF7DBBB444AD2F8B0300133062B47
:1058B000C8BF0023C2F8B0300123652023602860F0
:1058C000FFF7CCBB05F08AF900287FF75BAA3948BF
:1058D000394E05F0CFFD06F03BFF504907F040F888
:1058E00065230122706122602B601846FFF7B6BB6A
:1058F00005F074F900287FF745AA2E482E4E05F0D2
:10590000B9FD65230122C6F8B40022602B60184659
:10591000FFF7A4BB284B93F8C020002A00F0C285F3
:10592000002283F8C020C7E7FDF71AFA2368286829
:10593000FFF751B8204EB36FB3FA83F35B0901222E
:105940006320B36722602860FFF788BB1A4ED6F841
:105950008030B3FA83F35B0901226320C6F88030FC
:1059600022602860FFF77ABB0123236005F036F937
:10597000002805DD0F48104E05F07CFDC6F8AC0090
:105980000123632023602860FFF768BB01232360A5
:1059900005F024F9002807DD0648074E05F06AFDEA
:1059A00006F0D6FEC6F88C00632028602368FFF757
:1059B00014B800BFEC87FF1FFC92FF1F401B0100C3
:1059C000541B0100641B01004C94FF1F741B010059
:1059D0003895FF1F881B01007494FF1F9C1B01005A
:1059E0001495FF1FB01B0100C01B01006094FF1F36
:1059F000DC1B0100D092FF1FF01B01009C92FF1FD7
:105A0000041C01006087FF1F241C0100441C0100CE
:105A1000641C01004095FF1F1C18010000007A441F
:105A20000123236005F0DAF80028BDDD5D485E4EF5
:105A300005F020FD06F08CFEC6F88800B4E70123CF
:105A4000236005F0CBF80028AEDD5648564E05F031
:105A500011FDA6F8BA00A7E70123236005F0BEF800
:105A600000288DDD4F48504E05F004FDC6F890002B
:105A700086E74D4AD36F0133032BC8BF0023D3679A
:105A80007EE74A4A1368B3FA83F35B090121642075
:105A9000136021602860FFF7E1BA454A454F13685B
:105AA000002B0CBF012300234FF001001360206086
:105AB00040F00E86034664222A606420FEF78BBF06
:105AC0003D4ADFE73D4ADDE701233D482360FAF721
:105AD0000FFF3C4A23681060EDE73B4AD2E73B4AA0
